:03000000021015D6
:0C101500787FE4F6D8FD75812102105CA4
:1015B900D3EF9400EE9400401600000075080B75F7
:0F15C90009BED509FDD508FAEF1F70E41E80E1B9
:0115D80022F0
:1016710043BC807F0A7E001215B953DEFC43DE0CA9
:0A16810053BCDF53A8DF43DE202234
:10159800E4FDFC53BCF0EF444042BCE5BC30E5FB45
:1015A80053BCDF53BCBFAFBDEFADBEFCEDAE04FF17
:0115B8002210
:1015D90075940275931C7592027591F0759602E4E3
:1015E900F595F5B2F5B1F5B4F5B375CA04F5C922A7
:10001E003D3D3D3D3D3D3D3D3D3D20636F64652095
:10002E007374617274203D3D3D3D3D3D3D3D3D3D12
:04003E00200D0A0087
:1014620043BA801215D912168B1216711216CB12AC
:1014720016561216B81200061216F91216DE1200CD
:101482008A121425D2AF1213A67BFF7A00791E129C
:0A149200010912121F1211AA80F8BE
:1014250043BA8090FEB6E0F090FEEDE4F090FEEA5F
:101435007470F0A3F090FEF27404F0A37451F09070
:10144500FEF0E4F0A37431F090FEB5E04450F09066
:0D145500FEFD7480F090FEE0E04401F02206
:05000600D288D2A822FF
:1016B800438E805389F0758ACD758CD4C28DD28CB7
:0316C800D2A92282
:0A16F900538EBF53890F438910225E
:1016DE0043D10275D59175D4FF43D10843AF202273
:1016CB00759A50438E0475D7E875D6FF438E104339
:0316DB00AF01223A
:10168B0043BA0475841043844043D12075D3E87565
:09169B00D2FF43D18043AF1022BD
:0D000E00E4F5C7F5C5F5C675C380F5C4223D
:1016380075C78075F50C75C5038FC4EEF5C375C6FF
:0E1648005A75C6A57F0A7E001215B902000E63
:1015540075C78075F50C75C5028FC4EEF5C3AF056C
:101564008FC275C65A75C6A57F0A7E001215B902C8
:02157400000E67
:1015F90075C78075F50C75C5018FC4EEF5C375C641
:101609005A75C6A57F0A7E001215B9AFC202000E2F
:100CD60060F20110011A0123012C0135013E014782
:100CE6000151015A0164016E01770181018B019462
:100CF600019E01A801B201BC01C601CF01D901E3E1
:100D060001ED01F60200020A0213021D0226022F5D
:100D160002380242024B0254025C0265026E0276FF
:100D2600027F0287028F0297029F02A702AF02B6D6
:100D360002BE02C502CC02D302DA02E102E702EEEB
:100D460002F402FB03010307030D03120318031D3C
:100D560003230328032D03320337033C03410345D2
:100D6600034A034E03520356035A035E03620366A5
:100D7600036A036D037103740378037B037E0381A7
:100D860003840387038A038D038F039203950397D6
:100D96000399039C039E03A003A303A503A703A92A
:100DA60003AB03AD03AF03B103B203B403B603B899
:100DB60003B903BB03BC03BE03BF03C103C203C421
:060DC60003C503C603C7CC
:0E10A100900208EBF0A3EAF0A3E9F0A3EDF053
:1010AF00E490020EF090020BE014FF90020EE0FEAF
:1010BF00C39F505A900208E0FBA3E0FAA3E0F97532
:1010CF00F002EEA4F58285F083120567FF90020C03
:1010DF00E0FCA3E0FDC39FEC95F0402AA3E02401C0
:1010EF00FFE433FEEF25E0FFEE33FE8F828E831297
:1010FF000567FFC3ED9FEC95F0500B90020EE0FFDC
:10110F00A3E4F0A3EFF090020EE004F080979002BA
:06111F000FE0FEA3E0FF5B
:0111250022A7
:0512F700900204EFF07D
:1012FC00E4A3F0900204E0FF121598900207E02F8F
:10130C00F0900206E03EF0900205E004F0E0C39499
:10131C000A40E0900206E0FEA3E0FF7C007D0A128A
:10132C000512900206EEF0A3EFF07B017A01791022
:10133C00900206E0FFA3E090020CCFF0A3EFF07D4B
:04134C00790210A171
:1011AA0090010FE06401706C7F051212F79001093B
:1011BA00EFF07F061212F790010AEFF07F07121282
:1011CA00F790010BEFF0A3E0FF900109E0C39F90B5
:1011DA000242E0400554FEF080034401F090010D04
:1011EA00E0FF90010AE0C39F900242E0400554FDEF
:1011FA00F080034402F090010EE0FF90010BE0C37F
:10120A009F900242E0400554FBF080034404F0E45E
:05121A0090010FF0221D
:06008A00E4900243F022A5
:030003000214D014
:1014D000C0E0C083C082C0D075D000C00690024476
:1014E000E0FEA3E0F58BEEF58D9002437401F0D29F
:0E14F0008ED2ABD006D0D0D082D083D0E032E6
:03001B0002152AA1
:10152A00C0E0C083C082C0D0900243E0B4010CE4A2
:10153A00F0C2C4758BF7758DFF8006D2C4C28EC205
:0A154A00ABD0D0D082D083D0E032C5
:1016A400EF75F04BA42490FEE5F034E2900244F090
:0416B400A3CEF022AF
:0A170300EFB40103D2A122C2A1221B
:10161900546865202076616C7565206F6620616469
:0F162900635F76616C206973202564200D0A00D1
:050EA400900204EFF0D4
:100EA900E4A3F0A3F0A3F0900204E0FF12159890D8
:100EB9000206E02FF0900205E03EF0900207E00400
:100EC900F0E0C3940A40E0900205E0FEA3E0FF7C55
:100ED900007D0A120512900205EEF0A3EFF07BFFE8
:100EE9007A16791990020BEEF0A3EFF0120109C3FB
:100EF900900206E09450900205E0940550077405AD
:100F0900F0A37450F0900206E024B0FF900205E0CF
:100F190034FAFE7C007D24120512AB05AA04C3EB4A
:100F29009412EA940040067A007B018003E4FAFBFC
:100F3900900206E024B0FF900205E034FAFE7C003E
:100F49007D24120512EF2BFBEE3AFAD3EB941EEA3D
:0C0F5900940040047A007B1EAE02AF033F
:010F65002269
:040DCC0041010801D8
:10165600E4900000F0A3F0900082F0900102F0F018
:0B166600A3F0A3F0A3F0A3F0C2C72282
:0300430002112681
:10112600C0E0C083C082C0D075D000C007E59A3049
:10113600E12F539AFD900000E4F0900102E0601A5E
:10114600A3E0FF04F074022FF582E43400F583E097
:10115600F59B900102E014F08007900103E4F0C2D1
:10116600C7E59A30E033539AFE900001E070219073
:101176000106E0D394804002E4F0900106E0248268
:10118600F582E43400F583E59BF0900106E004F077
:10119600900104E4F0A37432F0D007D0D0D082D00E
:0411A60083D0E032E0
:03000B000213E6F7
:1013E600C0E0C083C082C0D0900104E07002A3E0D8
:1013F6006024900105E024FFF0900104E034FFF042
:10140600E07002A3E0700F900106E0D3940040065E
:0F1416009000017401F0D0D0D082D083D0E032AA
:03009300021576DD
:10157600C0E0C083C082E58430E1085384FD900159
:1015860008E4F0E58430E0035384FED082D083D0B3
:02159600E03241
:0B16EE008F85900108E070FA04F022E4
:1014FE005468652076616C7565206F662065657031
:10150E00726F6D5F73746174755F666C616720696D
:0C151E007320307825303278200D0A0050
:1013A6007F107E001215F9900202EFF07BFF7A148F
:1013B60079FE90020BE4F0A3EFF01201099002020D
:1013C600E0B4FF19900237746FF0A37401F0A374B0
:1013D60065F0A37450F0A3F0A3F0121350020DDFD2
:10135000E4FFFE121638900237E0FDE4FFFE12159E
:1013600054900238E0FD7F017E001215549002393E
:10137000E0FD7F027E0012155490023AE0FD7F03EB
:101380007E0012155490023BE0FD7F047E00121592
:101390005490023CE0FD7F057E001215547D587F7D
:0613A000107E000215544E
:100DDF00E4FFFE1215F9900237EFF0E0FD13135404
:100DEF000775F0B8A4FF90FEF9E5F0F0A3EFF0ED72
:100DFF00C413540775F0B8A4FFA3E5F0F0A3EFF008
:100E0F00900237E0FF90FEED30E006E04401F08005
:100E1F0004E054FEF0EF90FEED30E106E04410F0F8
:100E2F008004E054EFF07F017E001215F990023834
:100E3F00EFF030E0047F018002E4FF1217037F021E
:100E4F007E001215F9900239EFF030E004D2A8803D
:100E5F0002C2A8900239E0C313FF1216A47F037ECB
:100E6F00001215F990023AEFF07F047E001215F987
:100E7F0090023BEFF07F057E001215F990023CEFD8
:100E8F00F090023AE090010CF090023BE090010DDF
:050E9F00F0A3EFF022BA
:10121F00900001E064017065F07B017A00798290A3
:10122F000106E024FEFD121293AD07AC06900106F5
:10123F00E0FB2480F582E43400F583E0FE74812B1B
:10124F00F582E43400F583E0FBEBFFE4900106F058
:10125F00EDB50729ECB50625900082E0B4351EA345
:10126F00E024FC600F24FE600E24F6600D240D7048
:0D127F000C0208A5020BC1020A431207056C
:01128C00223F
:1008A5009002337403F0900086A3E025E0900232B5
:1008B500F0900084E0FEA3E0FDEDFF900235EEF040
:1008C500A3EFF09000027435F0A37403F0900232A8
:1008D500E0900004F0900202EEF0A3EFF0900232F7
:1008E500E0C313FF900236E02FFF900235E034009D
:1008F500FE900202E0FCA3E0FDC39FEC9E400302D4
:100905000A39E4900231F0900230F0EC60030209FC
:10091500F8ED14700302099A1470030209A5147006
:10092500030209DE1470030209EB240460030209C3
:10093500F8E4900230F0A3E0FB90FEF9E0FEA3E0BE
:10094500FF7C007DB8120512EF7802C333CE33CE9B
:10095500D8F94B900231F0E0FB90FEFBE0FEA3E0FE
:10096500FF7C007DB8120512EF7805C333CE33CE78
:10097500D8F94B900231F090FEEDE030E00790029F
:1009850031E04401F090FEEDE030E467900231E0A3
:100995004402F0805EE4900230F030A856A3803324
:1009A500E4900230F0900244E0FEA3E0FFEF2470F3
:1009B500FFEE341DFEE434FFFDE434FFFCE47B4B25
:1009C500FAF9F8120046780112059F900231EFF00E
:1009D50030A820E04401F0801A90010DE09002302B
:1009E500F090010C8008E4900230F090010EE09048
:1009F5000231F0900230E0FF900233E0FE04F07423
:100A0500022EF582E43400F583EFF0900231E0FF29
:100A1500900233E0FE04F074022EF582E43400F512
:100A250083EFF0900203E004F07006900202E00408
:0E0A3500F00208E2900232E02403FF02149C5B
:100BC1009002337403F0900086A3E025E090023296
:100BD100F0900084E0FEA3E0FDEDFF900235EEF021
:100BE100A3EFF09000027435F0A37404F090023288
:100BF100E0900004F0900202EEF0A3EFF0900232D8
:100C0100E0C313FF900236E02FFF900235E034007D
:100C1100FE900202E0FCA3E0FDC39FEC9E400302B4
:100C21000CCCE4900231F0900230F0EC705CED14E9
:100C3100601B1460291460321460402404704B7FDF
:100C4100061212F7900230EFF07F05800C7F081238
:100C510012F7900230EFF07F071212F7802790020F
:100C61003074AAF0A374BBF080207F0B120EA49005
:100C71000230EFF07F0A120EA4800AE4900230F0F5
:100C81007F0C120EA4900231EFF0900230E0FF9041
:100C91000233E0FE04F074022EF582E43400F583A1
:100CA100EFF0900231E0FF900233E0FE04F07402B5
:100CB1002EF582E43400F583EFF0900203E004F0B6
:100CC1007006900202E004F0020BFE900232E02472
:050CD10003FF02149C6A
:100A4300900085E0147003020ADC147003020B1497
:100A5300147003020B50147003020B8F2404600301
:100A6300020BC078027C007D017B017A0079827ED3
:100A7300007F081204D3900007E0FF90FEED30E002
:100A830006E04401F08004E054FEF0EF90FEED3008
:100A9300E106E04410F08004E054EFF0900007E03A
:100AA300FD1313540775F0B8A4FF90FEF9E5F0F0B9
:100AB300A3EFF0EDC413540775F0B8A4FFA3E5F05A
:100AC300F0A3EFF09001027408F0D2C7439A0290AA
:100AD3000007E0900237020BBC78027C007D017BAB
:100AE300017A0079827E007F081204D3900007E028
:100AF30030E0047F018002E4FF12170390010274C7
:100B030008F0D2C7439A02900007E0900238020B24
:100B1300BC78027C007D017B017A0079827E007FB4
:100B2300081204D3900007E0FF30E004D2A880024B
:100B3300C2A8EFC313FF1216A49001027408F0D2E7
:100B4300C7439A02900007E0900239806C78027CD8
:100B5300007D017B017A0079827E007F081204D335
:100B6300900007E090010CF0900006E090010DF07A
:100B73009001027408F0D2C7439A0290010CE090EE
:100B8300023AF090010DE090023B802D78027C0048
:100B93007D017B017A0079827E007F081204D39065
:100BA3000007E090010EF09001027408F0D2C743F1
:0E0BB3009A0290010EE090023CF012135022C4
:100705009002347407F0900088E0900232F0900077
:1007150084E0FEA3E0FDEDFF900235EEF0A3EFF0DF
:1007250078027C007D017B017A0079827E007F065C
:100735001204D3900235E0FFA3E0900202CFF0A3AC
:10074500EFF0900232E0C313FF900236E02FFF90E6
:100755000235E03400FE900202E0FCA3E0FDC39FF9
:10076500EC9E4003020886900234E02482F582E480
:100775003400F583E0900230F0900234E02483F5F4
:1007850082E43400F583E0900231F0EC6003020866
:100795006EED1460711470030208251470030208CD
:1007A500441470030208622404600302086E900278
:1007B50031E0FF90FEED30E006E04401F08004E01A
:1007C50054FEF0EF90FEED30E106E04410F08004B9
:1007D500E054EFF0900231E0FD1313540775F0B8C3
:1007E500A4FF90FEF9E5F0F0A3EFF0EDC413540774
:1007F50075F0B8A4FFA3E5F0F0A3EFF0900231E0A7
:10080500900237F08063900231E030E0047F018090
:1008150002E4FF121703900231E0900238F080499C
:10082500900231E0FF30E004D2A88002C2A8EFC3F5
:1008350013FF1216A4900231E0900239F0802A903D
:100845000231E090010CF0900230E0FF90010DF0D4
:1008550090010CE090023AF0A3EFF0800C90023189
:10086500E090010EF090023CF0900234E02402F09A
:10087500900203E004F07006900202E004F0020723
:10088500477D0612128DAD07AC06EC900008F0A36B
:10089500EFF09001027408F0D2C7439A0202135098
:06128D007B017A007902EA
:05129300900204EDF0E3
:1012980074FFA3F0A3F01204F9FF900205E0F0A395
:1012A800E06FF0E4FD900205E0FEA3E0FF30E019F6
:1012B800EEC313FEEF13FFEE64A0FEEF6401FF9090
:1012C8000205EEF0A3EFF0800B900205E0C313F0E7
:1012D800A3E013F00DEDB408CC740129F9E43AFA4F
:0E12E800900204E014F070AEA3E0FEA3E0FF5D
:0112F60022D5
:02149C00AC079B
:10149E00AD0412128DAB07AA06EAFF74022CF58278
:1014AE00E43400F583EFF0AF0374032CF582E434DB
:1014BE0000F583EFF0EC2402900102F0D2C7439ABC
:0114CE00021B
:0114CF0022FA
:0E0DD00041023D0142023E000042024000008E
:03009B00020F66EB
:100F6600C0E0C083C082C0D075D000C001C003C03D
:010F76000773
:100F770090023DE0FF7006D2C3D2C2D2C1900243B5
:100F8700E0F96401702AEF64017025900242E0FFE6
:100F9700FB54FE24FF82C192C1EB54FD24FF82C2A1
:100FA70092C2EF54FB24FF82C392C390023DE4F048
:100FB700E9700590023D04F090023FE004F07006EE
:100FC70090023EE004F090023EE07004A3E0646407
:100FD700702D90023EF0A3F0900241E004F07006FD
:100FE700900240E004F0900240E0B40312A3E0B4A2
:0F0FF700E80D90010F7401F0900240E4F0A3F0B8
:0F100600D007D003D001D0D0D082D083D0E03239
:10102100021462E493A3F8E493A34003F68001F26F
:1010310008DFF48029E493A3F85407240CC8C333D0
:10104100C4540F4420C8834004F456800146F6DF9F
:10105100E4800B0102040810204080900CD6E47E4D
:10106100019360BCA3FF543F30E509541FFEE49394
:10107100A360010ECF54C025E060A840B8E493A35B
:10108100FAE493A3F8E493A3C8C582C8CAC583CA86
:10109100F0A3C8C582C8CAC583CADFE9DEE780BE3E
:010DDE000014
:10040300E709F608DFFA8046E709F208DFFA803EDB
:1004130088828C83E709F0A3DFFA8032E309F608C8
:10042300DFFA8078E309F208DFFA807088828C8330
:10043300E309F0A3DFFA806489828A83E0A3F608E4
:10044300DFFA805889828A83E0A3F208DFFA804CBE
:1004530080D280FA80C680D4806980F28033801095
:1004630080A680EA809A80A880DA80E280CA8033FE
:1004730089828A83ECFAE493A3C8C582C8CCC58376
:10048300CCF0A3C8C582C8CCC583CCDFE9DEE78046
:100493000D89828A83E493A3F608DFF9ECFAA9F0C5
:1004A300EDFB2289828A83ECFAE0A3C8C582C8CC1B
:1004B300C583CCF0A3C8C582C8CCC583CCDFEADE34
:1004C300E880DB89828A83E493A3F208DFF980CC96
:1004D30088F0EF60010E4E60C388F0ED2402B4048F
:1004E3000050B9F582EB2402B4040050AF23234536
:0604F30082239004537304
:1004F900BB010689828A83E0225002E722BBFE0201
:09050900E32289828A83E4932233
:10051200BC000BBE0029EF8DF084FFADF022E4CCCD
:10052200F875F008EF2FFFEE33FEEC33FCEE9DEC96
:10053200984005FCEE9DFE0FD5F0E9E4CEFD22EDDC
:10054200F8F5F0EE8420D21CFEADF075F008EF2F26
:10055200FFED33FD4007985006D5F0F222C398FD17
:050562000FD5F0EA22B4
:10056700BB0110E58229F582E5833AF583E0F5F0D2
:10057700A3E0225009E92582F886F008E622BBFEAF
:100587000AE92582F8E2F5F008E222E5832AF583F5
:08059700E993F5F0A3E99322BA
:10004600C2D5E830E70FB2D5E4C39BFBE49AFAE4E5
:1000560099F9E498F8EC30E717B2D512007C12064D
:100066002DE4C39BFBE49AFAE499F9E498F880033B
:1000760012062D30D50DE4C39FFFE49EFEE49DFDE0
:04008600E49CFC22D8
:10059F00E8600FEFC333FFEE33FEED33FDEC33FCBA
:0305AF00D8F1225E
:10009E00E508240BF582E43402F583E0050822908E
:1000AE00020830070390020BE475F0011206BF023E
:1000BE0004F92000E97F2ED2008018EF540F24900F
:1000CE00D43440D4FF30040BEF24BFB41A005003D5
:1000DE002461FFE50960021509050CE50C700205A7
:1000EE000B30070E900208E475F0011206BFEF0206
:1000FE0005DF0216EE7403D2078003E4C207F5088B
:10010E009002081206D6E4F509F50BF50CE5096028
:10011E00077F201200E180F5750AFFC201C200C2FE
:10012E0002C203C205C206C2081200ADFF700D3036
:10013E0007057F001200F2AF0CAE0B22B4255FC292
:10014E00D5C2041200ADFF24D0B40A00501A75F0C7
:10015E000A780930D50508B6FF0106C6A426F62092
:10016E00D5047002D20380D924CFB41A00EF500404
:10017E00C2E5D2040202F3D20180C6D20080C0D200
:10018E000280BCD2D580BAD20580B47F201200E1A5
:10019E002002077401B5090040F112009EFF120003
:1001AE00E102011BD208D206809512009EFB1200BE
:1001BE009EFA12009EF94A4B700679C47A037BFFB1
:1001CE0020022EE509602A7E008E827583001205BC
:1001DE00B260060EEE650A70F0C2D5EBC0E0EAC062
:1001EE00E0E9C0E0EE12033AD0E0F9D0E0FAD0E058
:1001FE00FB1204F9FF60AAEBC0E0EAC0E0E9C0E040
:10020E001200E1D0E02401F9D0E03400FAD0E0FB96
:10021E00E50A0460DCD50AD980877BFF7A0379363C
:10022E00D202809C791080027908C206C20880082A
:10023E00D2D5790A8004790AC2D5E50A047002F58E
:10024E000AE4FAFDFEFF12009EFC7B082001131249
:10025E00009EFD7B1030000A12009EFE12009EFFD3
:10026E007B20EC3382D592D55013C3E43000069F29
:10027E00FFE49EFEE42001039DFDE49CFCE4CBF82C
:10028E00C201EC700CCFCECDCCE824F8F870F38020
:10029E0017C3EF33FFEE33FEED33FDEC33FCEB33E0
:1002AE00FB994002FB0FD8E9EB300105F8D0E0C412
:1002BE0048B201C0E00AEC4D4E4F78207B0070C270
:1002CE00EAB50A0040BCC0E012033CD0F0D0E020FA
:1002DE000104C4C0E0C4B201C0F01200CAD0F0D50F
:1002EE00F0EB02011B1206DF01B8530232580189EE
:1002FE004C01854202364F023E44023E49019E4366
:08030E000244550228460228B2
:100316004502284703E450018D2D01912E01B42B8F
:1003260001952301B22003CD2A014D48000001ACFE
:100336003F3F3F00790AA2D5200314300509B910C2
:10034600020404B9080104A2D520060250010420C3
:1003560002689202B509005034C0E07F20300319CC
:100366007F30A20272067205500F120393C202C2B8
:1003760006C205C2087F30800F300503E9C0E012CF
:1003860000E1300503D0E0F9D0E0B509CC3005171F
:100396007F30B9100C1200E17F583004077F788057
:1003A60003B908031200E13002057F2D0200E17F48
:1003B600202008F87F2B2006F322920280CF286E99
:1003C600756C6C2900D20112009E3001F8C20178CA
:1003D6000930D50108F602014D2D50434958120047
:1003E6009E2403B405004001E49003DF931200D27B
:0D03F600743A1200D2D203750904020232DB
:1005B200BB010CE58229F582E5833AF583E02250FE
:1005C20006E92582F8E622BBFE06E92582F8E22248
:0D05D200E58229F582E5833AF583E4932262
:1005DF00BB010689828A83F0225002F722BBFE01FB
:0205EF00F322F5
:1005F10075F008758200EF2FFFEE33FECD33CDCCC1
:1006010033CCC58233C5829BED9AEC99E582984043
:100611000CF582EE9BFEED9AFDEC99FC0FD5F0D620
:10062100E4CEFBE4CDFAE4CCF9A88222B800C1B94A
:100631000059BA002DEC8BF084CFCECDFCE5F0CB88
:10064100F97818EF2FFFEE33FEED33FDEC33FCEBC1
:1006510033FB10D703994004EB99FB0FD8E5E4F97C
:10066100FA227818EF2FFFEE33FEED33FDEC33FC69
:10067100C933C910D7059BE99A4007EC9BFCE99A5D
:10068100F90FD8E0E4C9FAE4CCFB2275F010EF2FA2
:10069100FFEE33FEED33FDCC33CCC833C810D707A2
:1006A1009BEC9AE899400AED9BFDEC9AFCE899F8DD
:0E06B1000FD5F0DAE4CDFBE4CCFAE4C8F92270
:1006BF00F8E0FBA3A3E0F925F0F0E58215827002C4
:0706CF001583E0FA38F02268
:0906D600EBF0A3EAF0A3E9F02225
:1006DF00D083D082F8E4937012740193700DA3A3AA
:1006EF0093F8740193F5828883E4737402936860BE
:0606FF00EFA3A3A380DFBE
:00000001FF
