:0300000002105497
:0C105400787FE4F6D8FD75812102109B26
:10161A00D3EF9400EE9400401600000075080B7595
:0F162A0009BED509FDD508FAEF1F70E41E80E157
:01163900228E
:10008E00546865206164635F76616C206973202516
:05009E0064200D0A00C2
:1016B20043BC807F0A7E0012161A53DEFC43DE0C06
:0A16C20053BCDF53A8DF43DE2022F3
:10138000E4900214F0A3F053BCF0EF444042BCE5FB
:10139000BC30E5FB53BCDF53BCBFAFBDEFFFADBE00
:1013A000ED900214CFF0A3EFF07BFF7A00798E90DE
:1013B0000214E0FFA3E0900219CFF0A3EFF01201B6
:0913C00011900214E0FEA3E0FF0D
:0113C9002201
:1015860075940275931C7592027591F0759602E436
:10159600F595F5B2F5B190FE13E04440F075B49EB2
:0915A600E4F5B375CA04F5C9228D
:10001E003D3D3D3D3D3D3D3D3D3D20636F64652095
:10002E007374617274203D3D3D3D3D3D3D3D3D3D12
:04003E00200D0A0087
:1014C50043BA801215861216CC1216B212170912DB
:1014D50016971216F6120046120003121737121746
:1014E5001C12144DD2AF1215AF7BFF7A00791E1274
:0A14F50001111211EF1212C780F866
:10144D0043BA8090FEB6E0F090FEEDE4F090FEEA37
:10145D007470F0A3F090FEF27404F0A37451F09048
:10146D00FEF0E4F0A37431F090FEB5E04450F0903E
:0D147D00FEFD7480F090FEE0E04401F022DE
:04000300438F1022F5
:1016F600438E805389F0758ACD758CD4C28DD28C79
:03170600D2A92243
:0A173700538EBF53890F438910221F
:10171C0053D1DFE4F5D375D2DC43D18043AF402203
:10170900759A50438E0475D7E875D6FF438E1043FA
:03171900AF0122FB
:1016CC0075AC1043AC4043D10275D5E875D4FF43DB
:0616DC00D10843AF082213
:0D000E00E4F5C7F5C5F5C675C380F5C4223D
:1016790075C78075F50C75C5038FC4EEF5C375C6BE
:0E1689005A75C6A57F0A7E0012161A02000EC0
:1015D60075C78075F50C75C5028FC4EEF5C3AF05EA
:1015E6008FC275C65A75C6A57F0A7E0012161A02E4
:0215F600000EE5
:10163A0075C78075F50C75C5018FC4EEF5C375C6FF
:10164A005A75C6A57F0A7E0012161AAFC202000E8C
:1014FF005468652061766572616765206164635F1A
:10150F0076616C206973202564200D0A005468658C
:0F151F002074656D70206973202564200D0A000B
:100D120060FC011003D503FA04200446046D049517
:100D220004BE04E70510053A0565059005BB05E715
:100D32000613063F066C069906C606F30720074D02
:100D4200077A07A707D40800082D0859088508B1B3
:100D520008DC09070931095B098409AD09D609FDD7
:100D62000A240A4B0A710A960ABB0ADE0B020B24FA
:100D72000B460B670B870BA70BC60BE40C020C1E72
:100D82000C3A0C560C700C8A0CA40CBC0CD40CEC57
:100D92000D020D190D2E0D430D570D6B0D7E0D908D
:100DA2000DA20DB40DC50DD50DE50DF50E040E12F7
:100DB2000E200E2E0E3B0E480E550E610E6D0E7855
:100DC2000E830E8D0E970EA10EAB0EB40EBD0EC687
:100DD2000ECF0ED70EDF0EE70EEF0EF60EFD0F044E
:100DE2000F0B0F110F170F1D0F230F290F2F0F3589
:100DF2000F3A0F3F0F440F490F4E0F530F580F5C1E
:100E02000F600F650F690F6D0F710F740F780F7CF4
:0E10E000900214EBF0A3EAF0A3E9F0A3EDF008
:1010EE00E490021BF0A3F090021AF0900217E014A5
:1010FE00FF90021AE0FEC39F505A900214E0FBA329
:10110E00E0FAA3E0F975F002EEA4F58285F0831201
:10111E00056FFF900218E0FCA3E0FDC39FEC95F075
:10112E00402AA3E02401FFE433FEEF25E0FFEE3377
:10113E00FE8F828E8312056FFFC3ED9FEC95F050EC
:10114E000B90021AE0FFA3E4F0A3EFF090021AE076
:0C115E0004F0809790021BE0FEA3E0FF6D
:01116A002262
:050FC00090020EEFF0AD
:100FC500E4900210F0A3F090020FF090020EE0FF03
:100FD500121380900211E02FF0900210E03EF09085
:100FE500020FE004F0E0C3940A40E0900210E0FE36
:100FF500A3E0FF7C007D0A12051A900210EEF0A313
:10100500EFF07BFF7A1479FF900219EEF0A3EFF071
:101015001201117B017A017910900210E0FFA3E023
:10102500900218CFF0A3EFF07D7E1210E09002122F
:10103500EEF0A3EFF07BFF7A15791C900219EEF024
:0E104500A3EFF0120111900212E0FEA3E0FFF3
:01105300227A
:1012C70090010FE06401705A7F04120FC09001096A
:1012D700EFF07F05120FC090010AEFF07F06120FA3
:1012E700C090010BEFF0A3E0FF900109E0C39F401E
:1012F70004D2C18002C2C190010DE0FF90010AE053
:10130700C39F4004D2C28002C2C290010EE0FF9088
:10131700010BE0C39F4004D2C38002C2C3E4900123
:031327000FF022A2
:0C004600E490024CF0D2C3D2C2D2C1221E
:0300530002152E65
:10152E00C0E0C083C082C0D075D000C00690024D0E
:10153E00E0FEA3E0F58BEEF58D90024C7401F0D237
:0E154E008ED2ABD006D0D0D082D083D0E03287
:03001B0002155C6F
:10155C00C0E0C083C082C0D090024CE0B4010CE467
:10156C00F0C2C4758BF7758DFF8006D2C4C28EC2D3
:0A157C00ABD0D0D082D083D0E03293
:1016E200EF75F04BA42490FEE5F034E290024DF049
:0416F200A3CEF02271
:0A174100EFB40103C2A122D2A122DD
:10165A005468652076616C7565206F6620637572C3
:0F166A0072656E74206973202564200D0A2000BC
:050E1C0090020EEFF052
:100E2100E4900211F0A3F0A3F090020EE0FF121380
:100E310080900212E02FF0900211E03EF090021338
:100E4100E004F0E0C3940A40E0900211E0FEA3E068
:100E5100FF7C007D0A12051A900211EEF0A3EFF05B
:100E6100C39450EE9405500A9002117405F0A374D6
:100E710050F0900212E024B0FB900211E034FAFA33
:100E81007C007D24AF03FE12051A90020FECF0A343
:100E9100EDF0C39412EC9400400A90020FE4F0A329
:100EA10004F08007E490020FF0A3F07C007D24AFF2
:100EB10003AE0212051A900210E02FFF90020FE01C
:100EC1003EFEF0A3EFF0D3941EEE94004009900291
:100ED1000FE4F0A3741EF07BFF7A16795A90020F8B
:100EE100E0FFA3E0900219CFF0A3EFF012011190FF
:070EF100020FE0FEA3E0FF89
:010EF80022D7
:040E12004101080092
:10169700E4900000F0A3F0900082F0900102F0F0D7
:0B16A700A3F0A3F0A3F0A3F0C2C72241
:0300430002116B3C
:10116B00C0E0C083C082C0D075D000C007E59A3004
:10117B00E12F539AFD900000E4F0900102E0601A19
:10118B00A3E0FF04F074022FF582E43400F583E052
:10119B00F59B900102E014F08007900103E4F0C28C
:1011AB00C7E59A30E033539AFE900001E07021902E
:1011BB000106E0D394804002E4F0900106E0248223
:1011CB00F582E43400F583E59BF0900106E004F032
:1011DB00900104E4F0A37432F0D007D0D0D082D0C9
:0411EB0083D0E0329B
:03000B0002140ECE
:10140E00C0E0C083C082C0D0900104E07002A3E0AF
:10141E006024900105E024FFF0900104E034FFF019
:10142E00E07002A3E0700F900106E0D39400400636
:0F143E009000017401F0D0D0D082D083D0E03282
:03008B000215F863
:1015F800C0E0C083C082E5AC30E10853ACFD900187
:1016080008E4F0E5AC30E00353ACFED082D083D0E0
:02161800E032BE
:0B172C008FAD900108E070FA04F0227D
:1015AF007F107E0012163AEFB4FF19900245746F48
:1015BF00F0A37401F0A37465F0A37450F0A3F0A32B
:0715CF00F012132A020EF9CD
:10132A00E4FFFE121679900245E0FDE4FFFE121575
:10133A00D6900246E0FD7F017E001215D690024744
:10134A00E0FD7F027E001215D6900248E0FD7F0381
:10135A007E001215D6900249E0FD7F047E00121528
:10136A00D690024AE0FD7F057E001215D67D587F91
:06137A00107E000215D6F2
:100EF900E4FFFE12163A900245EFF0E0FD13135499
:100F09000775F0B8A4FF90FEF9E5F0F0A3EFF0ED56
:100F1900C413540775F0B8A4FFA3E5F0F0A3EFF0EC
:100F2900900245E0FF90FEED30E006E04401F080DC
:100F390004E054FEF0EF90FEED30E106E04410F0DD
:100F49008004E054EFF07F017E0012163A900246C9
:100F5900EFF030E0047F018002E4FF1217417F02C5
:100F69007E0012163A900247EFF030E005438F10E9
:100F79008003538FEF900247E0C313FF1216E27FFD
:100F8900037E0012163A900248EFF07F047E0012A9
:100F9900163A900249EFF07F057E0012163A900248
:100FA9004AEFF0900248E090010CF0900249E0907D
:070FB900010DF0A3EFF0228F
:1011EF00900001E064017065F07B017A00798290D4
:1011FF000106E024FEFD121263AD07AC0690010656
:10120F00E0FB2480F582E43400F583E0FE74812B4B
:10121F00F582E43400F583E0FBEBFFE4900106F088
:10122F00EDB50729ECB50625900082E0B4351EA375
:10123F00E024FC600F24FE600E24F6600D240D7078
:0D124F000C020A59020BFB0208B612070D33
:01125C00226F
:100A59009002417403F0900086A3E025E0900240E3
:100A6900F0900084E0FEA3E0FDEDFF900243EEF07C
:100A7900A3EFF09000027435F0A37403F0900240E4
:100A8900E0900004F090020CEEF0A3EFF090024029
:100A9900E0C313FF900244E02FFF900243E03400CB
:100AA900FE90020CE0FCA3E0FDC39FEC9E40030214
:100AB9000BF1E490023FF090023EF0EC6003020B70
:100AC900B0ED147003020B4E147003020B5B14702B
:100AD90003020B96147003020BA324046003020B98
:100AE900B0E490023EF0A3E0FB90FEF9E0FEA3E043
:100AF900FF7C007DB812051AEF7802C333CE33CEDE
:100B0900D8F94B90023FF0E0FB90FEFBE0FEA3E03A
:100B1900FF7C007DB812051AEF7805C333CE33CEBA
:100B2900D8F94B90023FF090FEEDE030E0079002DB
:100B39003FE04401F090FEEDE030E46B90023FE0CD
:100B49004402F08062E490023EF030A15AA3E0F042
:100B59008055E490023EF090024DE0FEA3E0FFEFE5
:100B69002470FFEE341DFEE434FFFDE434FFFCE4A1
:100B79007B4BFAF9F81213CA78011205A790023FC4
:100B8900EFF0E58F30E420E04401F0801A90010D88
:100B9900E090023EF090010C8008E490023EF09053
:100BA900010EE090023FF090023EE0FF900241E02A
:100BB900FE04F074022EF582E43400F583EFF09020
:100BC900023FE0FF900241E0FE04F074022EF5823C
:100BD900E43400F583EFF090020DE004F070069024
:100BE900020CE004F0020A96900240E02403FF029E
:020BF900148A5C
:100BFB009002417403F0900086A3E025E090024040
:100C0B00F0900084E0FEA3E0FDEDFF900243EEF0D8
:100C1B00A3EFF09000027435F0A37404F09002403F
:100C2B00E0900004F090020CEEF0A3EFF090024085
:100C3B00E0C313FF900244E02FFF900243E0340027
:100C4B00FE90020CE0FCA3E0FDC39FEC9E40030270
:100C5B000D08E490023FF090023EF0EC705EED1454
:100C6B00601B14602E1460371460422404704D7F97
:100C7B0004120FC090023FEFF07F05800C7F06122D
:100C8B000FC090023FEFF07F07120FC090023EEFB4
:100C9B00F0802990023E74AAF0A374BBF0801D7FF4
:100CAB000B120E1C90023EEFF07F0A8007E49002BD
:100CBB003EF07F0C120E1C90023FEFF090023EE0D4
:100CCB00FF900241E0FE04F074022EF582E4340042
:100CDB00F583EFF090023FE0FF900241E0FE04F05D
:100CEB0074022EF582E43400F583EFF090020DE0F0
:100CFB0004F0700690020CE004F0020C38900240F5
:070D0B00E02403FF02148A3B
:1008B600900085E01470030209561470030209952E
:1008C6001470030209DA147003020A202404600378
:1008D600020A5878027C007D017B017A0079827ECB
:1008E600007F081204DB900007E0FF90FEED30E089
:1008F60006E04401F08004E054FEF0EF90FEED3097
:10090600E106E04410F08004E054EFF0900007E0C8
:10091600FD1313540775F0B8A4FF90FEF9E5F0F047
:10092600A3EFF0EDC413540775F0B8A4FFA3E5F0E8
:10093600F0A3EFF09001027408F0D2C77F057E00A5
:1009460012161A439A02900007E0900245020A54D2
:1009560078027C007D017B017A0079827E007F0827
:100966001204DB900007E030E0047F018002E4FF20
:100976001217419001027408F0D2C77F057E00125B
:10098600161A439A02900007E0900246020A54782B
:10099600027C007D017B017A0079827E007F08124D
:1009A60004DB900007E0FF30E005438F108003531F
:1009B6008FEFEFC313FF1216E29001027408F0D214
:1009C600C77F057E0012161A439A02900007E09030
:1009D6000247807A78027C007D017B017A00798269
:1009E6007E007F081204DB900007E090010CF09077
:1009F6000006E090010DF09001027408F0D2C77F66
:100A0600057E0012161A439A0290010CE0900248E5
:100A1600F090010DE0900249803478027C007D015F
:100A26007B017A0079827E007F081204DB90000742
:100A3600E090010EF09001027408F0D2C77F057EA7
:100A46000012161A439A0290010EE090024AF01222
:030A5600132A223E
:10070D009002427407F0900088E0900240F0900053
:10071D0084E0FEA3E0FDEDFF900243EEF0A3EFF0C9
:10072D0078027C007D017B017A0079827E007F0654
:10073D001204DB900243E0FFA3E090020CCFF0A384
:10074D00EFF0900240E0C313FF900244E02FFF90C2
:10075D000243E03400FE90020CE0FCA3E0FDC39FD9
:10076D00EC9E4003020890900242E02482F582E460
:10077D003400F583E090023EF0900242E02483F5D0
:10078D0082E43400F583E090023FF0EC6003020850
:10079D0078ED14607114700302082D1470030208B3
:1007AD004E14700302086C24046003020878900252
:1007BD003FE0FF90FEED30E006E04401F08004E004
:1007CD0054FEF0EF90FEED30E106E04410F08004B1
:1007DD00E054EFF090023FE0FD1313540775F0B8AD
:1007ED00A4FF90FEF9E5F0F0A3EFF0EDC41354076C
:1007FD0075F0B8A4FFA3E5F0F0A3EFF090023FE091
:10080D00900245F0806590023FE030E0047F01806A
:10081D0002E4FF12174190023FE0900246F0804B38
:10082D0090023FE0FF30E005438F108003538FEFC0
:10083D00EFC313FF1216E290023FE0900247F080E3
:10084D002A90023FE090010CF090023EE0FF9001F3
:10085D000DF090010CE0900248F0A3EFF0800C90A9
:10086D00023FE090010EF090024AF0900242E02427
:10087D0002F090020DE004F0700690020CE004F01E
:10088D0002074F7D0612125DAD07AC06EC90000815
:10089D00F0A3EFF09001027408F0D2C77F057E003F
:0908AD0012161A439A0202132AE2
:06125D007B017A0079021A
:0512630090020EEDF009
:1012680074FFA3F0A3F0120501FF90020FE0F0A3B2
:10127800E06FF0E4FD90020FE0FEA3E0FF30E0191C
:10128800EEC313FEEF13FFEE64A0FEEF6401FF90C0
:10129800020FEEF0A3EFF0800B90020FE0C313F003
:1012A800A3E013F00DEDB408CC740129F9E43AFA7F
:0E12B80090020EE014F070AEA3E0FEA3E0FF83
:0112C6002205
:02148A00AC07AD
:10148C00AD0412125DAB07AA06EAFF74022CF582BA
:10149C00E43400F583EFF0AF0374032CF582E434ED
:1014AC0000F583EFF0EC2402900102F0D2C77F0527
:0814BC007E0012161A439A0289
:0114C4002205
:050E160042024F000044
:0300A30002005602
:06005600C0E0C083C0827F
:10005C00900250E004F0700690024FE004F0900221
:10006C004FE07004A3E06464700C90010F04F090F6
:06007C00024FE4F0A3F0C6
:07008200D082D083D0E032F0
:101060000214C5E493A3F8E493A34003F68001F2CD
:1010700008DFF48029E493A3F85407240CC8C33391
:10108000C4540F4420C8834004F456800146F6DF60
:10109000E4800B0102040810204080900D12E47ED1
:1010A000019360BCA3FF543F30E509541FFEE49355
:1010B000A360010ECF54C025E060A840B8E493A31C
:1010C000FAE493A3F8E493A3C8C582C8CAC583CA47
:1010D000F0A3C8C582C8CAC583CADFE9DEE780BEFF
:010E1B0000D6
:10040B00E709F608DFFA8046E709F208DFFA803ED3
:10041B0088828C83E709F0A3DFFA8032E309F608C0
:10042B00DFFA8078E309F208DFFA807088828C8328
:10043B00E309F0A3DFFA806489828A83E0A3F608DC
:10044B00DFFA805889828A83E0A3F208DFFA804CB6
:10045B0080D280FA80C680D4806980F2803380108D
:10046B0080A680EA809A80A880DA80E280CA8033F6
:10047B0089828A83ECFAE493A3C8C582C8CCC5836E
:10048B00CCF0A3C8C582C8CCC583CCDFE9DEE7803E
:10049B000D89828A83E493A3F608DFF9ECFAA9F0BD
:1004AB00EDFB2289828A83ECFAE0A3C8C582C8CC13
:1004BB00C583CCF0A3C8C582C8CCC583CCDFEADE2C
:1004CB00E880DB89828A83E493A3F208DFF980CC8E
:1004DB0088F0EF60010E4E60C388F0ED2402B40487
:1004EB000050B9F582EB2402B4040050AF2323452E
:0604FB00822390045B73F4
:10050100BB010689828A83E0225002E722BBFE02F8
:09051100E32289828A83E493222B
:10051A00BC000BBE0029EF8DF084FFADF022E4CCC5
:10052A00F875F008EF2FFFEE33FEEC33FCEE9DEC8E
:10053A00984005FCEE9DFE0FD5F0E9E4CEFD22EDD4
:10054A00F8F5F0EE8420D21CFEADF075F008EF2F1E
:10055A00FFED33FD4007985006D5F0F222C398FD0F
:05056A000FD5F0EA22AC
:10056F00BB0110E58229F582E5833AF583E0F5F0CA
:10057F00A3E0225009E92582F886F008E622BBFEA7
:10058F000AE92582F8E2F5F008E222E5832AF583ED
:08059F00E993F5F0A3E99322B2
:1013CA00C2D5E830E70FB2D5E4C39BFBE49AFAE44E
:1013DA0099F9E498F8EC30E717B2D512140012061E
:1013EA0035E4C39BFBE49AFAE499F9E498F880039C
:1013FA0012063530D50DE4C39FFFE49EFEE49DFD41
:04140A00E49CFC2240
:1005A700E8600FEFC333FFEE33FEED33FDEC33FCB2
:0305B700D8F12256
:1000A600E5082419F582E43402F583E00508229078
:1000B6000216300703900219E475F0011206C70212
:1000C60005012000E97F2ED2008018EF540F2490FE
:1000D600D43440D4FF30040BEF24BFB41A005003CD
:1000E6002461FFE50960021509050CE50C7002059F
:1000F6000B30070E900216E475F0011206C7EF02E8
:1001060005E702172C7403D2078003E4C207F5083B
:100116009002161206DEE4F509F50BF50CE509600A
:10012600077F201200E980F5750AFFC201C200C2EE
:1001360002C203C205C206C2081200B5FF700D3026
:1001460007057F001200FAAF0CAE0B22B4255FC282
:10015600D5C2041200B5FF24D0B40A00501A75F0B7
:100166000A780930D50508B6FF0106C6A426F6208A
:10017600D5047002D20380D924CFB41A00EF5004FC
:10018600C2E5D2040202FBD20180C6D20080C0D2F0
:100196000280BCD2D580BAD20580B47F201200E995
:1001A6002002077401B5090040F11200A6FF1200F3
:1001B600E9020123D208D20680951200A6FB12009E
:1001C600A6FA1200A6F94A4B700679CC7A037BFF91
:1001D60020022EE509602A7E008E827583001205B4
:1001E600BA60060EEE650A70F0C2D5EBC0E0EAC052
:1001F600E0E9C0E0EE120342D0E0F9D0E0FAD0E048
:10020600FB120501FF60AAEBC0E0EAC0E0E9C0E02E
:100216001200E9D0E02401F9D0E03400FAD0E0FB86
:10022600E50A0460DCD50AD980877BFF7A03793E2C
:10023600D202809C791080027908C206C208800822
:10024600D2D5790A8004790AC2D5E50A047002F586
:100256000AE4FAFDFEFF1200A6FC7B082001131239
:1002660000A6FD7B1030000A1200A6FE1200A6FFB3
:100276007B20EC3382D592D55013C3E43000069F21
:10028600FFE49EFEE42001039DFDE49CFCE4CBF824
:10029600C201EC700CCFCECDCCE824F8F870F38018
:1002A60017C3EF33FFEE33FEED33FDEC33FCEB33D8
:1002B600FB994002FB0FD8E9EB300105F8D0E0C40A
:1002C60048B201C0E00AEC4D4E4F78207B0070C268
:1002D600EAB50A0040BCC0E0120344D0F0D0E020EA
:1002E6000104C4C0E0C4B201C0F01200D2D0F0D5FF
:1002F600F0EB0201231206E701C053023A580191BE
:100306004C018D42023E4F02464402464901A64335
:08031600024C55023046023092
:10031E004502304703EC5001952D01992E01BC2B5F
:10032E00019D2301BA2003D52A015548000001B4CE
:10033E003F3F3F00790AA2D5200314300509B910BA
:10034E00020404B9080104A2D520060250010420BB
:10035E0002689202B509005034C0E07F20300319C4
:10036E007F30A20272067205500F12039BC202C2A8
:10037E0006C205C2087F30800F300503E9C0E012C7
:10038E0000E9300503D0E0F9D0E0B509CC3005170F
:10039E007F30B9100C1200E97F583004077F788047
:1003AE0003B908031200E93002057F2D0200E97F30
:1003BE00202008F87F2B2006F322920280CF286E91
:1003CE00756C6C2900D2011200A63001F8C20178BA
:1003DE000930D50108F60201552D50434958120037
:1003EE00A62403B405004001E49003E7931200DA5B
:0D03FE00743A1200DAD20375090402023AC3
:1005BA00BB010CE58229F582E5833AF583E02250F6
:1005CA0006E92582F8E622BBFE06E92582F8E22240
:0D05DA00E58229F582E5833AF583E493225A
:1005E700BB010689828A83F0225002F722BBFE01F3
:0205F700F322ED
:1005F90075F008758200EF2FFFEE33FECD33CDCCB9
:1006090033CCC58233C5829BED9AEC99E58298403B
:100619000CF582EE9BFEED9AFDEC99FC0FD5F0D618
:10062900E4CEFBE4CDFAE4CCF9A88222B800C1B942
:100639000059BA002DEC8BF084CFCECDFCE5F0CB80
:10064900F97818EF2FFFEE33FEED33FDEC33FCEBB9
:1006590033FB10D703994004EB99FB0FD8E5E4F974
:10066900FA227818EF2FFFEE33FEED33FDEC33FC61
:10067900C933C910D7059BE99A4007EC9BFCE99A55
:10068900F90FD8E0E4C9FAE4CCFB2275F010EF2F9A
:10069900FFEE33FEED33FDCC33CCC833C810D7079A
:1006A9009BEC9AE899400AED9BFDEC9AFCE899F8D5
:0E06B9000FD5F0DAE4CDFBE4CCFAE4C8F92268
:1006C700F8E0FBA3A3E0F925F0F0E58215827002BC
:0706D7001583E0FA38F02260
:0906DE00EBF0A3EAF0A3E9F0221D
:1006E700D083D082F8E4937012740193700DA3A3A2
:1006F70093F8740193F5828883E4737402936860B6
:06070700EFA3A3A380DFB5
:00000001FF
