:03000000020CC827
:0C0CC800787FE4F6D8FD758121020D0F45
:1012F700D3EF9400EE9400401600000075080B75BC
:0F13070009BED509FDD508FAEF1F70E41E80E17D
:0113160022B4
:1013AF0043BC807F0A7E001212F753DEFC43DE0C33
:0A13BF0053BCDF53A8DF43DE2022F9
:1012D600E4FDFC53BCF0EF444042BCE5BC30E5FB0A
:1012E60053BCDF53BCBFAFBDEFADBEFCEDAE04FFDC
:0112F60022D5
:1013170075940275931C7592027591F0759602E4A7
:10132700F595F5B2F5B1F5B4F5B375CA04F5C9226B
:10001E003D3D3D3D3D3D3D3D3D3D20636F64652095
:10002E007374617274203D3D3D3D3D3D3D3D3D3D12
:04003E00200D0A0087
:1011A00043BA801213171213C91213AF1214091283
:1011B00013941213F612000612143712141C1200A4
:1011C0008A121163D2AF1210E47BFF7A00791E12EB
:0A11D0000109120F5D120EE880F80D
:1011630043BA8090FEB6E0F090FEEDE4F090FEEA24
:101173007470F0A3F090FEF27404F0A37451F09035
:10118300FEF0E4F0A37431F090FEB5E04450F0902B
:0D119300FEFD7480F090FEE0E04401F022CB
:05000600D288D2A822FF
:1013F600438E805389F0758ACD758CD4C28DD28C7C
:03140600D2A92246
:0A143700538EBF53890F4389102222
:10141C0043D10275D59175D4FF43D10843AF202237
:10140900759A50438E0475D7E875D6FF438E1043FD
:03141900AF0122FE
:1013C90043BA0475841043844043D12075D3E8752A
:0913D900D2FF43D18043AF102282
:0D000E00E4F5C7F5C5F5C675C380F5C4223D
:1013760075C78075F50C75C5038FC4EEF5C375C6C4
:0E1386005A75C6A57F0A7E001212F702000EED
:1012920075C78075F50C75C5028FC4EEF5C3AF0531
:1012A2008FC275C65A75C6A57F0A7E001212F70252
:0212B200000E2C
:1013370075C78075F50C75C5018FC4EEF5C375C605
:101347005A75C6A57F0A7E001212F7AFC202000EB9
:1008DC0060F20110011A0123012C0135013E014780
:1008EC000151015A0164016E01770181018B019460
:1008FC00019E01A801B201BC01C601CF01D901E3DF
:10090C0001ED01F60200020A0213021D0226022F5B
:10091C0002380242024B0254025C0265026E0276FD
:10092C00027F0287028F0297029F02A702AF02B6D4
:10093C0002BE02C502CC02D302DA02E102E702EEE9
:10094C0002F402FB03010307030D03120318031D3A
:10095C0003230328032D03320337033C03410345D0
:10096C00034A034E03520356035A035E03620366A3
:10097C00036A036D037103740378037B037E0381A5
:10098C0003840387038A038D038F039203950397D4
:10099C000399039C039E03A003A303A503A703A928
:1009AC0003AB03AD03AF03B103B203B403B603B897
:1009BC0003B903BB03BC03BE03BF03C103C203C41F
:0609CC0003C503C603C7CA
:0E0DDF00900206EBF0A3EAF0A3E9F0A3EDF01A
:100DED00E490020CF0900209E014FF90020CE0FE7A
:100DFD00C39F505A900206E0FBA3E0FAA3E0F975F9
:100E0D00F002EEA4F58285F083120471FF90020AC0
:100E1D00E0FCA3E0FDC39FEC95F0402AA3E0240184
:100E2D00FFE433FEEF25E0FFEE33FE8F828E83125B
:100E3D000471FFC3ED9FEC95F0500B90020CE0FF99
:100E4D00A3E4F0A3EFF090020CE004F08097900281
:060E5D000DE0FEA3E0FF22
:010E6300226C
:05103500900202EFF043
:10103A00E4A3F0900202E0FF1212D6900205E02F1C
:10104A00F0900204E03EF0900203E004F0E0C39462
:10105A000A40E0900204E0FEA3E0FF7C007D0A1251
:10106A00041C900204EEF0A3EFF07B017A017910E0
:10107A00900204E0FFA3E090020ACFF0A3EFF07D14
:04108A0079020DDFFB
:100EE80090010FE06401706C7F05121035900109C4
:100EF800EFF07F0612103590010AEFF07F0712100D
:100F08003590010BEFF0A3E0FF900109E0C39F903B
:100F18000239E0400554FEF080034401F090010DD1
:100F2800E0FF90010AE0C39F900239E0400554FDBC
:100F3800F080034402F090010EE0FF90010BE0C343
:100F48009F900239E0400554FBF080034404F0E42C
:050F580090010FF022E2
:06008A00E490023AF022AE
:0300030002120ED8
:10120E00C0E0C083C082C0D075D000C00690023B43
:10121E00E0FEA3E0F58BEEF58D90023A7401F0D26C
:0E122E008ED2ABD006D0D0D082D083D0E032AA
:03001B0002126866
:10126800C0E0C083C082C0D090023AE0B4010CE470
:10127800F0C2C4758BF7758DFF8006D2C4C28EC2CA
:0A128800ABD0D0D082D083D0E0328A
:1013E200EF75F04BA42490FEE5F034E290023BF05E
:0413F200A3CEF02274
:0A144100EFB40103D2A122C2A122E0
:10135700546865202076616C7565206F662061642E
:0F136700635F76616C206973202564200D0A0096
:050AAA00900202EFF0D4
:100AAF00E4A3F0A3F0A3F0900202E0FF1212D6909D
:100ABF000204E02FF0900203E03EF0900205E00404
:100ACF00F0E0C3940A40E0900203E0FEA3E0FF7C55
:100ADF00007D0A12041C900203EEF0A3EFF07BFFDF
:100AEF007A137957900209EEF0A3EFF0120109C3C0
:100AFF00900204E09450900203E0940550077405AF
:100B0F00F0A37450F0900204E024B0FF900203E0D1
:100B1F0034FAFE7C007D2412041CAB05AA04C3EB3F
:100B2F009412EA940040067A007B018003E4FAFBFA
:100B3F00900204E024B0FF900203E034FAFE7C0040
:100B4F007D2412041CEF2BFBEE3AFAD3EB941EEA32
:0C0B5F00940040047A007B1EAE02AF033D
:010B6B002267
:0409D20041010801D6
:10139400E4900000F0A3F0900082F0900102F0F0DD
:0B13A400A3F0A3F0A3F0A3F0C2C72247
:03004300020E6446
:100E6400C0E0C083C082C0D075D000C007E59A300E
:100E7400E12F539AFD900000E4F0900102E0601A23
:100E8400A3E0FF04F074022FF582E43400F583E05C
:100E9400F59B900102E014F08007900103E4F0C296
:100EA400C7E59A30E033539AFE900001E070219038
:100EB4000106E0D394804002E4F0900106E024822D
:100EC400F582E43400F583E59BF0900106E004F03C
:100ED400900104E4F0A37432F0D007D0D0D082D0D3
:040EE40083D0E032A5
:03000B00021124BB
:10112400C0E0C083C082C0D0900104E07002A3E09C
:101134006024900105E024FFF0900104E034FFF006
:10114400E07002A3E0700F900106E0D39400400623
:0F1154009000017401F0D0D0D082D083D0E0326F
:030093000212B4A2
:1012B400C0E0C083C082E58430E1085384FD90011E
:1012C40008E4F0E58430E0035384FED082D083D078
:0212D400E03206
:0B142C008F85900108E070FA04F022A8
:10123C005468652076616C7565206F6620656570F5
:10124C00726F6D5F73746174755F666C6167206932
:0C125C007320307825303278200D0A0015
:1010E4007F107E00121337900202EFF07BFF7A121A
:1010F400793C900209E4F0A3EFF012010990020296
:10110400E0B4FF1990022E746FF0A37401F0A3747D
:1011140065F0A37450F0A3F0A3F012108E0209E559
:10108E00E4FFFE12137690022EE0FDE4FFFE121234
:10109E009290022FE0FD7F017E001212929002309C
:1010AE00E0FD7F027E00121292900231E0FD7F037E
:1010BE007E00121292900232E0FD7F047E00121228
:1010CE0092900233E0FD7F057E001212927D587FD2
:0610DE00107E00021292D8
:1009E500E4FFFE12133790022EEFF0E0FD131354CF
:1009F5000775F0B8A4FF90FEF9E5F0F0A3EFF0ED70
:100A0500C413540775F0B8A4FFA3E5F0F0A3EFF005
:100A150090022EE0FF90FEED30E006E04401F0800C
:100A250004E054FEF0EF90FEED30E106E04410F0F6
:100A35008004E054EFF07F017E0012133790022FFF
:100A4500EFF030E0047F018002E4FF1214417F02E1
:100A55007E00121337900230EFF030E004D2A88008
:100A650002C2A8900230E0C313FF1213E27F037E97
:100A750000121337900231EFF07F047E0012133716
:100A8500900232EFF07F057E00121337900233EFAC
:100A9500F0900231E090010CF0900232E090010DEF
:050AA500F0A3EFF022B8
:100F5D00900001E064017065F07B017A0079829068
:100F6D000106E024FEFD120FD1AD07AC069001067F
:100F7D00E0FB2480F582E43400F583E0FE74812BE0
:100F8D00F582E43400F583E0FBEBFFE4900106F01D
:100F9D00EDB50729ECB50625900082E0B4351EA30A
:100FAD00E024FC600F24FE600E24F6600D240D700D
:0D0FBD000C020799020C1B02060F120D54C6
:010FCA002204
:10079900E4900202F0900085E0147003020830141E
:1007A90070030208501470030208A72403600302AF
:1007B90008DB900082E0900002F0900083E0900056
:1007C90003F0A37402F0900202E0FB90FEF9E0FE50
:1007D900A3E0FF7C007DB812041CEF7802C333CE7E
:1007E90033CED8F94B900202F0E0FB90FEFBE0FE1D
:1007F900A3E0FF7C007DB812041CEF7805C333CE5B
:1008090033CED8F94B900202F090FEEDE030E007CC
:10081900900202E04401F090FEEDE030E46F9002B6
:1008290002E04402F08066900082E0900002F090BD
:100839000083E0900003F0A37402F030A80790024F
:1008490002E04401F08046900082E0900002F090BE
:100859000083E0900003F0A37402F090023BE0FEF5
:10086900A3E0FFEF2470FFEE341DFEE434FFFDE446
:1008790034FFFCE47B4BFAF9F812004678011204C4
:10088900A9900202EFF030A804E04401F0E49000DE
:1008990005F0900202E0900006F07F05803190009B
:1008A90082E0900002F0900083E0900003F0A374CE
:1008B90004F090010DE0900005F090010CE090002B
:1008C90006F0E4A3F090010EE0900008F07F071213
:0208D90011DA32
:0108DB0022FA
:100C1B00900085E024FE604A1460672403600302A1
:100C2B000CC7900082E0900002F0900083E09000EF
:100C3B0003F0A37404F07F06121035900085EFF0DB
:100C4B007F05121035900086EFF07F08121035905B
:100C5B000087EFF07F07121035900088EFF07F07C9
:100C6B008057900082E0900002F0900083E09000AB
:100C7B0003F0A37402F0A374AAF0A374BBF07F0576
:100C8B008037900082E0900002F0900083E09000AB
:100C9B0003F0A37404F07F0B120AAA900005EFF087
:100CAB007F0A120AAA900006EFF0E4A3F07F0C1261
:0D0CBB000AAA900008EFF07F051211DA225E
:10060F00900085E01470030206C914700302072DD1
:10061F0024026003020798900082E0900002F0909D
:10062F000083E0900003F0900084E0900004F090CD
:10063F000085E0900005F0900086E0900006F090B5
:10064F000087E0900007F0900088E0900008F0909D
:10065F000089E0900009F0900007E0FF90FEED3078
:10066F00E006E04401F08004E054FEF0EF90FEED70
:10067F0030E106E04410F08004E054EFF090000702
:10068F00E0FD1313540775F0B8A4FF90FEF9E5F0E1
:10069F00F0A3EFF0EDC413540775F0B8A4FFA3E572
:1006AF00F0F0A3EFF09001027408F0D2C7439A0262
:1006BF00900007E090022E020794900082E09000D5
:1006CF0002F0900083E0900003F0900084E090002F
:1006DF0004F0900085E0900005F0900086E0900017
:1006EF0006F0900087E0900007F0900088E09000FF
:1006FF0008F0900089E0900009F0900007E030E0EA
:10070F00047F018002E4FF1214419001027408F08B
:10071F00D2C7439A02900007E090022F80679000A3
:10072F0082E0900002F0900083E0900003F09000D0
:10073F0084E0900004F0900085E0900005F09000B8
:10074F0086E0900006F0900087E0900007F09000A0
:10075F0088E0900008F0900089E0900009F0900088
:10076F0007E0FF30E004D2A88002C2A8EFC313FF56
:10077F001213E29001027408F0D2C7439A0290005C
:0A078F0007E0900230F012108E22F5
:100D5400900085E024FD6003020DDE900082E090A7
:100D64000002F0900083E0900003F0900084E09093
:100D74000004F0900085E0900005F0900086E0907B
:100D84000006F0900087E0900007F090008AE09061
:100D9400010CF0900089E090010DF090008CE0903F
:100DA400010EF07D06120FCBAD07AC06EC900008E7
:100DB400F0A3EFF09001027408F0D2C7439A0290B6
:100DC400010CE0900231F090010DE0900232F090BD
:0A0DD400010EE0900233F012108EC1
:010DDE0022F2
:060FCB007B017A007902AF
:050FD100900203EDF0A9
:100FD60074FFA3F0A3F0120403FF900204E0F0A351
:100FE600E06FF0E4FD900204E0FEA3E0FF30E019BC
:100FF600EEC313FEEF13FFEE64A0FEEF6401FF9055
:101006000204EEF0A3EFF0800B900204E0C313F0AD
:10101600A3E013F00DEDB408CC740129F9E43AFA13
:0E102600900203E014F070AEA3E0FEA3E0FF22
:011034002299
:0211DA00AC0760
:1011DC00AD04120FCBAB07AA06EAFF74022CF58202
:1011EC00E43400F583EFF0AF0374032CF582E434A0
:1011FC0000F583EFF0EC2402900102F0D2C7439A81
:01120C0002DF
:01120D0022BE
:0E09D6004102340142023500004202370000A7
:03009B00020B6CE9
:100B6C00C0E0C083C082C0D075D000C001C003C03B
:010B7C000771
:100B7D00900234E0FF7006D2C3D2C2D2C190023AC5
:100B8D00E0F96401702AEF64017025900239E0FFED
:100B9D00FB54FE24FF82C192C1EB54FD24FF82C29F
:100BAD0092C2EF54FB24FF82C392C3900234E4F04F
:100BBD00E9700590023404F0900236E004F07006FE
:100BCD00900235E004F0900235E07004A3E0646417
:100BDD00702D900235F0A3F0900238E004F070060D
:100BED00900237E004F0900237E0B40312A3E0B4B2
:0F0BFD00E80D90010F7401F0900237E4F0A3F0BF
:0F0C0C00D007D003D001D0D0D082D083D0E03237
:100CD4000211A0E493A3F8E493A34003F68001F285
:100CE40008DFF48029E493A3F85407240CC8C33321
:100CF400C4540F4420C8834004F456800146F6DFF0
:100D0400E4800B01020408102040809008DCE47E9B
:100D1400019360BCA3FF543F30E509541FFEE493E4
:100D2400A360010ECF54C025E060A840B8E493A3AB
:100D3400FAE493A3F8E493A3C8C582C8CAC583CAD6
:100D4400F0A3C8C582C8CAC583CADFE9DEE780BE8E
:0109E4000012
:10040300BB010689828A83E0225002E722BBFE02F7
:09041300E32289828A83E493222A
:10041C00BC000BBE0029EF8DF084FFADF022E4CCC4
:10042C00F875F008EF2FFFEE33FEEC33FCEE9DEC8D
:10043C00984005FCEE9DFE0FD5F0E9E4CEFD22EDD3
:10044C00F8F5F0EE8420D21CFEADF075F008EF2F1D
:10045C00FFED33FD4007985006D5F0F222C398FD0E
:05046C000FD5F0EA22AB
:10047100BB0110E58229F582E5833AF583E0F5F0C9
:10048100A3E0225009E92582F886F008E622BBFEA6
:100491000AE92582F8E2F5F008E222E5832AF583EC
:0804A100E993F5F0A3E99322B1
:10004600C2D5E830E70FB2D5E4C39BFBE49AFAE4E5
:1000560099F9E498F8EC30E717B2D512007C12054E
:1000660037E4C39BFBE49AFAE499F9E498F8800331
:1000760012053730D50DE4C39FFFE49EFEE49DFDD7
:04008600E49CFC22D8
:1004A900E8600FEFC333FFEE33FEED33FDEC33FCB1
:0304B900D8F12255
:10009E00E5082409F582E43402F583E00508229090
:1000AE000206300703900209E475F0011205C90239
:1000BE0004032000E97F2ED2008018EF540F249005
:1000CE00D43440D4FF30040BEF24BFB41A005003D5
:1000DE002461FFE50960021509050CE50C700205A7
:1000EE000B30070E900206E475F0011205C9EF02FF
:1000FE0004E902142C7403D2078003E4C207F50846
:10010E009002061205E0E4F509F50BF50CE5096021
:10011E00077F201200E180F5750AFFC201C200C2FE
:10012E0002C203C205C206C2081200ADFF700D3036
:10013E0007057F001200F2AF0CAE0B22B4255FC292
:10014E00D5C2041200ADFF24D0B40A00501A75F0C7
:10015E000A780930D50508B6FF0106C6A426F62092
:10016E00D5047002D20380D924CFB41A00EF500404
:10017E00C2E5D2040202F3D20180C6D20080C0D200
:10018E000280BCD2D580BAD20580B47F201200E1A5
:10019E002002077401B5090040F112009EFF120003
:1001AE00E102011BD208D206809512009EFB1200BE
:1001BE009EFA12009EF94A4B700679C47A037BFFB1
:1001CE0020022EE509602A7E008E827583001204BD
:1001DE00BC60060EEE650A70F0C2D5EBC0E0EAC058
:1001EE00E0E9C0E0EE12033AD0E0F9D0E0FAD0E058
:1001FE00FB120403FF60AAEBC0E0EAC0E0E9C0E036
:10020E001200E1D0E02401F9D0E03400FAD0E0FB96
:10021E00E50A0460DCD50AD980877BFF7A0379363C
:10022E00D202809C791080027908C206C20880082A
:10023E00D2D5790A8004790AC2D5E50A047002F58E
:10024E000AE4FAFDFEFF12009EFC7B082001131249
:10025E00009EFD7B1030000A12009EFE12009EFFD3
:10026E007B20EC3382D592D55013C3E43000069F29
:10027E00FFE49EFEE42001039DFDE49CFCE4CBF82C
:10028E00C201EC700CCFCECDCCE824F8F870F38020
:10029E0017C3EF33FFEE33FEED33FDEC33FCEB33E0
:1002AE00FB994002FB0FD8E9EB300105F8D0E0C412
:1002BE0048B201C0E00AEC4D4E4F78207B0070C270
:1002CE00EAB50A0040BCC0E012033CD0F0D0E020FA
:1002DE000104C4C0E0C4B201C0F01200CAD0F0D50F
:1002EE00F0EB02011B1205E901B8530232580189E5
:1002FE004C01854202364F023E44023E49019E4366
:08030E000244550228460228B2
:100316004502284703E450018D2D01912E01B42B8F
:1003260001952301B22003CD2A014D48000001ACFE
:100336003F3F3F00790AA2D5200314300509B910C2
:10034600020404B9080104A2D520060250010420C3
:1003560002689202B509005034C0E07F20300319CC
:100366007F30A20272067205500F120393C202C2B8
:1003760006C205C2087F30800F300503E9C0E012CF
:1003860000E1300503D0E0F9D0E0B509CC3005171F
:100396007F30B9100C1200E17F583004077F788057
:1003A60003B908031200E13002057F2D0200E17F48
:1003B600202008F87F2B2006F322920280CF286E99
:1003C600756C6C2900D20112009E3001F8C20178CA
:1003D6000930D50108F602014D2D50434958120047
:1003E6009E2403B405004001E49003DF931200D27B
:0D03F600743A1200D2D203750904020232DB
:1004BC00BB010CE58229F582E5833AF583E02250F5
:1004CC0006E92582F8E622BBFE06E92582F8E2223F
:0D04DC00E58229F582E5833AF583E4932259
:1004E900BB010689828A83F0225002F722BBFE01F2
:0204F900F322EC
:1004FB0075F008758200EF2FFFEE33FECD33CDCCB8
:10050B0033CCC58233C5829BED9AEC99E58298403A
:10051B000CF582EE9BFEED9AFDEC99FC0FD5F0D617
:10052B00E4CEFBE4CDFAE4CCF9A88222B800C1B941
:10053B000059BA002DEC8BF084CFCECDFCE5F0CB7F
:10054B00F97818EF2FFFEE33FEED33FDEC33FCEBB8
:10055B0033FB10D703994004EB99FB0FD8E5E4F973
:10056B00FA227818EF2FFFEE33FEED33FDEC33FC60
:10057B00C933C910D7059BE99A4007EC9BFCE99A54
:10058B00F90FD8E0E4C9FAE4CCFB2275F010EF2F99
:10059B00FFEE33FEED33FDCC33CCC833C810D70799
:1005AB009BEC9AE899400AED9BFDEC9AFCE899F8D4
:0E05BB000FD5F0DAE4CDFBE4CCFAE4C8F92267
:1005C900F8E0FBA3A3E0F925F0F0E58215827002BB
:0705D9001583E0FA38F0225F
:0905E000EBF0A3EAF0A3E9F0221C
:1005E900D083D082F8E4937012740193700DA3A3A1
:1005F90093F8740193F5828883E4737402936860B5
:06060900EFA3A3A380DFB4
:00000001FF
