:0300000002101ECD
:0C101E00787FE4F6D8FD75812102106592
:10163500D3EF9400EE9400401600000075080B757A
:0F16450009BED509FDD508FAEF1F70E41E80E13C
:011654002273
:1016AE0043BC807F0A7E0012163553DEFC43DE0CEF
:0A16BE0053BCDF53A8DF43DE2022F7
:1015F300E4FDFC53BCF0EF444042BCE5BC30E5FBEA
:1016030053BCDF53BCBFAFBDEFADBEFCEDAE04FFBB
:0116130022B4
:1016140075940275931C7592027591F0759602E4A7
:10162400F595F5B2F5B175B480F5B375CA04F5C98D
:011634002293
:10001E003D3D3D3D3D3D3D3D3D3D20636F64652095
:10002E007374617274203D3D3D3D3D3D3D3D3D3D12
:04003E00200D0A0087
:10149F0043BA801216141216C81216AE1216F11293
:1014AF0016931216DE12000612172A1217041217BD
:1014BF003E121427D2AF1215887BFF7A00791E12C5
:0714CF0001111212BA80FBAB
:1014270043BA8090FEB6E0F090FEEDE4F090FEEA5D
:101437007470F0A3F090FEF27404F0A37451F0906E
:10144700FEF0E4F0A37431F090FEB5E04450F09064
:0D145700FEFD7480F090FEE0E04401F02204
:05000600D288D2A822FF
:1016DE00438E805389F0758ACD758CD4C28DD28C91
:0316EE00D2A9225C
:0A172A00538EBF53890F438910222C
:1017040043D12075D39175D2FF43D18043AF40229A
:1016F100759A50438E0475D7E875D6FF438E104313
:03170100AF012213
:1016C80075AC1043AC4043D10275D5E875D4FF43DF
:0616D800D10843AF082217
:0D000E00E4F5C7F5C5F5C675C380F5C4223D
:1016750075C78075F50C75C5038FC4EEF5C375C6C2
:0E1685005A75C6A57F0A7E0012163502000EA9
:1015AF0075C78075F50C75C5028FC4EEF5C3AF0511
:1015BF008FC275C65A75C6A57F0A7E0012163502F0
:0215CF00000E0C
:1016550075C78075F50C75C5018FC4EEF5C375C6E4
:101665005A75C6A57F0A7E00121635AFC202000E56
:10156100546865206164635F76616C20697320252E
:1015710064200D0A005468652074656D70206973DC
:07158100202564200D0A0083
:100CF40060F20110011A0123012C0135013E014764
:100D04000151015A0164016E01770181018B019443
:100D1400019E01A801B201BC01C601CF01D901E3C2
:100D240001ED01F60200020A0213021D0226022F3F
:100D340002380242024B0254025C0265026E0276E1
:100D4400027F0287028F0297029F02A702AF02B6B8
:100D540002BE02C502CC02D302DA02E102E702EECD
:100D640002F402FB03010307030D03120318031D1E
:100D740003230328032D03320337033C03410345B4
:100D8400034A034E03520356035A035E0362036687
:100D9400036A036D037103740378037B037E038189
:100DA40003840387038A038D038F039203950397B8
:100DB4000399039C039E03A003A303A503A703A90C
:100DC40003AB03AD03AF03B103B203B403B603B87B
:100DD40003B903BB03BC03BE03BF03C103C203C403
:060DE40003C503C603C7AE
:0E11360090020AEBF0A3EAF0A3E9F0A3EDF0BB
:10114400E4900211F0A3F0900210F090020DE0146C
:10115400FF900210E0FEC39F505A90020AE0FBA3E6
:10116400E0FAA3E0F975F002EEA4F58285F08312AB
:101174000585FF90020EE0FCA3E0FDC39FEC95F013
:10118400402AA3E02401FFE433FEEF25E0FFEE3321
:10119400FE8F828E83120585FFC3ED9FEC95F05080
:1011A4000B900210E0FFA3E4F0A3EFF0900210E034
:0C11B40004F08097900211E0FEA3E0FF21
:0111C000220C
:0510AA00900204EFF0CC
:1010AF00E4A3F0900204E0FF1215F3900207E02F83
:1010BF00F0900206E03EF0900205E004F0E0C394E9
:1010CF000A40E0900206E0FEA3E0FF7C007D0A12DA
:1010DF00051A900206EEF0A3EFF07BFF7A15796107
:1010EF0090020DEEF0A3EFF01201117B017A01795E
:1010FF0010900206E0FFA3E090020ECFF0A3EFF0F6
:10110F007D79121136900208EEF0A3EFF07BFF7A93
:10111F0015797690020DEEF0A3EFF0120111900207
:06112F0008E0FEA3E0FF52
:011135002297
:1012450090010FE06401706C7F051210AA900109EE
:10125500EFF07F061210AA90010AEFF07F07121037
:10126500AA90010BEFF0A3E0FF900109E0C39F9066
:101275000244E0400554FEF080034401F090010D66
:10128500E0FF90010AE0C39F900244E0400554FD51
:10129500F080034402F090010EE0FF90010BE0C3E3
:1012A5009F900244E0400554FBF080034404F0E4C1
:0512B50090010FF02282
:06173E00E4900245F022D8
:03000300021509DA
:10150900C0E0C083C082C0D075D000C0069002463A
:10151900E0FEA3E0F58BEEF58D9002457401F0D263
:0E1529008ED2ABD006D0D0D082D083D0E032AC
:03001B0002153794
:10153700C0E0C083C082C0D0900245E0B4010CE493
:10154700F0C2C4758BF7758DFF8006D2C4C28EC2F8
:0A155700ABD0D0D082D083D0E032B8
:10008E00EF75F04BA42490FEE5F034E2900246F0BA
:04009E00A3CEF022DB
:0A173400EFB40103D2A122C2A122EA
:050F7100900204EFF006
:100F7600E4A3F0A3F0A3F0900204E0FF1215F390AF
:100F86000206E02FF0900205E03EF0900207E00432
:100F9600F0E0C3940A40E0900205E0FEA3E0FF7C87
:100FA600007D0A12051A900205EEF0A3EFF0C39435
:100FB60050EE9405500A9002057405F0A37450F0A3
:100FC600900206E024B0FF900205E034FAFE7C00B1
:100FD6007D2412051AAB05AA04C3EB9412EA940009
:100FE60040067A007B018003E4FAFB900206E024C7
:100FF600B0FF900205E034FAFE7C007D2412051A4B
:10100600EF2BFBEE3AFAD3EB941EEA940040047AF7
:07101600007B1EAE02AF03D8
:01101D0022B0
:040DEA0041010800BB
:10169300E4900000F0A3F0900082F0900102F0F0DB
:0B16A300A3F0A3F0A3F0A3F0C2C72245
:030043000211C1E6
:1011C100C0E0C083C082C0D075D000C007E59A30AE
:1011D100E12F539AFD900000E4F0900102E0601AC3
:1011E100A3E0FF04F074022FF582E43400F583E0FC
:1011F100F59B900102E014F08007900103E4F0C236
:10120100C7E59A30E033539AFE900001E0702190D7
:101211000106E0D394804002E4F0900106E02482CC
:10122100F582E43400F583E59BF0900106E004F0DB
:10123100900104E4F0A37432F0D007D0D0D082D072
:0412410083D0E03244
:03000B000213E8F5
:1013E800C0E0C083C082C0D0900104E07002A3E0D6
:1013F8006024900105E024FFF0900104E034FFF040
:10140800E07002A3E0700F900106E0D3940040065C
:0F1418009000017401F0D0D0D082D083D0E032A8
:03008B000215D18A
:1015D100C0E0C083C082E5AC30E10853ACFD9001AE
:1015E10008E4F0E5AC30E00353ACFED082D083D008
:0215F100E032E6
:0B171400900108E070FA04F08FAD2295
:1014D600900248EBF0A3EAF0A3E9F0900248E0FBA3
:1014E600A3E0FAA3E0F91205016017900248A3E40D
:1014F60075F00112056FA9F0FA120501FF12171413
:0315060080D92267
:0B171F008FAD900108E070FA04F0228A
:101588007F107E00121655EFB4FF19900239746F60
:10159800F0A37401F0A37465F0A37450F0A3F0A352
:0715A800F0121392020DFD89
:10139200E4FFFE121675900239E0FDE4FFFE12151D
:1013A200AF90023AE0FD7F017E001215AF90023B42
:1013B200E0FD7F027E001215AF90023CE0FD7F034C
:1013C2007E001215AF90023DE0FD7F047E001215F3
:1013D200AF90023EE0FD7F057E001215AF7D587F83
:0613E200107E000215AFB1
:100DFD00E4FFFE121655900239EFF0E0FD13135487
:100E0D000775F0B8A4FF90FEF9E5F0F0A3EFF0ED53
:100E1D00C413540775F0B8A4FFA3E5F0F0A3EFF0E9
:100E2D00900239E0FF90FEED30E006E04401F080E5
:100E3D0004E054FEF0EF90FEED30E106E04410F0DA
:100E4D008004E054EFF07F017E0012165590023AB7
:100E5D00EFF030E0047F018002E4FF1217347F02CF
:100E6D007E0012165590023BEFF030E004D2A880C0
:100E7D0002C2A890023BE0C313FF12008E7F037ED7
:100E8D000012165590023CEFF07F047E00121655AD
:100E9D0090023DEFF07F057E0012165590023EEF59
:100EAD00F090023CE090010CF090023DE090010DBD
:050EBD00F0A3EFF0229C
:1012BA00900001E064017065F07B017A0079829008
:1012CA000106E024FEFD12132EAD07AC06900106BE
:1012DA00E0FB2480F582E43400F583E0FE74812B80
:1012EA00F582E43400F583E0FBEBFFE4900106F0BD
:1012FA00EDB50729ECB50625900082E0B4351EA3AA
:10130A00E024FC600F24FE600E24F6600D240D70AC
:0D131A000C0208C3020BDF020A6112072358
:0113270022A3
:1008C3009002357403F0900086A3E025E090023493
:1008D300F0900084E0FEA3E0FDEDFF900237EEF020
:1008E300A3EFF09000027435F0A37403F090023488
:1008F300E0900004F0900202EEF0A3EFF0900234D7
:10090300E0C313FF900238E02FFF900237E034007A
:10091300FE900202E0FCA3E0FDC39FEC9E400302B5
:100923000A57E4900233F0900232F0EC6003020ABB
:1009330016ED1470030209B81470030209C314708E
:10094300030209FC147003020A0924046003020A67
:1009530016E4900232F0A3E0FB90FEF9E0FEA3E080
:10096300FF7C007DB812051AEF7802C333CE33CE75
:10097300D8F94B900233F0E0FB90FEFBE0FEA3E0DE
:10098300FF7C007DB812051AEF7805C333CE33CE52
:10099300D8F94B900233F090FEEDE030E00790027F
:1009A30033E04401F090FEEDE030E467900233E081
:1009B3004402F0805EE4900232F030A856A3803304
:1009C300E4900232F0900246E0FEA3E0FFEF2470D1
:1009D300FFEE341DFEE434FFFDE434FFFCE47B4B07
:1009E300FAF9F812004678011205BD900233EFF0D0
:1009F30030A820E04401F0801A90010DE09002320B
:100A0300F090010C8008E4900232F090010EE09027
:100A13000233F0900232E0FF900235E0FE04F074FE
:100A2300022EF582E43400F583EFF0900233E0FF09
:100A3300900235E0FE04F074022EF582E43400F5F2
:100A430083EFF0900203E004F07006900202E004EA
:0E0A5300F0020900900234E02403FF02146454
:100BDF009002357403F0900086A3E025E090023474
:100BEF00F0900084E0FEA3E0FDEDFF900237EEF001
:100BFF00A3EFF09000027435F0A37404F090023468
:100C0F00E0900004F0900202EEF0A3EFF0900234B7
:100C1F00E0C313FF900238E02FFF900237E034005B
:100C2F00FE900202E0FCA3E0FDC39FEC9E40030296
:100C3F000CEAE4900233F0900232F0EC705CED14A9
:100C4F00601B1460291460321460402404704B7FC1
:100C5F00061210AA900232EFF07F05800C7F081267
:100C6F0010AA900232EFF07F071210AA802790028D
:100C7F003274AAF0A374BBF080207F0B120F719017
:100C8F000232EFF07F0A120F71800AE4900232F005
:100C9F007F0C120F71900233EFF0900232E0FF9051
:100CAF000235E0FE04F074022EF582E43400F58381
:100CBF00EFF0900233E0FF900235E0FE04F0740293
:100CCF002EF582E43400F583EFF0900203E004F098
:100CDF007006900202E004F0020C1C900234E02433
:050CEF0003FF02146484
:100A6100900085E0147003020AFA147003020B323D
:100A7100147003020B6E147003020BAD24046003A7
:100A8100020BDE78027C007D017B017A0079827E97
:100A9100007F081204DB900007E0FF90FEED30E0DC
:100AA10006E04401F08004E054FEF0EF90FEED30EA
:100AB100E106E04410F08004E054EFF0900007E01C
:100AC100FD1313540775F0B8A4FF90FEF9E5F0F09B
:100AD100A3EFF0EDC413540775F0B8A4FFA3E5F03C
:100AE100F0A3EFF09001027408F0D2C7439A02908C
:100AF1000007E0900239020BDA78027C007D017B6D
:100B0100017A0079827E007F081204DB900007E001
:100B110030E0047F018002E4FF1217349001027477
:100B210008F0D2C7439A02900007E090023A020B04
:100B3100DA78027C007D017B017A0079827E007F78
:100B4100081204DB900007E0FF30E004D2A8800225
:100B5100C2A8EFC313FF12008E9001027408F0D2F5
:100B6100C7439A02900007E090023B806C78027CB8
:100B7100007D017B017A0079827E007F081204DB0F
:100B8100900007E090010CF0900006E090010DF05C
:100B91009001027408F0D2C7439A0290010CE090D0
:100BA100023CF090010DE090023D802D78027C0026
:100BB1007D017B017A0079827E007F081204DB903F
:100BC1000007E090010EF09001027408F0D2C743D3
:0E0BD1009A0290010EE090023EF01213922262
:100723009002367407F0900088E0900234F0900055
:1007330084E0FEA3E0FDEDFF900237EEF0A3EFF0BF
:1007430078027C007D017B017A0079827E007F063E
:100753001204DB900237E0FFA3E0900202CFF0A384
:10076300EFF0900234E0C313FF900238E02FFF90C4
:100773000237E03400FE900202E0FCA3E0FDC39FD9
:10078300EC9E40030208A4900236E02482F582E442
:100793003400F583E0900232F0900236E02483F5D2
:1007A30082E43400F583E0900233F0EC6003020846
:1007B3008CED146071147003020843147003020873
:1007C300621470030208802404600302088C900200
:1007D30033E0FF90FEED30E006E04401F08004E0FA
:1007E30054FEF0EF90FEED30E106E04410F080049B
:1007F300E054EFF0900233E0FD1313540775F0B8A3
:10080300A4FF90FEF9E5F0F0A3EFF0EDC413540755
:1008130075F0B8A4FFA3E5F0F0A3EFF0900233E086
:10082300900239F08063900233E030E0047F01806E
:1008330002E4FF121734900233E090023AF0804949
:10084300900233E0FF30E004D2A88002C2A8EFC3D5
:1008530013FF12008E900233E090023BF0802A9047
:100863000233E090010CF0900232E0FF90010DF0B2
:1008730090010CE090023CF0A3EFF0800C90023367
:10088300E090010EF090023EF0900236E02402F078
:10089300900203E004F07006900202E004F0020705
:1008A300657D06121328AD07AC06EC900008F0A393
:1008B300EFF09001027408F0D2C7439A0202139238
:061328007B017A0079024E
:05132E00900204EDF047
:1013330074FFA3F0A3F0120501FF900205E0F0A3F0
:10134300E06FF0E4FD900205E0FEA3E0FF30E0195A
:10135300EEC313FEEF13FFEE64A0FEEF6401FF90F4
:101363000205EEF0A3EFF0800B900205E0C313F04B
:10137300A3E013F00DEDB408CC740129F9E43AFAB3
:0E138300900204E014F070AEA3E0FEA3E0FFC1
:011391002239
:02146400AC07D3
:10146600AD04121328AB07AA06EAFF74022CF58214
:10147600E43400F583EFF0AF0374032CF582E43413
:1014860000F583EFF0EC2402900102F0D2C77F054D
:081496007E00121635439A0294
:01149E00222B
:0E0DEE0041023F01420240000042024200006A
:0300A300020EC288
:100EC200C0E0C083C082C0D075D000C001C003C0E2
:010ED2000718
:100ED30090023FE0FF7006D2C3D2C2D2C190024556
:100EE300E0F96401702AEF64017025900244E0FF89
:100EF300FB54FE24FF82C192C1EB54FD24FF82C246
:100F030092C2EF54FB24FF82C392C390023FE4F0EA
:100F1300E9700590023F04F0900241E004F070068E
:100F2300900240E004F0900240E07004A3E06464A7
:100F3300702D900240F0A3F0900243E004F070069D
:100F4300900242E004F0900242E0B40312A3E0B442
:0F0F5300E80D90010F7401F0900242E4F0A3F05A
:0F0F6200D007D003D001D0D0D082D083D0E032DE
:10102A0002149FE493A3F8E493A34003F68001F229
:10103A0008DFF48029E493A3F85407240CC8C333C7
:10104A00C4540F4420C8834004F456800146F6DF96
:10105A00E4800B0102040810204080900CF4E47E26
:10106A00019360BCA3FF543F30E509541FFEE4938B
:10107A00A360010ECF54C025E060A840B8E493A352
:10108A00FAE493A3F8E493A3C8C582C8CAC583CA7D
:10109A00F0A3C8C582C8CAC583CADFE9DEE780BE35
:010DFC0000F6
:10040B00E709F608DFFA8046E709F208DFFA803ED3
:10041B0088828C83E709F0A3DFFA8032E309F608C0
:10042B00DFFA8078E309F208DFFA807088828C8328
:10043B00E309F0A3DFFA806489828A83E0A3F608DC
:10044B00DFFA805889828A83E0A3F208DFFA804CB6
:10045B0080D280FA80C680D4806980F2803380108D
:10046B0080A680EA809A80A880DA80E280CA8033F6
:10047B0089828A83ECFAE493A3C8C582C8CCC5836E
:10048B00CCF0A3C8C582C8CCC583CCDFE9DEE7803E
:10049B000D89828A83E493A3F608DFF9ECFAA9F0BD
:1004AB00EDFB2289828A83ECFAE0A3C8C582C8CC13
:1004BB00C583CCF0A3C8C582C8CCC583CCDFEADE2C
:1004CB00E880DB89828A83E493A3F208DFF980CC8E
:1004DB0088F0EF60010E4E60C388F0ED2402B40487
:1004EB000050B9F582EB2402B4040050AF2323452E
:0604FB00822390045B73F4
:10050100BB010689828A83E0225002E722BBFE02F8
:09051100E32289828A83E493222B
:10051A00BC000BBE0029EF8DF084FFADF022E4CCC5
:10052A00F875F008EF2FFFEE33FEEC33FCEE9DEC8E
:10053A00984005FCEE9DFE0FD5F0E9E4CEFD22EDD4
:10054A00F8F5F0EE8420D21CFEADF075F008EF2F1E
:10055A00FFED33FD4007985006D5F0F222C398FD0F
:05056A000FD5F0EA22AC
:10056F00A3F8E0C5F025F0F0E5821582700215833F
:06057F00E0C838F0E8229C
:10058500BB0110E58229F582E5833AF583E0F5F0B4
:10059500A3E0225009E92582F886F008E622BBFE91
:1005A5000AE92582F8E2F5F008E222E5832AF583D7
:0805B500E993F5F0A3E993229C
:10004600C2D5E830E70FB2D5E4C39BFBE49AFAE4E5
:1000560099F9E498F8EC30E717B2D512007C12064D
:100066004BE4C39BFBE49AFAE499F9E498F880031D
:1000760012064B30D50DE4C39FFFE49EFEE49DFDC2
:04008600E49CFC22D8
:1005BD00E8600FEFC333FFEE33FEED33FDEC33FC9C
:0305CD00D8F12240
:1000A600E508240DF582E43402F583E00508229084
:1000B600020A30070390020DE475F0011206DD0214
:1000C60005012000E97F2ED2008018EF540F2490FE
:1000D600D43440D4FF30040BEF24BFB41A005003CD
:1000E6002461FFE50960021509050CE50C7002059F
:1000F6000B30070E90020AE475F0011206DDEF02DE
:1001060005FD02171F7403D2078003E4C207F50832
:1001160090020A1206F4E4F509F50BF50CE5096000
:10012600077F201200E980F5750AFFC201C200C2EE
:1001360002C203C205C206C2081200B5FF700D3026
:1001460007057F001200FAAF0CAE0B22B4255FC282
:10015600D5C2041200B5FF24D0B40A00501A75F0B7
:100166000A780930D50508B6FF0106C6A426F6208A
:10017600D5047002D20380D924CFB41A00EF5004FC
:10018600C2E5D2040202FBD20180C6D20080C0D2F0
:100196000280BCD2D580BAD20580B47F201200E995
:1001A6002002077401B5090040F11200A6FF1200F3
:1001B600E9020123D208D20680951200A6FB12009E
:1001C600A6FA1200A6F94A4B700679CC7A037BFF91
:1001D60020022EE509602A7E008E827583001205B4
:1001E600D060060EEE650A70F0C2D5EBC0E0EAC03C
:1001F600E0E9C0E0EE120342D0E0F9D0E0FAD0E048
:10020600FB120501FF60AAEBC0E0EAC0E0E9C0E02E
:100216001200E9D0E02401F9D0E03400FAD0E0FB86
:10022600E50A0460DCD50AD980877BFF7A03793E2C
:10023600D202809C791080027908C206C208800822
:10024600D2D5790A8004790AC2D5E50A047002F586
:100256000AE4FAFDFEFF1200A6FC7B082001131239
:1002660000A6FD7B1030000A1200A6FE1200A6FFB3
:100276007B20EC3382D592D55013C3E43000069F21
:10028600FFE49EFEE42001039DFDE49CFCE4CBF824
:10029600C201EC700CCFCECDCCE824F8F870F38018
:1002A60017C3EF33FFEE33FEED33FDEC33FCEB33D8
:1002B600FB994002FB0FD8E9EB300105F8D0E0C40A
:1002C60048B201C0E00AEC4D4E4F78207B0070C268
:1002D600EAB50A0040BCC0E0120344D0F0D0E020EA
:1002E6000104C4C0E0C4B201C0F01200D2D0F0D5FF
:1002F600F0EB0201231206FD01C053023A580191A8
:100306004C018D42023E4F02464402464901A64335
:08031600024C55023046023092
:10031E004502304703EC5001952D01992E01BC2B5F
:10032E00019D2301BA2003D52A015548000001B4CE
:10033E003F3F3F00790AA2D5200314300509B910BA
:10034E00020404B9080104A2D520060250010420BB
:10035E0002689202B509005034C0E07F20300319C4
:10036E007F30A20272067205500F12039BC202C2A8
:10037E0006C205C2087F30800F300503E9C0E012C7
:10038E0000E9300503D0E0F9D0E0B509CC3005170F
:10039E007F30B9100C1200E97F583004077F788047
:1003AE0003B908031200E93002057F2D0200E97F30
:1003BE00202008F87F2B2006F322920280CF286E91
:1003CE00756C6C2900D2011200A63001F8C20178BA
:1003DE000930D50108F60201552D50434958120037
:1003EE00A62403B405004001E49003E7931200DA5B
:0D03FE00743A1200DAD20375090402023AC3
:1005D000BB010CE58229F582E5833AF583E02250E0
:1005E00006E92582F8E622BBFE06E92582F8E2222A
:0D05F000E58229F582E5833AF583E4932244
:1005FD00BB010689828A83F0225002F722BBFE01DD
:02060D00F322D6
:10060F0075F008758200EF2FFFEE33FECD33CDCCA2
:10061F0033CCC58233C5829BED9AEC99E582984025
:10062F000CF582EE9BFEED9AFDEC99FC0FD5F0D602
:10063F00E4CEFBE4CDFAE4CCF9A88222B800C1B92C
:10064F000059BA002DEC8BF084CFCECDFCE5F0CB6A
:10065F00F97818EF2FFFEE33FEED33FDEC33FCEBA3
:10066F0033FB10D703994004EB99FB0FD8E5E4F95E
:10067F00FA227818EF2FFFEE33FEED33FDEC33FC4B
:10068F00C933C910D7059BE99A4007EC9BFCE99A3F
:10069F00F90FD8E0E4C9FAE4CCFB2275F010EF2F84
:1006AF00FFEE33FEED33FDCC33CCC833C810D70784
:1006BF009BEC9AE899400AED9BFDEC9AFCE899F8BF
:0E06CF000FD5F0DAE4CDFBE4CCFAE4C8F92252
:1006DD00F8E0FBA3A3E0F925F0F0E58215827002A6
:0706ED001583E0FA38F0224A
:0906F400EBF0A3EAF0A3E9F02207
:1006FD00D083D082F8E4937012740193700DA3A38C
:10070D0093F8740193F5828883E47374029368609F
:06071D00EFA3A3A380DF9F
:00000001FF
