:03000000020FE705
:0C0FE700787FE4F6D8FD75812102102E01
:1015FD00D3EF9400EE9400401600000075080B75B3
:0F160D0009BED509FDD508FAEF1F70E41E80E174
:01161C0022AB
:10008E00546865206164635F76616C206973202516
:05009E0064200D0A00C2
:1016990043BC807F0A7E001215FD53DEFC43DE0C3D
:0A16A90053BCDF53A8DF43DE20220C
:10138600E4900216F0A3F053BCF0EF444042BCE5F3
:10139600BC30E5FB53BCDF53BCBFAFBDEFFFADBEFA
:1013A600ED900216CFF0A3EFF07BFF7A00798E90D6
:1013B6000216E0FFA3E090021BCFF0A3EFF01201AC
:0913C60011900216E0FEA3E0FF05
:0113CF0022FB
:1015690075940275931C7592027591F075960EE447
:10157900F595F5B2F5B190FE13E04440F075B49ECF
:09158900E4F5B375CA04F5C922AA
:10001E003D3D3D3D3D3D3D3D3D3D20636F64652095
:10002E007374617274203D3D3D3D3D3D3D3D3D3D12
:04003E00200D0A0087
:1014570043BA801215691216B312169990011174C6
:1014670001F01216F012165C1216DD120046120079
:101477000312171E121703121414D2AF1215927B00
:10148700FF7A00791E1201111211FA12118280F8E7
:1014140043BA8090FEB6E0F090FEEDE4F090FEEA70
:101424007470F0A3F090FEED7411F090FEF2740469
:10143400F0A37451F090FEF0E4F0A37431F090FE48
:10144400B5E04450F090FEFD7480F090FEE0E0447E
:0314540001F02282
:04000300438F1022F5
:1016DD00438E805389F0758ACD758CD4C28DD28C92
:0316ED00D2A9225D
:0A171E00538EBF53890F4389102238
:1017030053D1DFE4F5D375D2DC43D18043AF40221C
:1016F000759A50438E0475D7E875D6FF438E104314
:03170000AF012214
:1016B30075AC1043AC4043D10275D5E875D4FF43F4
:0616C300D10843AF08222C
:0D000E00E4F5C7F5C5F5C675C380F5C4223D
:10167B0075C78075F50C75C5038FC4EEF5C375C6BC
:0E168B005A75C6A57F0A7E001215FD02000EDC
:1015B90075C78075F50C75C5028FC4EEF5C3AF0507
:1015C9008FC275C65A75C6A57F0A7E001215FD021F
:0215D900000E02
:10161D0075C78075F50C75C5018FC4EEF5C375C61C
:10162D005A75C6A57F0A7E001215FDAFC202000EC7
:100056005468652061766572616765206164635FD7
:1000660076616C206973202564200D0A005468654A
:0F0076002074656D70206973202564200D0A00C9
:100CB20060FC011203D503FA04200446046D049576
:100CC20004BE04E70510053A0565059005BB05E776
:100CD2000613063F066C069906C606F30720074D63
:100CE200077A07A707D40800082D0859088508B114
:100CF20008DC09070931095B098409AD09D609FD38
:100D02000A240A4B0A710A960ABB0ADE0B020B245A
:100D12000B460B670B870BA70BC60BE40C020C1ED2
:100D22000C3A0C560C700C8A0CA40CBC0CD40CECB7
:100D32000D020D190D2E0D430D570D6B0D7E0D90ED
:100D42000DA20DB40DC50DD50DE50DF50E040E1257
:100D52000E200E2E0E3B0E480E550E610E6D0E78B5
:100D62000E830E8D0E970EA10EAB0EB40EBD0EC6E7
:100D72000ECF0ED70EDF0EE70EEF0EF60EFD0F04AE
:100D82000F0B0F110F170F1D0F230F290F2F0F35E9
:100D92000F3A0F3F0F440F490F4E0F530F580F5C7E
:100DA2000F600F650F690F6D0F710F740F780F7C55
:0E107300900216EBF0A3EAF0A3E9F0A3EDF073
:10108100E490021DF0A3F090021CF0900219E0140C
:10109100FF90021CE0FEC39F505A900216E0FBA392
:1010A100E0FAA3E0F975F002EEA4F58285F083126F
:1010B100056FFF90021AE0FCA3E0FDC39FEC95F0E1
:1010C100402AA3E02401FFE433FEEF25E0FFEE33E5
:1010D100FE8F828E8312056FFFC3ED9FEC95F0505A
:1010E1000B90021CE0FFA3E4F0A3EFF090021CE0E0
:0C10F10004F0809790021DE0FEA3E0FFD9
:0110FD0022D0
:050F5300900210EFF018
:100F5800E4900212F0A3F0900211F0900210E0FF6A
:100F6800121386900213E02FF0900212E03EF090E8
:100F78000211E004F0E0C3940A40E0900212E0FE9F
:100F8800A3E0FF7C007D0A12051A900212EEF0A37E
:100F9800EFF07BFF7A00795690021BEEF0A3EFF09A
:100FA8001201117B017A017912900212E0FFA3E08D
:100FB80090021ACFF0A3EFF07D7E12107390021406
:100FC800EEF0A3EFF07BFF7A00797390021BEEF04E
:0E0FD800A3EFF0120111900214E0FEA3E0FF5F
:010FE60022E8
:10118200900110E06401706F7F04120F5390010A06
:10119200EFF07F05120F5390010BEFF07F06120F55
:1011A2005390010CEFF0A3E0FF90010AE0C39F40CF
:1011B2000B900111E0B40104D2C18002C2C19001BE
:1011C2000EE0FF90010BE0C39F400B900111E0B4D1
:1011D2000104D2C28002C2C290010FE0FF90010C52
:1011E200E0C39F400B900111E0B40104D2C380021E
:0811F200C2C3E4900110F022D9
:0C004600E490024EF0D2C3D2C2D2C1221C
:0300530002151182
:10151100C0E0C083C082C0D075D000C00690024F29
:10152100E0FEA3E0F58BEEF58D90024E7401F0D252
:0E1531008ED2ABD006D0D0D082D083D0E032A4
:03001B0002153F8C
:10153F00C0E0C083C082C0D090024EE0B4010CE482
:10154F00F0C2C4758BF7758DFF8006D2C4C28EC2F0
:0A155F00ABD0D0D082D083D0E032B0
:1016C900EF75F04BA42490FEE5F034E290024FF060
:0416D900A3CEF0228A
:0A172800EFB40103C2A122D2A122F6
:10163D005468652076616C7565206F6620637572E0
:0F164D0072656E74206973202564200D0A2000D9
:050DC100900210EFF0AC
:100DC600E4900213F0A3F0A3F0900210E0FF1213D8
:100DD60086900214E02FF0900213E03EF090021588
:100DE600E004F0E0C3940A40E0900213E0FEA3E0C2
:100DF600FF7C007D0A12051A900213EEF0A3EFF0B5
:100E0600C39450EE9405500A9002137405F0A3742F
:100E160050F0900214E024B0FB900213E034FAFA8A
:100E26007C007D24AF03FE12051A900211ECF0A39C
:100E3600EDF0C39412EC9400400A900211E4F0A382
:100E460004F08007E4900211F0A3F07C007D24AF4B
:100E560003AE0212051A900212E02FFF900211E073
:100E66003EFEF0A3EFF0D3941EEE940040099002EC
:100E760011E4F0A3741EF07BFF7A16793D900211FF
:100E8600E0FFA3E090021BCFF0A3EFF01201119058
:070E96000211E0FEA3E0FFE2
:010E9D002232
:040DB20041010900F2
:10165C00E4900000F0A3F0900082F0900102F0F012
:0F166C00A3F0A3F0A3F0A3F0C2C7900108F022EF
:030043000210FEAA
:1010FE00C0E0C083C082C0D075D000C007E59A3072
:10110E00E12F539AFD900000E4F0900102E0601A86
:10111E00A3E0FF04F074022FF582E43400F583E0BF
:10112E00F59B900102E014F08007900103E4F0C2F9
:10113E00C7E59A30E033539AFE900001E07021909B
:10114E000106E0D394804002E4F0900106E0248290
:10115E00F582E43400F583E59BF0900106E004F09F
:10116E00900104E4F0A37432F0D007D0D0D082D036
:04117E0083D0E03208
:03000B0002149745
:10149700C0E0C083C082C0D0900104E07002A3E026
:1014A7006024900105E024FFF0900104E034FFF090
:1014B700E07002A3E0700F900106E0D394004006AD
:0F14C7009000017401F0D0D0D082D083D0E032F9
:03008B000215DB80
:1015DB00C0E0C083C082E5AC30E10853ACFD9001A4
:1015EB0009E4F0E5AC30E00353ACFED082D083D0FD
:0215FB00E032DC
:0B1713008FAD900109E070FA04F02295
:101592007F107E0012161DEFB4FF199002477433BC
:1015A200F0A37401F0A37465F0A37450F0A3F0A348
:0715B200F0121330020E9E3F
:10133000E4FFFE12167B900247E0FDE4FFFE12156B
:10134000B9900248E0FD7F017E001215B990024974
:10135000E0FD7F027E001215B990024AE0FD7F0396
:101360007E001215B990024BE0FD7F047E0012153D
:10137000B990024CE0FD7F057E001215B97D587FC3
:06138000107E000215B909
:100E9E00E4FFFE12161D900247EFF0E0FD540F75B1
:100EAE00F0B8A4FF90FEF9E5F0F0A3EFF0EDC45416
:100EBE000F75F0B8A4FFA3E5F0F0A3EFF07F017E6D
:100ECE000012161D900248EFF030E0047F01800200
:100EDE00E4FF1217287F027E0012161D900249EFC2
:100EEE00F030E011438F109001117401F0C2C3C2B3
:100EFE00C2C2C1800E538FEFE4900111F0D2C3D263
:100F0E00C2D2C1900249E0C313FF1216C97F037EFD
:100F1E000012161D90024AEFF07F047E0012161D7D
:100F2E0090024BEFF07F057E0012161D90024CEFE3
:100F3E00F090024AE090010DF090024BE090010E0D
:050F4E00F0A3EFF0220A
:1011FA00900001E064017065F07B017A00798290C9
:10120A000106E024FEFD12126EAD07AC069001063F
:10121A00E0FB2480F582E43400F583E0FE74812B40
:10122A00F582E43400F583E0FBEBFFE4900106F07D
:10123A00EDB50729ECB50625900082E0B4351EA36A
:10124A00E024FC600F24FE600E24F6600D240D706D
:0D125A000C020A2F020B9B0208A112070DC7
:011267002264
:100A2F009002437403F0900086A3E025E090024209
:100A3F00F0900084E0FEA3E0FDEDFF900245EEF0A4
:100A4F00A3EFF09000027435F0A37403F09002420C
:100A5F00E0900004F090020EEEF0A3EFF09002424F
:100A6F00E0C313FF900246E02FFF900245E03400F1
:100A7F00FE90020EE0FCA3E0FDC39FEC9E4003023C
:100A8F000B91E4900241F0900240F0EC6003020BF6
:100A9F0050ED14604C146054147003020B36147034
:100AAF0003020B4324046003020B50E4900240F056
:100ABF00A3E0FB90FEFBE0FEA3E0FF7C007DB812FD
:100ACF00051AEFC454F0FA90FEF9E0FEA3E0FF7CA4
:100ADF00007DB812051AEA4FFFEB4F900241F080EC
:100AEF0060E4900240F020A158A38035E4900240CA
:100AFF00F090024FE0FEA3E0FFEF2470FFEE341DF5
:100B0F00FEE434FFFDE434FFFCE47B4BFAF9F8120A
:100B1F0013D078011205A7900241EFF0E58F30E472
:100B2F0020E04401F0801A90010EE0900240F09016
:100B3F00010D8008E4900240F090010FE090024117
:100B4F00F0900240E0FF900243E0FE04F074022EAA
:100B5F00F582E43400F583EFF0900241E0FF90025C
:100B6F0043E0FE04F074022EF582E43400F583EFC7
:100B7F00F090020FE004F0700690020EE004F00215
:0C0B8F000A6C900242E02403FF0214D61E
:100B9B009002437403F0900086A3E025E09002429C
:100BAB00F0900084E0FEA3E0FDEDFF900245EEF037
:100BBB00A3EFF09000027435F0A37404F09002429E
:100BCB00E0900004F090020EEEF0A3EFF0900242E2
:100BDB00E0C313FF900246E02FFF900245E0340084
:100BEB00FE90020EE0FCA3E0FDC39FEC9E400302CF
:100BFB000CA8E4900241F0900240F0EC705EED1412
:100C0B00601B14602E1460371460422404704D7FF7
:100C1B0004120F53900241EFF07F05800C7F0612F8
:100C2B000F53900241EFF07F07120F53900240EFEA
:100C3B00F0802990024074AAF0A374BBF0801D7F52
:100C4B000B120DC1900240EFF07F0A8007E4900277
:100C5B0040F07F0C120DC1900241EFF0900240E08A
:100C6B00FF900243E0FE04F074022EF582E43400A0
:100C7B00F583EFF0900241E0FF900243E0FE04F0B9
:100C8B0074022EF582E43400F583EFF090020FE04E
:100C9B0004F0700690020EE004F0020BD8900242B2
:070CAB00E02403FF0214D650
:1008A100900085E014606D14700302095414700304
:1008B1000209B01470030209F624046003020A2E2F
:1008C10078027C007D017B017A0079827E007F08BD
:1008D1001204DB900007E0FD540F75F0B8A4FF90FF
:1008E100FEF9E5F0F0A3EFF0EDC4540F75F0B8A4F4
:1008F100FFA3E5F0F0A3EFF09001027408F0D2C776
:100901007F057E001215FD439A02900007E09002D8
:1009110047020A2A78027C007D017B017A007982F4
:100921007E007F081204DB900007E030E0047F01C5
:100931008002E4FF1217289001027408F0D2C77FE9
:10094100057E001215FD439A02900007E0900248CF
:10095100020A2A78027C007D017B017A0079827E7D
:10096100007F081204DB900007E0FF30E011438FA5
:10097100109001117401F0C2C3C2C2C2C1800E53F2
:100981008FEFE4900111F0D2C3D2C2D2C1EFC313F1
:10099100FF1216C99001027408F0D2C77F057E00CC
:1009A1001215FD439A02900007E0900249807A787F
:1009B100027C007D017B017A0079827E007F081232
:1009C10004DB900007E090010DF0900006E090013B
:1009D1000EF09001027408F0D2C77F057E00121557
:1009E100FD439A0290010DE090024AF090010EE061
:1009F10090024B803478027C007D017B017A007982
:100A0100827E007F081204DB900007E090010FF066
:100A11009001027408F0D2C77F057E001215FD43D4
:0E0A21009A0290010FE090024CF01213302266
:10070D009002447407F0900088E0900242F090004F
:10071D0084E0FEA3E0FDEDFF900245EEF0A3EFF0C7
:10072D0078027C007D017B017A0079827E007F0654
:10073D001204DB900245E0FFA3E090020ECFF0A380
:10074D00EFF0900242E0C313FF900246E02FFF90BE
:10075D000245E03400FE90020EE0FCA3E0FDC39FD5
:10076D00EC9E400302087B900244E02482F582E473
:10077D003400F583E0900240F0900244E02483F5CC
:10078D0082E43400F583E0900241F0EC600302084E
:10079D0063ED14604514605C147003020839147025
:1007AD000302085724046003020863900241E0FD30
:1007BD00540F75F0B8A4FF90FEF9E5F0F0A3EFF03B
:1007CD00EDC4540F75F0B8A4FFA3E5F0F0A3EFF05E
:1007DD00900241E0900247F0807C900241E030E0D1
:1007ED00047F018002E4FF121728900241E090027D
:1007FD0048F08062900241E0FF30E011438F10908D
:10080D0001117401F0C2C3C2C2C2C1800E538FEF79
:10081D00E4900111F0D2C3D2C2D2C1EFC313FF12C3
:10082D0016C9900241E0900249F0802A900241E001
:10083D0090010DF0900240E0FF90010EF090010D3F
:10084D00E090024AF0A3EFF0800C900241E090019D
:10085D000FF090024CF0900244E02402F090020F51
:10086D00E004F0700690020EE004F002074F7D06E2
:10087D00121268AD07AC06EC900008F0A3EFF090F3
:10088D0001027408F0D2C77F057E001215FD439A50
:04089D000202133010
:061268007B017A0079020F
:05126E00900210EDF0FC
:1012730074FFA3F0A3F0120501FF900211E0F0A3A5
:10128300E06FF0E4FD900211E0FEA3E0FF30E0190F
:10129300EEC313FEEF13FFEE64A0FEEF6401FF90B5
:1012A3000211EEF0A3EFF0800B900211E0C313F0F4
:1012B300A3E013F00DEDB408CC740129F9E43AFA74
:0E12C300900210E014F070AEA3E0FEA3E0FF76
:0112D10022FA
:0214D600AC0761
:1014D800AD04121268AB07AA06EAFF74022CF58263
:1014E800E43400F583EFF0AF0374032CF582E434A1
:1014F80000F583EFF0EC2402900102F0D2C77F05DB
:081508007E001215FD439A025A
:0115100022B8
:0A0DB6004202510000420253000007
:0300A3000212D274
:0612D200C0E0C083C082F1
:1012D800900252E004F07006900251E004F090028F
:1012E80051E07004A3E06464700C90011004F09065
:1012F8000251E4F0A3F0900108E07025900254E058
:1013080004F07006900253E004F0900253E0700479
:10131800A3E06464700B900253F0A3F090010804FA
:01132800F0D4
:07132900D082D083D0E03236
:100FF300021457E493A3F8E493A34003F68001F2A9
:1010030008DFF48029E493A3F85407240CC8C333FE
:10101300C4540F4420C8834004F456800146F6DFCD
:10102300E4800B0102040810204080900CB2E47E9F
:10103300019360BCA3FF543F30E509541FFEE493C2
:10104300A360010ECF54C025E060A840B8E493A389
:10105300FAE493A3F8E493A3C8C582C8CAC583CAB4
:10106300F0A3C8C582C8CAC583CADFE9DEE780BE6C
:010DC0000032
:10040B00E709F608DFFA8046E709F208DFFA803ED3
:10041B0088828C83E709F0A3DFFA8032E309F608C0
:10042B00DFFA8078E309F208DFFA807088828C8328
:10043B00E309F0A3DFFA806489828A83E0A3F608DC
:10044B00DFFA805889828A83E0A3F208DFFA804CB6
:10045B0080D280FA80C680D4806980F2803380108D
:10046B0080A680EA809A80A880DA80E280CA8033F6
:10047B0089828A83ECFAE493A3C8C582C8CCC5836E
:10048B00CCF0A3C8C582C8CCC583CCDFE9DEE7803E
:10049B000D89828A83E493A3F608DFF9ECFAA9F0BD
:1004AB00EDFB2289828A83ECFAE0A3C8C582C8CC13
:1004BB00C583CCF0A3C8C582C8CCC583CCDFEADE2C
:1004CB00E880DB89828A83E493A3F208DFF980CC8E
:1004DB0088F0EF60010E4E60C388F0ED2402B40487
:1004EB000050B9F582EB2402B4040050AF2323452E
:0604FB00822390045B73F4
:10050100BB010689828A83E0225002E722BBFE02F8
:09051100E32289828A83E493222B
:10051A00BC000BBE0029EF8DF084FFADF022E4CCC5
:10052A00F875F008EF2FFFEE33FEEC33FCEE9DEC8E
:10053A00984005FCEE9DFE0FD5F0E9E4CEFD22EDD4
:10054A00F8F5F0EE8420D21CFEADF075F008EF2F1E
:10055A00FFED33FD4007985006D5F0F222C398FD0F
:05056A000FD5F0EA22AC
:10056F00BB0110E58229F582E5833AF583E0F5F0CA
:10057F00A3E0225009E92582F886F008E622BBFEA7
:10058F000AE92582F8E2F5F008E222E5832AF583ED
:08059F00E993F5F0A3E99322B2
:1013D000C2D5E830E70FB2D5E4C39BFBE49AFAE448
:1013E00099F9E498F8EC30E717B2D5121406120612
:1013F00035E4C39BFBE49AFAE499F9E498F8800396
:1014000012063530D50DE4C39FFFE49EFEE49DFD3A
:04141000E49CFC223A
:1005A700E8600FEFC333FFEE33FEED33FDEC33FCB2
:0305B700D8F12256
:1000A600E508241BF582E43402F583E00508229076
:1000B600021830070390021BE475F0011206C7020E
:1000C60005012000E97F2ED2008018EF540F2490FE
:1000D600D43440D4FF30040BEF24BFB41A005003CD
:1000E6002461FFE50960021509050CE50C7002059F
:1000F6000B30070E900218E475F0011206C7EF02E6
:1001060005E70217137403D2078003E4C207F50854
:100116009002181206DEE4F509F50BF50CE5096008
:10012600077F201200E980F5750AFFC201C200C2EE
:1001360002C203C205C206C2081200B5FF700D3026
:1001460007057F001200FAAF0CAE0B22B4255FC282
:10015600D5C2041200B5FF24D0B40A00501A75F0B7
:100166000A780930D50508B6FF0106C6A426F6208A
:10017600D5047002D20380D924CFB41A00EF5004FC
:10018600C2E5D2040202FBD20180C6D20080C0D2F0
:100196000280BCD2D580BAD20580B47F201200E995
:1001A6002002077401B5090040F11200A6FF1200F3
:1001B600E9020123D208D20680951200A6FB12009E
:1001C600A6FA1200A6F94A4B700679CC7A037BFF91
:1001D60020022EE509602A7E008E827583001205B4
:1001E600BA60060EEE650A70F0C2D5EBC0E0EAC052
:1001F600E0E9C0E0EE120342D0E0F9D0E0FAD0E048
:10020600FB120501FF60AAEBC0E0EAC0E0E9C0E02E
:100216001200E9D0E02401F9D0E03400FAD0E0FB86
:10022600E50A0460DCD50AD980877BFF7A03793E2C
:10023600D202809C791080027908C206C208800822
:10024600D2D5790A8004790AC2D5E50A047002F586
:100256000AE4FAFDFEFF1200A6FC7B082001131239
:1002660000A6FD7B1030000A1200A6FE1200A6FFB3
:100276007B20EC3382D592D55013C3E43000069F21
:10028600FFE49EFEE42001039DFDE49CFCE4CBF824
:10029600C201EC700CCFCECDCCE824F8F870F38018
:1002A60017C3EF33FFEE33FEED33FDEC33FCEB33D8
:1002B600FB994002FB0FD8E9EB300105F8D0E0C40A
:1002C60048B201C0E00AEC4D4E4F78207B0070C268
:1002D600EAB50A0040BCC0E0120344D0F0D0E020EA
:1002E6000104C4C0E0C4B201C0F01200D2D0F0D5FF
:1002F600F0EB0201231206E701C053023A580191BE
:100306004C018D42023E4F02464402464901A64335
:08031600024C55023046023092
:10031E004502304703EC5001952D01992E01BC2B5F
:10032E00019D2301BA2003D52A015548000001B4CE
:10033E003F3F3F00790AA2D5200314300509B910BA
:10034E00020404B9080104A2D520060250010420BB
:10035E0002689202B509005034C0E07F20300319C4
:10036E007F30A20272067205500F12039BC202C2A8
:10037E0006C205C2087F30800F300503E9C0E012C7
:10038E0000E9300503D0E0F9D0E0B509CC3005170F
:10039E007F30B9100C1200E97F583004077F788047
:1003AE0003B908031200E93002057F2D0200E97F30
:1003BE00202008F87F2B2006F322920280CF286E91
:1003CE00756C6C2900D2011200A63001F8C20178BA
:1003DE000930D50108F60201552D50434958120037
:1003EE00A62403B405004001E49003E7931200DA5B
:0D03FE00743A1200DAD20375090402023AC3
:1005BA00BB010CE58229F582E5833AF583E02250F6
:1005CA0006E92582F8E622BBFE06E92582F8E22240
:0D05DA00E58229F582E5833AF583E493225A
:1005E700BB010689828A83F0225002F722BBFE01F3
:0205F700F322ED
:1005F90075F008758200EF2FFFEE33FECD33CDCCB9
:1006090033CCC58233C5829BED9AEC99E58298403B
:100619000CF582EE9BFEED9AFDEC99FC0FD5F0D618
:10062900E4CEFBE4CDFAE4CCF9A88222B800C1B942
:100639000059BA002DEC8BF084CFCECDFCE5F0CB80
:10064900F97818EF2FFFEE33FEED33FDEC33FCEBB9
:1006590033FB10D703994004EB99FB0FD8E5E4F974
:10066900FA227818EF2FFFEE33FEED33FDEC33FC61
:10067900C933C910D7059BE99A4007EC9BFCE99A55
:10068900F90FD8E0E4C9FAE4CCFB2275F010EF2F9A
:10069900FFEE33FEED33FDCC33CCC833C810D7079A
:1006A9009BEC9AE899400AED9BFDEC9AFCE899F8D5
:0E06B9000FD5F0DAE4CDFBE4CCFAE4C8F92268
:1006C700F8E0FBA3A3E0F925F0F0E58215827002BC
:0706D7001583E0FA38F02260
:0906DE00EBF0A3EAF0A3E9F0221D
:1006E700D083D082F8E4937012740193700DA3A3A2
:1006F70093F8740193F5828883E4737402936860B6
:06070700EFA3A3A380DFB5
:00000001FF
