:03000000021118D2
:0C111800787FE4F6D8FD75812102115F9C
:1016D400D3EF9400EE9400401600000075080B75DB
:0F16E40009BED509FDD508FAEF1F70E41E80E19D
:0116F30022D4
:10008E00546865206164635F76616C206973202516
:05009E0064200D0A00C2
:10176C0043BC807F0A7E001216D453DEFC43DE0C91
:0A177C0053BCDF53A8DF43DE202238
:10145600E4900214F0A3F053BCF0EF444042BCE524
:10146600BC30E5FB53BCDF53BCBFAFBDEFFFADBE29
:10147600ED900214CFF0A3EFF07BFF7A00798E9007
:101486000214E0FFA3E0900219CFF0A3EFF01201DF
:0914960011900214E0FEA3E0FF36
:01149F00222A
:1016B30075940275931C7592027591F0759602E408
:1016C300F595F5B2F5B175B480F5B375CA04F5C9EE
:0116D30022F4
:10001E003D3D3D3D3D3D3D3D3D3D20636F64652095
:10002E007374617274203D3D3D3D3D3D3D3D3D3D12
:04003E00200D0A0087
:1015570043BA801216B312178612176C1217C312EA
:1015670017511217B01200061217FC1217D61218CD
:10157700101214DFD2AF1216487BFF7A00791E12C1
:07158700011112132880FB83
:1014DF0043BA8090FEB6E0F090FEEDE4F090FEEAA5
:1014EF007470F0A3F090FEF27404F0A37451F090B6
:1014FF00FEF0E4F0A37431F090FEB5E04450F090AC
:0D150F00FEFD7480F090FEE0E04401F0224B
:05000600D288D2A822FF
:1017B000438E805389F0758ACD758CD4C28DD28CBE
:0317C000D2A92289
:0A17FC00538EBF53890F438910225A
:1017D60043D12075D39175D2FF43D18043AF4022C8
:1017C300759A50438E0475D7E875D6FF438E104340
:0317D300AF012241
:1017860075AC1043AC4043D10275D5E875D4FF4320
:06179600D10843AF082258
:0D000E00E4F5C7F5C5F5C675C380F5C4223D
:1017330075C78075F50C75C5038FC4EEF5C375C603
:0E1743005A75C6A57F0A7E001216D402000E4B
:10166F0075C78075F50C75C5028FC4EEF5C3AF0550
:10167F008FC275C65A75C6A57F0A7E001216D40290
:02168F00000E4B
:1016F40075C78075F50C75C5018FC4EEF5C375C645
:101704005A75C6A57F0A7E001216D4AFC202000E17
:1015C1005468652061766572616765206164635F57
:1015D10076616C206973202564200D0A00546865CA
:0F15E1002074656D70206973202564200D0A0049
:100D200060FC011003D503FA04200446046D049509
:100D300004BE04E70510053A0565059005BB05E707
:100D40000613063F066C069906C606F30720074DF4
:100D5000077A07A707D40800082D0859088508B1A5
:100D600008DC09070931095B098409AD09D609FDC9
:100D70000A240A4B0A710A960ABB0ADE0B020B24EC
:100D80000B460B670B870BA70BC60BE40C020C1E64
:100D90000C3A0C560C700C8A0CA40CBC0CD40CEC49
:100DA0000D020D190D2E0D430D570D6B0D7E0D907F
:100DB0000DA20DB40DC50DD50DE50DF50E040E12E9
:100DC0000E200E2E0E3B0E480E550E610E6D0E7847
:100DD0000E830E8D0E970EA10EAB0EB40EBD0EC679
:100DE0000ECF0ED70EDF0EE70EEF0EF60EFD0F0440
:100DF0000F0B0F110F170F1D0F230F290F2F0F357B
:100E00000F3A0F3F0F440F490F4E0F530F580F5C0F
:100E10000F600F650F690F6D0F710F740F780F7CE6
:0E11A400900214EBF0A3EAF0A3E9F0A3EDF043
:1011B200E490021BF0A3F090021AF0900217E014E0
:1011C200FF90021AE0FEC39F505A900214E0FBA364
:1011D200E0FAA3E0F975F002EEA4F58285F083123D
:1011E2000585FF900218E0FCA3E0FDC39FEC95F09B
:1011F200402AA3E02401FFE433FEEF25E0FFEE33B3
:10120200FE8F828E83120585FFC3ED9FEC95F05011
:101212000B90021AE0FFA3E4F0A3EFF090021AE0B1
:0C12220004F0809790021BE0FEA3E0FFA8
:01122E00229D
:0510840090020EEFF0E8
:10108900E4900210F0A3F090020FF090020EE0FF3E
:10109900121456900211E02FF0900210E03EF090E9
:1010A900020FE004F0E0C3940A40E0900210E0FE71
:1010B900A3E0FF7C007D0A12051A900210EEF0A34E
:1010C900EFF07BFF7A1579C1900219EEF0A3EFF0EA
:1010D9001201117B017A017910900210E0FFA3E05F
:1010E900900218CFF0A3EFF07D7E1211A4900212A6
:1010F900EEF0A3EFF07BFF7A1579DE900219EEF09E
:0E110900A3EFF0120111900212E0FEA3E0FF2E
:0111170022B5
:1012B30090010FE06401706C7F04121084900109A7
:1012C300EFF07F0512108490010AEFF07F061210F1
:1012D3008490010BEFF0A3E0FF900109E0C39F901E
:1012E3000250E0400554FEF080034401F090010DEC
:1012F300E0FF90010AE0C39F900250E0400554FDD7
:10130300F080034402F090010EE0FF90010BE0C374
:101313009F900250E0400554FBF080034404F0E446
:0513230090010FF02213
:06181000E4900251F022F9
:030003000215F0F3
:1015F000C0E0C083C082C0D075D000C00690025247
:10160000E0FEA3E0F58BEEF58D9002517401F0D26F
:0E1610008ED2ABD006D0D0D082D083D0E032C4
:03001B0002161EAC
:10161E00C0E0C083C082C0D0900251E0B4010CE49F
:10162E00F0C2C4758BF7758DFF8006D2C4C28EC210
:0A163E00ABD0D0D082D083D0E032D0
:10179C00EF75F04BA42490FEE5F034E2900252F089
:0417AC00A3CEF022B6
:0A180600EFB40103C2A122D2A12217
:101714005468652076616C7565206F662063757208
:0F17240072656E74206973202564200D0A200001
:050E330090020EEFF03B
:100E3800E4900211F0A3F0A3F090020EE0FF121468
:100E480056900212E02FF0900211E03EF09002134B
:100E5800E004F0E0C3940A40E0900211E0FEA3E051
:100E6800FF7C007D0A12051A900211EEF0A3EFF044
:100E7800C39450EE9405500A9002117405F0A374BF
:100E880050F0900212E024B0FB900211E034FAFA1C
:100E98007C007D24AF03FE12051A90020FECF0A32C
:100EA800EDF0C39412EC9400400A90020FE4F0A312
:100EB80004F08007E490020FF0A3F07C007D24AFDB
:100EC80003AE0212051A900210E02FFF90020FE005
:100ED8003EFEF0A3EFF0D3941EEE9400400990027A
:100EE8000FE4F0A3741EF07BFF7A17791490020FB9
:100EF800E0FFA3E0900219CFF0A3EFF012011190E8
:070F0800020FE0FEA3E0FF71
:010F0F0022BF
:040E20004101080084
:10175100E4900000F0A3F0900082F0900102F0F01C
:0B176100A3F0A3F0A3F0A3F0C2C72286
:0300430002122F77
:10122F00C0E0C083C082C0D075D000C007E59A303F
:10123F00E12F539AFD900000E4F0900102E0601A54
:10124F00A3E0FF04F074022FF582E43400F583E08D
:10125F00F59B900102E014F08007900103E4F0C2C7
:10126F00C7E59A30E033539AFE900001E070219069
:10127F000106E0D394804002E4F0900106E024825E
:10128F00F582E43400F583E59BF0900106E004F06D
:10129F00900104E4F0A37432F0D007D0D0D082D004
:0412AF0083D0E032D6
:03000B000214A03C
:1014A000C0E0C083C082C0D0900104E07002A3E01D
:1014B0006024900105E024FFF0900104E034FFF087
:1014C000E07002A3E0700F900106E0D394004006A4
:0F14D0009000017401F0D0D0D082D083D0E032F0
:03008B00021691C9
:10169100C0E0C083C082E5AC30E10853ACFD9001ED
:1016A10008E4F0E5AC30E00353ACFED082D083D047
:0216B100E03225
:0B17E600900108E070FA04F08FAD22C3
:10158E00900254EBF0A3EAF0A3E9F0900254E0FBD2
:10159E00A3E0FAA3E0F91205016017900254A3E448
:1015AE0075F00112056FA9F0FA120501FF1217E688
:0315BE0080D922AF
:0B17F1008FAD900108E070FA04F022B8
:101648007F107E001216F4EFB4FF19900245746FF4
:10165800F0A37401F0A37465F0A37450F0A3F0A391
:07166800F0121400020F1044
:10140000E4FFFE121733900245E0FDE4FFFE1216E2
:101410006F900246E0FD7F017E0012166F9002473A
:10142000E0FD7F027E0012166F900248E0FD7F0310
:101430007E0012166F900249E0FD7F047E001216B6
:101440006F90024AE0FD7F057E0012166F7D587F87
:06145000107E0002166F81
:100F1000E4FFFE1216F4900245EFF0E0FD131354C7
:100F20000775F0B8A4FF90FEF9E5F0F0A3EFF0ED3F
:100F3000C413540775F0B8A4FFA3E5F0F0A3EFF0D5
:100F4000900245E0FF90FEED30E006E04401F080C5
:100F500004E054FEF0EF90FEED30E106E04410F0C6
:100F60008004E054EFF07F017E001216F4900246F8
:100F7000EFF030E0047F018002E4FF1218067F02E8
:100F80007E001216F4900247EFF030E004D2A88001
:100F900002C2A8900247E0C313FF12179C7F037E92
:100FA000001216F4900248EFF07F047E001216F44F
:100FB000900249EFF07F057E001216F490024AEF8E
:100FC000F0900248E090010CF0900249E090010D91
:050FD000F0A3EFF02288
:10132800900001E064017065F07B017A0079829099
:101338000106E024FEFD12139CAD07AC06900106E1
:10134800E0FB2480F582E43400F583E0FE74812B11
:10135800F582E43400F583E0FBEBFFE4900106F04E
:10136800EDB50729ECB50625900082E0B4351EA33B
:10137800E024FC600F24FE600E24F6600D240D703E
:0D1388000C020A6B020C090208CA120723AE
:011395002235
:100A6B009002417403F0900086A3E025E0900240D1
:100A7B00F0900084E0FEA3E0FDEDFF900243EEF06A
:100A8B00A3EFF09000027435F0A37403F0900240D2
:100A9B00E0900004F090020CEEF0A3EFF090024017
:100AAB00E0C313FF900244E02FFF900243E03400B9
:100ABB00FE90020CE0FCA3E0FDC39FEC9E40030202
:100ACB000BFFE490023FF090023EF0EC6003020B50
:100ADB00BEED147003020B60147003020B6B1470E9
:100AEB0003020BA4147003020BB124046003020B6A
:100AFB00BEE490023EF0A3E0FB90FEF9E0FEA3E023
:100B0B00FF7C007DB812051AEF7802C333CE33CECB
:100B1B00D8F94B90023FF0E0FB90FEFBE0FEA3E028
:100B2B00FF7C007DB812051AEF7805C333CE33CEA8
:100B3B00D8F94B90023FF090FEEDE030E0079002C9
:100B4B003FE04401F090FEEDE030E46790023FE0BF
:100B5B004402F0805EE490023EF030A856A380334E
:100B6B00E490023EF0900252E0FEA3E0FFEF24700F
:100B7B00FFEE341DFEE434FFFDE434FFFCE47B4B5D
:100B8B00FAF9F812004678011205BD90023FEFF01A
:100B9B0030A820E04401F0801A90010DE090023E55
:100BAB00F090010C8008E490023EF090010EE09072
:100BBB00023FF090023EE0FF900241E0FE04F07431
:100BCB00022EF582E43400F583EFF090023FE0FF54
:100BDB00900241E0FE04F074022EF582E43400F53D
:100BEB0083EFF090020DE004F0700690020CE0042D
:0E0BFB00F0020AA8900240E02403FF02151C3D
:100C09009002417403F0900086A3E025E090024031
:100C1900F0900084E0FEA3E0FDEDFF900243EEF0CA
:100C2900A3EFF09000027435F0A37404F090024031
:100C3900E0900004F090020CEEF0A3EFF090024077
:100C4900E0C313FF900244E02FFF900243E0340019
:100C5900FE90020CE0FCA3E0FDC39FEC9E40030262
:100C69000D16E490023FF090023EF0EC705EED1438
:100C7900601B14602E1460371460422404704D7F89
:100C89000412108490023FEFF07F05800C7F06125A
:100C9900108490023FEFF07F0712108490023EEF1C
:100CA900F0802990023E74AAF0A374BBF0801D7FE6
:100CB9000B120E3390023EEFF07F0A8007E4900298
:100CC9003EF07F0C120E3390023FEFF090023EE0AF
:100CD900FF900241E0FE04F074022EF582E4340034
:100CE900F583EFF090023FE0FF900241E0FE04F04F
:100CF90074022EF582E43400F583EFF090020DE0E2
:100D090004F0700690020CE004F0020C46900240D8
:070D1900E02403FF02151C9A
:1008CA00900085E014700302096A1470030209A9F2
:1008DA001470030209EC147003020A322404600340
:1008EA00020A6A78027C007D017B017A0079827EA5
:1008FA00007F081204DB900007E0FF90FEED30E075
:10090A0006E04401F08004E054FEF0EF90FEED3082
:10091A00E106E04410F08004E054EFF0900007E0B4
:10092A00FD1313540775F0B8A4FF90FEF9E5F0F033
:10093A00A3EFF0EDC413540775F0B8A4FFA3E5F0D4
:10094A00F0A3EFF09001027408F0D2C77F057E0091
:10095A001216D4439A02900007E0900245020A66F2
:10096A0078027C007D017B017A0079827E007F0813
:10097A001204DB900007E030E0047F018002E4FF0C
:10098A001218069001027408F0D2C77F057E001281
:10099A0016D4439A02900007E0900246020A66784B
:1009AA00027C007D017B017A0079827E007F081239
:1009BA0004DB900007E0FF30E004D2A88002C2A85E
:1009CA00EFC313FF12179C9001027408F0D2C77F7D
:1009DA00057E001216D4439A02900007E09002475F
:1009EA00807A78027C007D017B017A0079827E0020
:1009FA007F081204DB900007E090010CF0900006DB
:100A0A00E090010DF09001027408F0D2C77F057ED4
:100A1A00001216D4439A0290010CE0900248F0901A
:100A2A00010DE0900249803478027C007D017B014F
:100A3A007A0079827E007F081204DB900007E0903A
:100A4A00010EF09001027408F0D2C77F057E0012F1
:100A5A0016D4439A0290010EE090024AF012140052
:010A6A002269
:100723009002427407F0900088E0900240F090003D
:1007330084E0FEA3E0FDEDFF900243EEF0A3EFF0B3
:1007430078027C007D017B017A0079827E007F063E
:100753001204DB900243E0FFA3E090020CCFF0A36E
:10076300EFF0900240E0C313FF900244E02FFF90AC
:100773000243E03400FE90020CE0FCA3E0FDC39FC3
:10078300EC9E40030208A4900242E02482F582E436
:100793003400F583E090023EF0900242E02483F5BA
:1007A30082E43400F583E090023FF0EC600302083A
:1007B3008CED146071147003020843147003020873
:1007C300621470030208802404600302088C900200
:1007D3003FE0FF90FEED30E006E04401F08004E0EE
:1007E30054FEF0EF90FEED30E106E04410F080049B
:1007F300E054EFF090023FE0FD1313540775F0B897
:10080300A4FF90FEF9E5F0F0A3EFF0EDC413540755
:1008130075F0B8A4FFA3E5F0F0A3EFF090023FE07A
:10082300900245F0806390023FE030E0047F018056
:1008330002E4FF12180690023FE0900246F080495E
:1008430090023FE0FF30E004D2A88002C2A8EFC3C9
:1008530013FF12179C90023FE0900247F0802A900A
:10086300023FE090010CF090023EE0FF90010DF09A
:1008730090010CE0900248F0A3EFF0800C90023F4F
:10088300E090010EF090024AF0900242E02402F060
:1008930090020DE004F0700690020CE004F00207F1
:1008A300657D06121396AD07AC06EC900008F0A325
:1008B300EFF09001027408F0D2C77F057E00121694
:0708C300D4439A0202140065
:061396007B017A007902E0
:05139C0090020EEDF0CF
:1013A10074FFA3F0A3F0120501FF90020FE0F0A378
:1013B100E06FF0E4FD90020FE0FEA3E0FF30E019E2
:1013C100EEC313FEEF13FFEE64A0FEEF6401FF9086
:1013D100020FEEF0A3EFF0800B90020FE0C313F0C9
:1013E100A3E013F00DEDB408CC740129F9E43AFA45
:0E13F10090020EE014F070AEA3E0FEA3E0FF49
:0113FF0022CB
:02151C00AC071A
:10151E00AD04121396AB07AA06EAFF74022CF582ED
:10152E00E43400F583EFF0AF0374032CF582E4345A
:10153E0000F583EFF0EC2402900102F0D2C77F0594
:08154E007E001216D4439A023C
:011556002272
:0E0E240041024B0142024C000042024E00000F
:0300A300020FD574
:100FD500C0E0C083C082C0D075D000C001C003C0CE
:010FE5000704
:100FE60090024BE0FF7006D2C3D2C2D2C19002512A
:100FF600E0F96401702AEF64017025900250E0FF69
:10100600FB54FE24FF82C192C1EB54FD24FF82C231
:1010160092C2EF54FB24FF82C392C390024BE4F0CA
:10102600E9700590024B04F090024DE004F0700662
:1010360090024CE004F090024CE07004A3E064647B
:10104600702D90024CF0A3F090024FE004F0700671
:1010560090024EE004F090024EE0B40312A3E0B416
:0F106600E80D90010F7401F090024EE4F0A3F03A
:0F107500D007D003D001D0D0D082D083D0E032CA
:10112400021557E493A3F8E493A34003F68001F275
:1011340008DFF48029E493A3F85407240CC8C333CC
:10114400C4540F4420C8834004F456800146F6DF9B
:10115400E4800B0102040810204080900D20E47EFE
:10116400019360BCA3FF543F30E509541FFEE49390
:10117400A360010ECF54C025E060A840B8E493A357
:10118400FAE493A3F8E493A3C8C582C8CAC583CA82
:10119400F0A3C8C582C8CAC583CADFE9DEE780BE3A
:010E320000BF
:10040B00E709F608DFFA8046E709F208DFFA803ED3
:10041B0088828C83E709F0A3DFFA8032E309F608C0
:10042B00DFFA8078E309F208DFFA807088828C8328
:10043B00E309F0A3DFFA806489828A83E0A3F608DC
:10044B00DFFA805889828A83E0A3F208DFFA804CB6
:10045B0080D280FA80C680D4806980F2803380108D
:10046B0080A680EA809A80A880DA80E280CA8033F6
:10047B0089828A83ECFAE493A3C8C582C8CCC5836E
:10048B00CCF0A3C8C582C8CCC583CCDFE9DEE7803E
:10049B000D89828A83E493A3F608DFF9ECFAA9F0BD
:1004AB00EDFB2289828A83ECFAE0A3C8C582C8CC13
:1004BB00C583CCF0A3C8C582C8CCC583CCDFEADE2C
:1004CB00E880DB89828A83E493A3F208DFF980CC8E
:1004DB0088F0EF60010E4E60C388F0ED2402B40487
:1004EB000050B9F582EB2402B4040050AF2323452E
:0604FB00822390045B73F4
:10050100BB010689828A83E0225002E722BBFE02F8
:09051100E32289828A83E493222B
:10051A00BC000BBE0029EF8DF084FFADF022E4CCC5
:10052A00F875F008EF2FFFEE33FEEC33FCEE9DEC8E
:10053A00984005FCEE9DFE0FD5F0E9E4CEFD22EDD4
:10054A00F8F5F0EE8420D21CFEADF075F008EF2F1E
:10055A00FFED33FD4007985006D5F0F222C398FD0F
:05056A000FD5F0EA22AC
:10056F00A3F8E0C5F025F0F0E5821582700215833F
:06057F00E0C838F0E8229C
:10058500BB0110E58229F582E5833AF583E0F5F0B4
:10059500A3E0225009E92582F886F008E622BBFE91
:1005A5000AE92582F8E2F5F008E222E5832AF583D7
:0805B500E993F5F0A3E993229C
:10004600C2D5E830E70FB2D5E4C39BFBE49AFAE4E5
:1000560099F9E498F8EC30E717B2D512007C12064D
:100066004BE4C39BFBE49AFAE499F9E498F880031D
:1000760012064B30D50DE4C39FFFE49EFEE49DFDC2
:04008600E49CFC22D8
:1005BD00E8600FEFC333FFEE33FEED33FDEC33FC9C
:0305CD00D8F12240
:1000A600E5082419F582E43402F583E00508229078
:1000B6000216300703900219E475F0011206DD02FC
:1000C60005012000E97F2ED2008018EF540F2490FE
:1000D600D43440D4FF30040BEF24BFB41A005003CD
:1000E6002461FFE50960021509050CE50C7002059F
:1000F6000B30070E900216E475F0011206DDEF02D2
:1001060005FD0217F17403D2078003E4C207F50860
:100116009002161206F4E4F509F50BF50CE50960F4
:10012600077F201200E980F5750AFFC201C200C2EE
:1001360002C203C205C206C2081200B5FF700D3026
:1001460007057F001200FAAF0CAE0B22B4255FC282
:10015600D5C2041200B5FF24D0B40A00501A75F0B7
:100166000A780930D50508B6FF0106C6A426F6208A
:10017600D5047002D20380D924CFB41A00EF5004FC
:10018600C2E5D2040202FBD20180C6D20080C0D2F0
:100196000280BCD2D580BAD20580B47F201200E995
:1001A6002002077401B5090040F11200A6FF1200F3
:1001B600E9020123D208D20680951200A6FB12009E
:1001C600A6FA1200A6F94A4B700679CC7A037BFF91
:1001D60020022EE509602A7E008E827583001205B4
:1001E600D060060EEE650A70F0C2D5EBC0E0EAC03C
:1001F600E0E9C0E0EE120342D0E0F9D0E0FAD0E048
:10020600FB120501FF60AAEBC0E0EAC0E0E9C0E02E
:100216001200E9D0E02401F9D0E03400FAD0E0FB86
:10022600E50A0460DCD50AD980877BFF7A03793E2C
:10023600D202809C791080027908C206C208800822
:10024600D2D5790A8004790AC2D5E50A047002F586
:100256000AE4FAFDFEFF1200A6FC7B082001131239
:1002660000A6FD7B1030000A1200A6FE1200A6FFB3
:100276007B20EC3382D592D55013C3E43000069F21
:10028600FFE49EFEE42001039DFDE49CFCE4CBF824
:10029600C201EC700CCFCECDCCE824F8F870F38018
:1002A60017C3EF33FFEE33FEED33FDEC33FCEB33D8
:1002B600FB994002FB0FD8E9EB300105F8D0E0C40A
:1002C60048B201C0E00AEC4D4E4F78207B0070C268
:1002D600EAB50A0040BCC0E0120344D0F0D0E020EA
:1002E6000104C4C0E0C4B201C0F01200D2D0F0D5FF
:1002F600F0EB0201231206FD01C053023A580191A8
:100306004C018D42023E4F02464402464901A64335
:08031600024C55023046023092
:10031E004502304703EC5001952D01992E01BC2B5F
:10032E00019D2301BA2003D52A015548000001B4CE
:10033E003F3F3F00790AA2D5200314300509B910BA
:10034E00020404B9080104A2D520060250010420BB
:10035E0002689202B509005034C0E07F20300319C4
:10036E007F30A20272067205500F12039BC202C2A8
:10037E0006C205C2087F30800F300503E9C0E012C7
:10038E0000E9300503D0E0F9D0E0B509CC3005170F
:10039E007F30B9100C1200E97F583004077F788047
:1003AE0003B908031200E93002057F2D0200E97F30
:1003BE00202008F87F2B2006F322920280CF286E91
:1003CE00756C6C2900D2011200A63001F8C20178BA
:1003DE000930D50108F60201552D50434958120037
:1003EE00A62403B405004001E49003E7931200DA5B
:0D03FE00743A1200DAD20375090402023AC3
:1005D000BB010CE58229F582E5833AF583E02250E0
:1005E00006E92582F8E622BBFE06E92582F8E2222A
:0D05F000E58229F582E5833AF583E4932244
:1005FD00BB010689828A83F0225002F722BBFE01DD
:02060D00F322D6
:10060F0075F008758200EF2FFFEE33FECD33CDCCA2
:10061F0033CCC58233C5829BED9AEC99E582984025
:10062F000CF582EE9BFEED9AFDEC99FC0FD5F0D602
:10063F00E4CEFBE4CDFAE4CCF9A88222B800C1B92C
:10064F000059BA002DEC8BF084CFCECDFCE5F0CB6A
:10065F00F97818EF2FFFEE33FEED33FDEC33FCEBA3
:10066F0033FB10D703994004EB99FB0FD8E5E4F95E
:10067F00FA227818EF2FFFEE33FEED33FDEC33FC4B
:10068F00C933C910D7059BE99A4007EC9BFCE99A3F
:10069F00F90FD8E0E4C9FAE4CCFB2275F010EF2F84
:1006AF00FFEE33FEED33FDCC33CCC833C810D70784
:1006BF009BEC9AE899400AED9BFDEC9AFCE899F8BF
:0E06CF000FD5F0DAE4CDFBE4CCFAE4C8F92252
:1006DD00F8E0FBA3A3E0F925F0F0E58215827002A6
:0706ED001583E0FA38F0224A
:0906F400EBF0A3EAF0A3E9F02207
:1006FD00D083D082F8E4937012740193700DA3A38C
:10070D0093F8740193F5828883E47374029368609F
:06071D00EFA3A3A380DF9F
:00000001FF
