:03000000020FE408
:0C0FE400787FE4F6D8FD75812102102B07
:1015FA00D3EF9400EE9400401600000075080B75B6
:0F160A0009BED509FDD508FAEF1F70E41E80E177
:0116190022AE
:10008E00546865206164635F76616C206973202516
:05009E0064200D0A00C2
:1016960043BC807F0A7E001215FA53DEFC43DE0C43
:0A16A60053BCDF53A8DF43DE20220F
:10138300E4900216F0A3F053BCF0EF444042BCE5F6
:10139300BC30E5FB53BCDF53BCBFAFBDEFFFADBEFD
:1013A300ED900216CFF0A3EFF07BFF7A00798E90D9
:1013B3000216E0FFA3E090021BCFF0A3EFF01201AF
:0913C30011900216E0FEA3E0FF08
:0113CC0022FE
:1015660075940275931C7592027591F0759602E456
:10157600F595F5B2F5B190FE13E04440F075B49ED2
:09158600E4F5B375CA04F5C922AD
:10001E003D3D3D3D3D3D3D3D3D3D20636F64652095
:10002E007374617274203D3D3D3D3D3D3D3D3D3D12
:04003E00200D0A0087
:1014540043BA801215661216B012169690011174D2
:1014640001F01216ED1216591216DA120046120085
:101474000312171B121700121411D2AF12158F7B0F
:10148400FF7A00791E1201111211F712117F80F8F0
:1014110043BA8090FEB6E0F090FEEDE4F090FEEA73
:101421007470F0A3F090FEED7411F090FEF274046C
:10143100F0A37451F090FEF0E4F0A37431F090FE4B
:10144100B5E04450F090FEFD7480F090FEE0E04481
:0314510001F02285
:04000300438F1022F5
:1016DA00438E805389F0758ACD758CD4C28DD28C95
:0316EA00D2A92260
:0A171B00538EBF53890F438910223B
:1017000053D1DFE4F5D375D2DC43D18043AF40221F
:1016ED00759A50438E0475D7E875D6FF438E104317
:0316FD00AF012218
:1016B00075AC1043AC4043D10275D5E875D4FF43F7
:0616C000D10843AF08222F
:0D000E00E4F5C7F5C5F5C675C380F5C4223D
:1016780075C78075F50C75C5038FC4EEF5C375C6BF
:0E1688005A75C6A57F0A7E001215FA02000EE2
:1015B60075C78075F50C75C5028FC4EEF5C3AF050A
:1015C6008FC275C65A75C6A57F0A7E001215FA0225
:0215D600000E05
:10161A0075C78075F50C75C5018FC4EEF5C375C61F
:10162A005A75C6A57F0A7E001215FAAFC202000ECD
:100056005468652061766572616765206164635FD7
:1000660076616C206973202564200D0A005468654A
:0F0076002074656D70206973202564200D0A00C9
:100CAF0060FC011203D503FA04200446046D049579
:100CBF0004BE04E70510053A0565059005BB05E779
:100CCF000613063F066C069906C606F30720074D66
:100CDF00077A07A707D40800082D0859088508B117
:100CEF0008DC09070931095B098409AD09D609FD3B
:100CFF000A240A4B0A710A960ABB0ADE0B020B245E
:100D0F000B460B670B870BA70BC60BE40C020C1ED5
:100D1F000C3A0C560C700C8A0CA40CBC0CD40CECBA
:100D2F000D020D190D2E0D430D570D6B0D7E0D90F0
:100D3F000DA20DB40DC50DD50DE50DF50E040E125A
:100D4F000E200E2E0E3B0E480E550E610E6D0E78B8
:100D5F000E830E8D0E970EA10EAB0EB40EBD0EC6EA
:100D6F000ECF0ED70EDF0EE70EEF0EF60EFD0F04B1
:100D7F000F0B0F110F170F1D0F230F290F2F0F35EC
:100D8F000F3A0F3F0F440F490F4E0F530F580F5C81
:100D9F000F600F650F690F6D0F710F740F780F7C58
:0E107000900216EBF0A3EAF0A3E9F0A3EDF076
:10107E00E490021DF0A3F090021CF0900219E0140F
:10108E00FF90021CE0FEC39F505A900216E0FBA395
:10109E00E0FAA3E0F975F002EEA4F58285F0831272
:1010AE00056FFF90021AE0FCA3E0FDC39FEC95F0E4
:1010BE00402AA3E02401FFE433FEEF25E0FFEE33E8
:1010CE00FE8F828E8312056FFFC3ED9FEC95F0505D
:1010DE000B90021CE0FFA3E4F0A3EFF090021CE0E3
:0C10EE0004F0809790021DE0FEA3E0FFDC
:0110FA0022D3
:050F5000900210EFF01B
:100F5500E4900212F0A3F0900211F0900210E0FF6D
:100F6500121383900213E02FF0900212E03EF090EE
:100F75000211E004F0E0C3940A40E0900212E0FEA2
:100F8500A3E0FF7C007D0A12051A900212EEF0A381
:100F9500EFF07BFF7A00795690021BEEF0A3EFF09D
:100FA5001201117B017A017912900212E0FFA3E090
:100FB50090021ACFF0A3EFF07D7E1210709002140C
:100FC500EEF0A3EFF07BFF7A00797390021BEEF051
:0E0FD500A3EFF0120111900214E0FEA3E0FF62
:010FE30022EB
:10117F00900110E06401706F7F04120F5090010A0C
:10118F00EFF07F05120F5090010BEFF07F06120F5B
:10119F005090010CEFF0A3E0FF90010AE0C39F40D5
:1011AF000B900111E0B40104D2C18002C2C19001C1
:1011BF000EE0FF90010BE0C39F400B900111E0B4D4
:1011CF000104D2C28002C2C290010FE0FF90010C55
:1011DF00E0C39F400B900111E0B40104D2C3800221
:0811EF00C2C3E4900110F022DC
:0C004600E490024EF0D2C3D2C2D2C1221C
:0300530002150E85
:10150E00C0E0C083C082C0D075D000C00690024F2C
:10151E00E0FEA3E0F58BEEF58D90024E7401F0D255
:0E152E008ED2ABD006D0D0D082D083D0E032A7
:03001B0002153C8F
:10153C00C0E0C083C082C0D090024EE0B4010CE485
:10154C00F0C2C4758BF7758DFF8006D2C4C28EC2F3
:0A155C00ABD0D0D082D083D0E032B3
:1016C600EF75F04BA42490FEE5F034E290024FF063
:0416D600A3CEF0228D
:0A172500EFB40103C2A122D2A122F9
:10163A005468652076616C7565206F6620637572E3
:0F164A0072656E74206973202564200D0A2000DC
:050DBE00900210EFF0AF
:100DC300E4900213F0A3F0A3F0900210E0FF1213DB
:100DD30083900214E02FF0900213E03EF09002158E
:100DE300E004F0E0C3940A40E0900213E0FEA3E0C5
:100DF300FF7C007D0A12051A900213EEF0A3EFF0B8
:100E0300C39450EE9405500A9002137405F0A37432
:100E130050F0900214E024B0FB900213E034FAFA8D
:100E23007C007D24AF03FE12051A900211ECF0A39F
:100E3300EDF0C39412EC9400400A900211E4F0A385
:100E430004F08007E4900211F0A3F07C007D24AF4E
:100E530003AE0212051A900212E02FFF900211E076
:100E63003EFEF0A3EFF0D3941EEE940040099002EF
:100E730011E4F0A3741EF07BFF7A16793A90021105
:100E8300E0FFA3E090021BCFF0A3EFF0120111905B
:070E93000211E0FEA3E0FFE5
:010E9A002235
:040DAF0041010900F5
:10165900E4900000F0A3F0900082F0900102F0F015
:0F166900A3F0A3F0A3F0A3F0C2C7900108F022F2
:030043000210FBAD
:1010FB00C0E0C083C082C0D075D000C007E59A3075
:10110B00E12F539AFD900000E4F0900102E0601A89
:10111B00A3E0FF04F074022FF582E43400F583E0C2
:10112B00F59B900102E014F08007900103E4F0C2FC
:10113B00C7E59A30E033539AFE900001E07021909E
:10114B000106E0D394804002E4F0900106E0248293
:10115B00F582E43400F583E59BF0900106E004F0A2
:10116B00900104E4F0A37432F0D007D0D0D082D039
:04117B0083D0E0320B
:03000B0002149448
:10149400C0E0C083C082C0D0900104E07002A3E029
:1014A4006024900105E024FFF0900104E034FFF093
:1014B400E07002A3E0700F900106E0D394004006B0
:0F14C4009000017401F0D0D0D082D083D0E032FC
:03008B000215D883
:1015D800C0E0C083C082E5AC30E10853ACFD9001A7
:1015E80009E4F0E5AC30E00353ACFED082D083D000
:0215F800E032DF
:0B1710008FAD900109E070FA04F02298
:10158F007F107E0012161AEFB4FF199002477433C2
:10159F00F0A37401F0A37465F0A37450F0A3F0A34B
:0715AF00F012132D020E9B48
:10132D00E4FFFE121678900247E0FDE4FFFE121571
:10133D00B6900248E0FD7F017E001215B69002497D
:10134D00E0FD7F027E001215B690024AE0FD7F039C
:10135D007E001215B690024BE0FD7F047E00121543
:10136D00B690024CE0FD7F057E001215B67D587FCC
:06137D00107E000215B60F
:100E9B00E4FFFE12161A900247EFF0E0FD540F75B7
:100EAB00F0B8A4FF90FEF9E5F0F0A3EFF0EDC45419
:100EBB000F75F0B8A4FFA3E5F0F0A3EFF07F017E70
:100ECB000012161A900248EFF030E0047F01800206
:100EDB00E4FF1217257F027E0012161A900249EFCB
:100EEB00F030E011438F109001117401F0C2C3C2B6
:100EFB00C2C2C1800E538FEFE4900111F0D2C3D266
:100F0B00C2D2C1900249E0C313FF1216C67F037E03
:100F1B000012161A90024AEFF07F047E0012161A86
:100F2B0090024BEFF07F057E0012161A90024CEFE9
:100F3B00F090024AE090010DF090024BE090010E10
:050F4B00F0A3EFF0220D
:1011F700900001E064017065F07B017A00798290CC
:101207000106E024FEFD12126BAD07AC0690010645
:10121700E0FB2480F582E43400F583E0FE74812B43
:10122700F582E43400F583E0FBEBFFE4900106F080
:10123700EDB50729ECB50625900082E0B4351EA36D
:10124700E024FC600F24FE600E24F6600D240D7070
:0D1257000C020A2C020B9802089E12070DD3
:011264002267
:100A2C009002437403F0900086A3E025E09002420C
:100A3C00F0900084E0FEA3E0FDEDFF900245EEF0A7
:100A4C00A3EFF09000027435F0A37403F09002420F
:100A5C00E0900004F090020EEEF0A3EFF090024252
:100A6C00E0C313FF900246E02FFF900245E03400F4
:100A7C00FE90020EE0FCA3E0FDC39FEC9E4003023F
:100A8C000B8EE4900241F0900240F0EC6003020BFC
:100A9C004DED14604C146054147003020B3314703D
:100AAC0003020B4024046003020B4DE4900240F05F
:100ABC00A3E0FB90FEFBE0FEA3E0FF7C007DB81200
:100ACC00051AEFC454F0FA90FEF9E0FEA3E0FF7CA7
:100ADC00007DB812051AEA4FFFEB4F900241F080EF
:100AEC0060E4900240F020A158A38035E4900240CD
:100AFC00F090024FE0FEA3E0FFEF2470FFEE341DF8
:100B0C00FEE434FFFDE434FFFCE47B4BFAF9F8120D
:100B1C0013CD78011205A7900241EFF0E58F30E478
:100B2C0020E04401F0801A90010EE0900240F09019
:100B3C00010D8008E4900240F090010FE09002411A
:100B4C00F0900240E0FF900243E0FE04F074022EAD
:100B5C00F582E43400F583EFF0900241E0FF90025F
:100B6C0043E0FE04F074022EF582E43400F583EFCA
:100B7C00F090020FE004F0700690020EE004F00218
:0C0B8C000A69900242E02403FF0214D327
:100B98009002437403F0900086A3E025E09002429F
:100BA800F0900084E0FEA3E0FDEDFF900245EEF03A
:100BB800A3EFF09000027435F0A37404F0900242A1
:100BC800E0900004F090020EEEF0A3EFF0900242E5
:100BD800E0C313FF900246E02FFF900245E0340087
:100BE800FE90020EE0FCA3E0FDC39FEC9E400302D2
:100BF8000CA5E4900241F0900240F0EC705EED1418
:100C0800601B14602E1460371460422404704D7FFA
:100C180004120F50900241EFF07F05800C7F0612FE
:100C28000F50900241EFF07F07120F50900240EFF3
:100C3800F0802990024074AAF0A374BBF0801D7F55
:100C48000B120DBE900240EFF07F0A8007E490027D
:100C580040F07F0C120DBE900241EFF0900240E090
:100C6800FF900243E0FE04F074022EF582E43400A3
:100C7800F583EFF0900241E0FF900243E0FE04F0BC
:100C880074022EF582E43400F583EFF090020FE051
:100C980004F0700690020EE004F0020BD5900242B8
:070CA800E02403FF0214D356
:10089E00900085E014606D1470030209511470030A
:1008AE000209AD1470030209F324046003020A2B3B
:1008BE0078027C007D017B017A0079827E007F08C0
:1008CE001204DB900007E0FD540F75F0B8A4FF9002
:1008DE00FEF9E5F0F0A3EFF0EDC4540F75F0B8A4F7
:1008EE00FFA3E5F0F0A3EFF09001027408F0D2C779
:1008FE007F057E001215FA439A02900007E09002DF
:10090E0047020A2778027C007D017B017A007982FA
:10091E007E007F081204DB900007E030E0047F01C8
:10092E008002E4FF1217259001027408F0D2C77FEF
:10093E00057E001215FA439A02900007E0900248D5
:10094E00020A2778027C007D017B017A0079827E83
:10095E00007F081204DB900007E0FF30E011438FA8
:10096E00109001117401F0C2C3C2C2C2C1800E53F5
:10097E008FEFE4900111F0D2C3D2C2D2C1EFC313F4
:10098E00FF1216C69001027408F0D2C77F057E00D2
:10099E001215FA439A02900007E0900249807A7885
:1009AE00027C007D017B017A0079827E007F081235
:1009BE0004DB900007E090010DF0900006E090013E
:1009CE000EF09001027408F0D2C77F057E0012155A
:1009DE00FA439A0290010DE090024AF090010EE067
:1009EE0090024B803478027C007D017B017A007985
:1009FE00827E007F081204DB900007E090010FF06A
:100A0E009001027408F0D2C77F057E001215FA43DA
:0E0A1E009A0290010FE090024CF012132D226C
:10070D009002447407F0900088E0900242F090004F
:10071D0084E0FEA3E0FDEDFF900245EEF0A3EFF0C7
:10072D0078027C007D017B017A0079827E007F0654
:10073D001204DB900245E0FFA3E090020ECFF0A380
:10074D00EFF0900242E0C313FF900246E02FFF90BE
:10075D000245E03400FE90020EE0FCA3E0FDC39FD5
:10076D00EC9E4003020878900244E02482F582E476
:10077D003400F583E0900240F0900244E02483F5CC
:10078D0082E43400F583E0900241F0EC600302084E
:10079D0060ED146042146059147003020836147031
:1007AD000302085424046003020860900241E0FD36
:1007BD00540F75F0B8A4FF90FEF9E5F0F0A3EFF03B
:1007CD00ED75F0B8A4FFA3E5F0F0A3EFF0900241B2
:1007DD00E0900247F0807C900241E030E0047F0120
:1007ED008002E4FF121725900241E0900248F0804C
:1007FD0062900241E0FF30E011438F1090011174BF
:10080D0001F0C2C3C2C2C2C1800E538FEFE490018A
:10081D0011F0D2C3D2C2D2C1EFC313FF1216C690CC
:10082D000241E0900249F0802A900241E090010DD2
:10083D00F0900240E0FF90010EF090010DE090026B
:10084D004AF0A3EFF0800C900241E090010FF09080
:10085D00024CF0900244E02402F090020FE004F00C
:10086D00700690020EE004F002074F7D061212652D
:10087D00AD07AC06EC900008F0A3EFF09001027408
:10088D0008F0D2C77F057E001215FA439A020213B3
:01089D002D2D
:061265007B017A00790212
:05126B00900210EDF0FF
:1012700074FFA3F0A3F0120501FF900211E0F0A3A8
:10128000E06FF0E4FD900211E0FEA3E0FF30E01912
:10129000EEC313FEEF13FFEE64A0FEEF6401FF90B8
:1012A0000211EEF0A3EFF0800B900211E0C313F0F7
:1012B000A3E013F00DEDB408CC740129F9E43AFA77
:0E12C000900210E014F070AEA3E0FEA3E0FF79
:0112CE0022FD
:0214D300AC0764
:1014D500AD04121265AB07AA06EAFF74022CF58269
:1014E500E43400F583EFF0AF0374032CF582E434A4
:1014F50000F583EFF0EC2402900102F0D2C77F05DE
:081505007E001215FA439A0260
:01150D0022BB
:0A0DB300420251000042025300000A
:0300A3000212CF77
:0612CF00C0E0C083C082F4
:1012D500900252E004F07006900251E004F0900292
:1012E50051E07004A3E06464700C90011004F09068
:1012F5000251E4F0A3F0900108E07025900254E05B
:1013050004F07006900253E004F0900253E070047C
:10131500A3E06464700B900253F0A3F090010804FD
:01132500F0D7
:07132600D082D083D0E03239
:100FF000021454E493A3F8E493A34003F68001F2AF
:1010000008DFF48029E493A3F85407240CC8C33301
:10101000C4540F4420C8834004F456800146F6DFD0
:10102000E4800B0102040810204080900CAFE47EA5
:10103000019360BCA3FF543F30E509541FFEE493C5
:10104000A360010ECF54C025E060A840B8E493A38C
:10105000FAE493A3F8E493A3C8C582C8CAC583CAB7
:10106000F0A3C8C582C8CAC583CADFE9DEE780BE6F
:010DBD000035
:10040B00E709F608DFFA8046E709F208DFFA803ED3
:10041B0088828C83E709F0A3DFFA8032E309F608C0
:10042B00DFFA8078E309F208DFFA807088828C8328
:10043B00E309F0A3DFFA806489828A83E0A3F608DC
:10044B00DFFA805889828A83E0A3F208DFFA804CB6
:10045B0080D280FA80C680D4806980F2803380108D
:10046B0080A680EA809A80A880DA80E280CA8033F6
:10047B0089828A83ECFAE493A3C8C582C8CCC5836E
:10048B00CCF0A3C8C582C8CCC583CCDFE9DEE7803E
:10049B000D89828A83E493A3F608DFF9ECFAA9F0BD
:1004AB00EDFB2289828A83ECFAE0A3C8C582C8CC13
:1004BB00C583CCF0A3C8C582C8CCC583CCDFEADE2C
:1004CB00E880DB89828A83E493A3F208DFF980CC8E
:1004DB0088F0EF60010E4E60C388F0ED2402B40487
:1004EB000050B9F582EB2402B4040050AF2323452E
:0604FB00822390045B73F4
:10050100BB010689828A83E0225002E722BBFE02F8
:09051100E32289828A83E493222B
:10051A00BC000BBE0029EF8DF084FFADF022E4CCC5
:10052A00F875F008EF2FFFEE33FEEC33FCEE9DEC8E
:10053A00984005FCEE9DFE0FD5F0E9E4CEFD22EDD4
:10054A00F8F5F0EE8420D21CFEADF075F008EF2F1E
:10055A00FFED33FD4007985006D5F0F222C398FD0F
:05056A000FD5F0EA22AC
:10056F00BB0110E58229F582E5833AF583E0F5F0CA
:10057F00A3E0225009E92582F886F008E622BBFEA7
:10058F000AE92582F8E2F5F008E222E5832AF583ED
:08059F00E993F5F0A3E99322B2
:1013CD00C2D5E830E70FB2D5E4C39BFBE49AFAE44B
:1013DD0099F9E498F8EC30E717B2D5121403120618
:1013ED0035E4C39BFBE49AFAE499F9E498F8800399
:1013FD0012063530D50DE4C39FFFE49EFEE49DFD3E
:04140D00E49CFC223D
:1005A700E8600FEFC333FFEE33FEED33FDEC33FCB2
:0305B700D8F12256
:1000A600E508241BF582E43402F583E00508229076
:1000B600021830070390021BE475F0011206C7020E
:1000C60005012000E97F2ED2008018EF540F2490FE
:1000D600D43440D4FF30040BEF24BFB41A005003CD
:1000E6002461FFE50960021509050CE50C7002059F
:1000F6000B30070E900218E475F0011206C7EF02E6
:1001060005E70217107403D2078003E4C207F50857
:100116009002181206DEE4F509F50BF50CE5096008
:10012600077F201200E980F5750AFFC201C200C2EE
:1001360002C203C205C206C2081200B5FF700D3026
:1001460007057F001200FAAF0CAE0B22B4255FC282
:10015600D5C2041200B5FF24D0B40A00501A75F0B7
:100166000A780930D50508B6FF0106C6A426F6208A
:10017600D5047002D20380D924CFB41A00EF5004FC
:10018600C2E5D2040202FBD20180C6D20080C0D2F0
:100196000280BCD2D580BAD20580B47F201200E995
:1001A6002002077401B5090040F11200A6FF1200F3
:1001B600E9020123D208D20680951200A6FB12009E
:1001C600A6FA1200A6F94A4B700679CC7A037BFF91
:1001D60020022EE509602A7E008E827583001205B4
:1001E600BA60060EEE650A70F0C2D5EBC0E0EAC052
:1001F600E0E9C0E0EE120342D0E0F9D0E0FAD0E048
:10020600FB120501FF60AAEBC0E0EAC0E0E9C0E02E
:100216001200E9D0E02401F9D0E03400FAD0E0FB86
:10022600E50A0460DCD50AD980877BFF7A03793E2C
:10023600D202809C791080027908C206C208800822
:10024600D2D5790A8004790AC2D5E50A047002F586
:100256000AE4FAFDFEFF1200A6FC7B082001131239
:1002660000A6FD7B1030000A1200A6FE1200A6FFB3
:100276007B20EC3382D592D55013C3E43000069F21
:10028600FFE49EFEE42001039DFDE49CFCE4CBF824
:10029600C201EC700CCFCECDCCE824F8F870F38018
:1002A60017C3EF33FFEE33FEED33FDEC33FCEB33D8
:1002B600FB994002FB0FD8E9EB300105F8D0E0C40A
:1002C60048B201C0E00AEC4D4E4F78207B0070C268
:1002D600EAB50A0040BCC0E0120344D0F0D0E020EA
:1002E6000104C4C0E0C4B201C0F01200D2D0F0D5FF
:1002F600F0EB0201231206E701C053023A580191BE
:100306004C018D42023E4F02464402464901A64335
:08031600024C55023046023092
:10031E004502304703EC5001952D01992E01BC2B5F
:10032E00019D2301BA2003D52A015548000001B4CE
:10033E003F3F3F00790AA2D5200314300509B910BA
:10034E00020404B9080104A2D520060250010420BB
:10035E0002689202B509005034C0E07F20300319C4
:10036E007F30A20272067205500F12039BC202C2A8
:10037E0006C205C2087F30800F300503E9C0E012C7
:10038E0000E9300503D0E0F9D0E0B509CC3005170F
:10039E007F30B9100C1200E97F583004077F788047
:1003AE0003B908031200E93002057F2D0200E97F30
:1003BE00202008F87F2B2006F322920280CF286E91
:1003CE00756C6C2900D2011200A63001F8C20178BA
:1003DE000930D50108F60201552D50434958120037
:1003EE00A62403B405004001E49003E7931200DA5B
:0D03FE00743A1200DAD20375090402023AC3
:1005BA00BB010CE58229F582E5833AF583E02250F6
:1005CA0006E92582F8E622BBFE06E92582F8E22240
:0D05DA00E58229F582E5833AF583E493225A
:1005E700BB010689828A83F0225002F722BBFE01F3
:0205F700F322ED
:1005F90075F008758200EF2FFFEE33FECD33CDCCB9
:1006090033CCC58233C5829BED9AEC99E58298403B
:100619000CF582EE9BFEED9AFDEC99FC0FD5F0D618
:10062900E4CEFBE4CDFAE4CCF9A88222B800C1B942
:100639000059BA002DEC8BF084CFCECDFCE5F0CB80
:10064900F97818EF2FFFEE33FEED33FDEC33FCEBB9
:1006590033FB10D703994004EB99FB0FD8E5E4F974
:10066900FA227818EF2FFFEE33FEED33FDEC33FC61
:10067900C933C910D7059BE99A4007EC9BFCE99A55
:10068900F90FD8E0E4C9FAE4CCFB2275F010EF2F9A
:10069900FFEE33FEED33FDCC33CCC833C810D7079A
:1006A9009BEC9AE899400AED9BFDEC9AFCE899F8D5
:0E06B9000FD5F0DAE4CDFBE4CCFAE4C8F92268
:1006C700F8E0FBA3A3E0F925F0F0E58215827002BC
:0706D7001583E0FA38F02260
:0906DE00EBF0A3EAF0A3E9F0221D
:1006E700D083D082F8E4937012740193700DA3A3A2
:1006F70093F8740193F5828883E4737402936860B6
:06070700EFA3A3A380DFB5
:00000001FF
