:030000000201F901
:0C01F900787FE4F6D8FD75810902024011
:1004A000D3EF9400EE9400401600000075080B7521
:0F04B00009BED509FDD508FAEF1F70E41E80E1E3
:0104BF00221A
:1005AC00D3EF9400EE9400400A000000EF1F70F0AF
:0405BC001E80ED228E
:1005190043BC807F0A7E001204A053DEFC43DE0C3C
:0A05290053BCDF53A8DF43DE20229D
:1004FE00E4FDFCEF444042BCE5BC30E5FB53BCDF01
:0A050E00AFBDEFADBEFCEDAE04FF83
:0105180022C0
:10053300E4F594F593F592F591F596F595F5B2F505
:0A054300B1F5B4F5B3F5CAF5C9220D
:1004330043BA801205331205197F017E001204A00E
:100443007F017E001205ACE4FF1204FE7F0112035C
:08045300857D037F0702045BB5
:1003DE0043BA8090FEB6E0F090FEEDE4F090FEEAB7
:1003EE007470F0A3F090FEED7411F090FEF27404B0
:1003FE00F0A37452F090FEF0E4F0A37408F090FEB7
:10040E00F97401F0A3742CF0A37401F0A3742CF012
:10041E0090FEB5E04450F090FEFD7480F090FEE04A
:05042E00E04401F02292
:10056600EF24F8600B04700F90FEEDE054FEF022CD
:0805760090FEEDE054EFF022CD
:10057E00EF24F8600B04700F90FEEDE04401F022C2
:08058E0090FEEDE04410F022A4
:10054D0053A23F759850538EFE438E40758BE875C0
:09055D008DFF43884043A81022E1
:10059600E4F5BA759A50438E0475D7E875D6FF43CD
:0605A6008E1043AF01229C
:0D003600E4F5C7F5C5F5C675C380F5C42215
:1004E00075C78075F50C75C5118FC4EEF5C375C65B
:0E04F0005A75C6A57F0A7E001204A0020036CF
:10047E0075C78075F50C75C5108FC4EEF5C3AF0545
:10048E008FC275C65A75C6A57F0A7E001204A002D9
:02049E00003626
:1004C00075C78075F50C75C5018FC4EEF5C375C68B
:1004D0005A75C6A57F0A7E001204A0AFC20200367C
:1000460060F20108011A0123012C0135013E014726
:100056000151015A0164016E01770181018B0194FE
:10006600019E01A801B201BC01C601CF01D901E37D
:1000760001ED01F60200020A0213021D0226022FFA
:1000860002380242024B0254025C0265026E02769C
:10009600027F0287028F0297029F02A702AF02B673
:1000A60002BE02C502CC02D302DA02E102E702EE88
:1000B60002F402FB03010307030D03120318031DD9
:1000C60003230328032D03320337033C034103456F
:1000D600034A034E03520356035A035E0362036642
:1000E600036A036D037103740378037B037E038144
:1000F60003840387038A038D038F03920395039773
:100106000399039C039E03A003A303A503A703A9C6
:1001160003AB03AD03AF03B103B203B403B603B835
:1001260003B903BB03BC03BE03BF03C103C203C4BD
:0601360003C503C603C768
:0E0285009001FEEBF0A3EAF0A3E9F0A3EDF088
:10029300E4900204F0900201E014FF900204E0FEF7
:1002A300C39F505A9001FEE0FBA3E0FAA3E0F97567
:1002B300F002EEA4F58285F0831201C1FF900202E1
:1002C300E0FCA3E0FDC39FEC95F0402AA3E02401EA
:1002D300FFE433FEEF25E0FFEE33FE8F828E8312C1
:1002E30001C1FFC3ED9FEC95F0500B900204E0FFBA
:1002F300A3E4F0A3EFF0900204E004F080979002EF
:0603030005E0FEA3E0FF8F
:0103090022D1
:050385009001FAEFF009
:10038A00E4A3F09001FAE0FF1204FE9001FDE02FD1
:10039A00F09001FCE03EF09001FBE004F0E0C39431
:1003AA000A40E09001FCE0FEA3E0FF7C007D0A1217
:1003BA0001569001FCEEF0A3EFF07B017A01790877
:1003CA009001FCE0FFA3E0900202CFF0A3EFF07DE2
:0403DA00790202851D
:10045B00EF24F8600E04701AED75F0B8A4FF90FE4F
:10046B00F98009ED75F0B8A4FF90FEFBE5F0F0A361
:03047B00EFF0227D
:0300430002030AAB
:10030A00C0E0C083C082C0D075D000C007E59A3073
:10031A00E126539AFD900000E4F0900102E0601893
:10032A00A3E0FF04F074022FF582E43400F583E0C1
:10033A00F59B900102E014F0E59A30E033539AFEFF
:10034A00900001E07021900106E0D394804002E41D
:10035A00F0900106E02482F582E43400F583E59BFF
:10036A00F0900106E004F0900104E4F0A37496F022
:0B037A00D007D0D0D082D083D0E0327A
:0B05C000900000E070FA04F08F9B2216
:10000300900207EBF0A3EAF0A3E9F0900207E0FB0C
:10001300A3E0FAA3E0F912013D6017900207A3E4FD
:1000230075F0011201ABA9F0FA12013DFF1205C0F0
:0300330080D9224F
:10020500020433E493A3F8E493A34003F68001F2D8
:1002150008DFF48029E493A3F85407240CC8C333FA
:10022500C4540F4420C8834004F456800146F6DFC9
:10023500E4800B0102040810204080900046E47E13
:10024500019360BCA3FF543F30E509541FFEE493BE
:10025500A360010ECF54C025E060A840B8E493A385
:10026500FAE493A3F8E493A3C8C582C8CAC583CAB0
:10027500F0A3C8C582C8CAC583CADFE9DEE780BE68
:01013C0000C2
:10013D00BB010689828A83E0225002E722BBFE02C0
:09014D00E32289828A83E49322F3
:10015600BC000BBE0029EF8DF084FFADF022E4CC8D
:10016600F875F008EF2FFFEE33FEEC33FCEE9DEC56
:10017600984005FCEE9DFE0FD5F0E9E4CEFD22ED9C
:10018600F8F5F0EE8420D21CFEADF075F008EF2FE6
:10019600FFED33FD4007985006D5F0F222C398FDD7
:0501A6000FD5F0EA2274
:1001AB00A3F8E0C5F025F0F0E58215827002158307
:0601BB00E0C838F0E82264
:1001C100BB0110E58229F582E5833AF583E0F5F07C
:1001D100A3E0225009E92582F886F008E622BBFE59
:1001E1000AE92582F8E2F5F008E222E5832AF5839F
:0801F100E993F5F0A3E9932264
:00000001FF
