:030000000201F901
:0C01F900787FE4F6D8FD75810902024011
:10053A00D3EF9400EE9400401600000075080B7586
:0F054A0009BED509FDD508FAEF1F70E41E80E148
:01055900227F
:10064700D3EF9400EE9400400A000000EF1F70F013
:040657001E80ED22F2
:1005CE0043BC807F0A7E0012053A53DEFC43DE0CEC
:0A05DE0053BCDF53A8DF43DE2022E8
:10059800E4FDFCEF444042BCE5BC30E5FB53BCDF66
:0A05A800AFBDEFADBEFCEDAE04FFE9
:0105B2002226
:1005B300E4F594F593F592759102F596F595F5B2F8
:0B05C300F5B1F5B4F5B3F5CAF5C92297
:100519003D3D3D3D3D3D3D3D3D3D20636F64652095
:100529007374617274203D3D3D3D3D3D3D3D3D3D12
:0105390000C1
:1004520043BA801205B31205CE120631D2AF7F0124
:100462007E0012053A7F017E00120647E4FF120564
:10047200987F0112030A7D037F071204B17BFF7A82
:0B04820005791912000E1204D480FB53
:1003B90043BA8090FEB6E0F090FEEDE4F090FEEADC
:1003C9007470F0A3F090FEED7411F090FEF27404D5
:1003D900F0A37452F090FEF0E4F0A37408F090FEDC
:1003E900F97401F0A3742CF0A37401F0A3742CF038
:1003F90090FEB5E04450F090FEFD7480F090FEE070
:05040900E04401F022B7
:10060100EF24F8600B04700F90FEEDE054FEF02231
:0806110090FEEDE054EFF02231
:10061900EF24F8600B04700F90FEEDE04401F02226
:0806290090FEEDE04410F02208
:10065B00438E805389F0758ACD758CD4C28DD28C24
:03066B00D2A922EF
:1005E80053A23F759850538EFE438E40758BE87525
:0905F8008DFF43884043A8102246
:10063100E4F5BA759A50438E0475D7E875D6FF4331
:060641008E1043AF012200
:0D066E00E4F5C7F5C5F5C675C380F5C422D7
:10057A0075C78075F50C75C5118FC4EEF5C375C6C0
:0E058A005A75C6A57F0A7E0012053A02066E5B
:1004F70075C78075F50C75C5108FC4EEF5C3AF05CC
:100507008FC275C65A75C6A57F0A7E0012053A02C4
:02051700066E6E
:10055A0075C78075F50C75C5018FC4EEF5C375C6F0
:10056A005A75C6A57F0A7E0012053AAFC202066E08
:1000460060F20108011A0123012C0135013E014726
:100056000151015A0164016E01770181018B0194FE
:10006600019E01A801B201BC01C601CF01D901E37D
:1000760001ED01F60200020A0213021D0226022FFA
:1000860002380242024B0254025C0265026E02769C
:10009600027F0287028F0297029F02A702AF02B673
:1000A60002BE02C502CC02D302DA02E102E702EE88
:1000B60002F402FB03010307030D03120318031DD9
:1000C60003230328032D03320337033C034103456F
:1000D600034A034E03520356035A035E0362036642
:1000E600036A036D037103740378037B037E038144
:1000F60003840387038A038D038F03920395039773
:100106000399039C039E03A003A303A503A703A9C6
:1001160003AB03AD03AF03B103B203B403B603B835
:1001260003B903BB03BC03BE03BF03C103C203C4BD
:0601360003C503C603C768
:0E0285009001FEEBF0A3EAF0A3E9F0A3EDF088
:10029300E4900204F0900201E014FF900204E0FEF7
:1002A300C39F505A9001FEE0FBA3E0FAA3E0F97567
:1002B300F002EEA4F58285F0831201C1FF900202E1
:1002C300E0FCA3E0FDC39FEC95F0402AA3E02401EA
:1002D300FFE433FEEF25E0FFEE33FE8F828E8312C1
:1002E30001C1FFC3ED9FEC95F0500B900204E0FFBA
:1002F300A3E4F0A3EFF0900204E004F080979002EF
:0603030005E0FEA3E0FF8F
:0103090022D1
:05030A009001FAEFF084
:10030F00E4A3F09001FAE0FF1205989001FDE02FB1
:10031F00F09001FCE03EF09001FBE004F0E0C394AC
:10032F000A40E09001FCE0FEA3E0FF7C007D0A1292
:10033F0001569001FCEEF0A3EFF07B017A017908F2
:10034F009001FCE0FFA3E0900202CFF0A3EFF07D5D
:04035F007902028598
:1004B100EF24F8600E04701AED75F0B8A4FF90FEF9
:1004C100F98009ED75F0B8A4FF90FEFBE5F0F0A30B
:0304D100EFF02227
:10048D007265636569766520737563636573732043
:10049D000D0A0072656365697665206572726F720B
:0404AD00200D0A0014
:0300430002036352
:10036300C0E0C083C082C0D0E59A30E108539AFD53
:10037300900000E4F0E59A30E033539AFE900001D8
:10038300E07021900106E0D394804002E4F09001F4
:1003930006E02482F582E43400F583E59BF09001C6
:1003A30006E004F0900104E4F0A37432F0D0D0D05E
:0603B30082D083D0E0328D
:03000B0002040EDE
:10040E00C0E0C083C082C0D0900104E07002A3E0BF
:10041E006029900105E024FFF0900104E034FFF024
:10042E00E07002A3E07014900106E0D39400400B3C
:10043E009000017401F0900106E4F0D0D0D082D08B
:04044E0083D0E03245
:0B067B00900000E070FA04F08F9B225A
:10000E009001FAEBF0A3EAF0A3E9F09001FAE0FB1D
:10001E00A3E0FAA3E0F912013D60179001FAA3E400
:10002E0075F0011201ABA9F0FA12013DFF12067B29
:03003E0080D92244
:1004D400900001E0B4011B900082E0B45814A3E042
:1004E4007BFFB485067A04798D80047A0479A0129E
:0304F400000E22D5
:10020500020452E493A3F8E493A34003F68001F2B9
:1002150008DFF48029E493A3F85407240CC8C333FA
:10022500C4540F4420C8834004F456800146F6DFC9
:10023500E4800B0102040810204080900046E47E13
:10024500019360BCA3FF543F30E509541FFEE493BE
:10025500A360010ECF54C025E060A840B8E493A385
:10026500FAE493A3F8E493A3C8C582C8CAC583CAB0
:10027500F0A3C8C582C8CAC583CADFE9DEE780BE68
:01013C0000C2
:10013D00BB010689828A83E0225002E722BBFE02C0
:09014D00E32289828A83E49322F3
:10015600BC000BBE0029EF8DF084FFADF022E4CC8D
:10016600F875F008EF2FFFEE33FEEC33FCEE9DEC56
:10017600984005FCEE9DFE0FD5F0E9E4CEFD22ED9C
:10018600F8F5F0EE8420D21CFEADF075F008EF2FE6
:10019600FFED33FD4007985006D5F0F222C398FDD7
:0501A6000FD5F0EA2274
:1001AB00A3F8E0C5F025F0F0E58215827002158307
:0601BB00E0C838F0E82264
:1001C100BB0110E58229F582E5833AF583E0F5F07C
:1001D100A3E0225009E92582F886F008E622BBFE59
:1001E1000AE92582F8E2F5F008E222E5832AF5839F
:0801F100E993F5F0A3E9932264
:00000001FF
