:03000000020C18D7
:0C0C1800787FE4F6D8FD758121020C5FA6
:10120E00D3EF9400EE9400401600000075080B75A5
:0F121E0009BED509FDD508FAEF1F70E41E80E167
:01122D00229E
:1012AB0043BC807F0A7E0012120E53DEFC43DE0C21
:0A12BB0053BCDF53A8DF43DE2022FE
:1011CC00E4FDFC53BCF0EF444042BCE5BC30E5FB15
:1011DC0053BCDF53BCBFAFBDEFADBEFCEDAE04FFE7
:0111EC0022E0
:10122E0075940275931C7592027591F0759602E491
:10123E00F595F5B2F5B1F5B4F5B375CA04F5C92255
:1011ED003D3D3D3D3D3D3D3D3D3D20636F646520B5
:1011FD007374617274203D3D3D3D3D3D3D3D3D3D32
:01120D0000E0
:10101E0043BA8012122E1211211212C51212AB12E5
:10102E0013321212DE12131F120006121383120055
:10103E000E121345120FE1D2AF1212F77BFF7A1187
:0A104E0079ED120109120E9E80FBDD
:100FE10043BA8090FEB6E0F090FEEDE4F090FEEAA8
:100FF1007470F0A3F090FEF27404F0A37451F090B9
:10100100FEF0E4F0A37431F090FEB5E04450F090AE
:0D101100FEFD7480F090FEE0E04401F0224E
:05000600D288D2A822FF
:10131F00438E805389F0758ACD758CD4C28DD28C53
:03132F00D2A9221E
:0A138300538EBF53890F43891022D7
:0D000E0043D10275D59175D4FF43D108226E
:10133200759A50438E0475D7E875D6FF438E1043D5
:03134200AF0122D6
:1012C50043BA0475841043844043D12075D3E8752F
:0912D500D2FF43D18043AF102287
:0D135500E4F5C7F5C5F5C675C380F5C422E3
:10128D0075C78075F50C75C5118FC4EEF5C375C6A0
:0E129D005A75C6A57F0A7E0012120E02135566
:10001E0075C78075F50C75C5108FC4EEF5C3AF05A9
:10002E008FC275C65A75C6A57F0A7E0012120E02C1
:02003E00135558
:10124E0075C78075F50C75C5018FC4EEF5C375C6EF
:10125E005A75C6A57F0A7E0012120EAFC202135532
:1012F700E4FFFE12128D7DAAE4FFFE12001EE4FF3A
:04130700FE02124E82
:1008E60060F2010C011A0123012C0135013E01477A
:1008F6000151015A0164016E01770181018B019456
:10090600019E01A801B201BC01C601CF01D901E3D4
:1009160001ED01F60200020A0213021D0226022F51
:1009260002380242024B0254025C0265026E0276F3
:10093600027F0287028F0297029F02A702AF02B6CA
:1009460002BE02C502CC02D302DA02E102E702EEDF
:1009560002F402FB03010307030D03120318031D30
:1009660003230328032D03320337033C03410345C6
:10097600034A034E03520356035A035E0362036699
:10098600036A036D037103740378037B037E03819B
:1009960003840387038A038D038F039203950397CA
:1009A6000399039C039E03A003A303A503A703A91E
:1009B60003AB03AD03AF03B103B203B403B603B88D
:1009C60003B903BB03BC03BE03BF03C103C203C415
:0609D60003C503C603C7C0
:0E0D2D00900202EBF0A3EAF0A3E9F0A3EDF0D0
:100D3B00E4900208F0900205E014FF900208E0FE38
:100D4B00C39F505A900202E0FBA3E0FAA3E0F975AF
:100D5B00F002EEA4F58285F083120487FF90020661
:100D6B00E0FCA3E0FDC39FEC95F0402AA3E0240137
:100D7B00FFE433FEEF25E0FFEE33FE8F828E83120E
:100D8B000487FFC3ED9FEC95F0500B900208E0FF3A
:100D9B00A3E4F0A3EFF0900208E004F08097900238
:060DAB0009E0FEA3E0FFD9
:010DB100221F
:050F05009001FEEFF079
:100F0A00E4A3F09001FEE0FF1211CC900201E02F61
:100F1A00F0900200E03EF09001FFE004F0E0C3949C
:100F2A000A40E0900200E0FEA3E0FF7C007D0A1286
:100F3A00041C900200EEF0A3EFF07B017A01790C19
:100F4A00900200E0FFA3E0900206CFF0A3EFF07D4D
:040F5A0079020D2DDE
:1013450090023174FFF0A374DCF0E4900230F022D7
:030003000210F0F8
:1010F000C0E0C083C082C0D075D000C0069002316D
:10110000E0FEA3E0F58BEEF58D9002307401F0D295
:101110008ED2AB43AF20D006D0D0D082D083D0E0E7
:01112000329C
:03001B000211804F
:10118000C0E0C083C082C0D0900230E0B4010CE463
:10119000F0C2C4758BF7758DFF8006D2C4C28EC2B3
:0A11A000ABD0D0D082D083D0E03273
:10130B00EF75F04BA42490FEE5F034E2900231F03F
:04131B00A3CEF0224B
:0A138D00EFB40103D2A122C2A12295
:10126E00546865202076616C7565206F6620616418
:0F127E00635F76616C206973202564200D0A0080
:050AA9009001FEEFF0DA
:100AAE00E4A3F0A3F0A3F09001FEE0FF1211CC90AE
:100ABE000200E02FF09001FFE03EF0900201E00412
:100ACE00F0E0C3940A40E09001FFE0FEA3E0FF7C5B
:100ADE00007D0A12041C9001FFEEF0A3EFF07BFFE5
:100AEE007A12796E900205EEF0A3EFF0120109C3AF
:100AFE00900200E094509001FFE0940550077405B9
:100B0E00F0A37450F0900200E024B0FF9001FFE0DB
:100B1E0034FAFE7C007D2412041CAB05AA04C3EB40
:100B2E009412EA940040067A007B018003E4FAFBFB
:100B3E00900200E024B0FF9001FFE034FAFE7C004A
:100B4E007D2412041CEF2BFBEE3AFAD3EB941EEA33
:0C0B5E00940040047A007B1EAE02AF033E
:010B6A002268
:0409DC0041010801CC
:03004300020DB2F9
:100DB200C0E0C083C082C0D075D000C007E59A30C1
:100DC200E12D539AFD900000E4F0900102E0601AD8
:100DD200A3E0FF04F074022FF582E43400F583E00F
:100DE200F59B900102E014F08005900103E4F0E528
:100DF2009A30E033539AFE900001E0702190010690
:100E0200E0D394804002E4F0900106E02482F5826F
:100E1200E43400F583E59BF0900106E004F09001D4
:100E220004E4F0A37432F0D007D0D0D082D083D0C3
:020E3200E032AC
:03000B00020FA23F
:100FA200C0E0C083C082C0D0900104E07002A3E020
:100FB2006024900105E024FFF0900104E034FFF08A
:100FC200E07002A3E0700F900106E0D394004006A7
:0F0FD2009000017401F0D0D0D082D083D0E032F3
:0B136200900000E070FA04F08F9B2266
:10105800900233EBF0A3EAF0A3E9F0900233E0FB4F
:10106800A3E0FAA3E0F91204036017900233A3E4A3
:1010780075F001120471A9F0FA120403FF12136249
:0310880080D922EA
:1012DE00E4900000F0A3F0900082F0900102F0F094
:0912EE00A3F0A3F0A3F0A3F02289
:030093000211AAAD
:1011AA00C0E0C083C082E58430E1085384FD900129
:1011BA0008E4F0E58430E0035384FED082D083D083
:0211CA00E03211
:0B136D00900108E070FA04F08F852268
:10108B00900236EBF0A3EAF0A3E9F0900236E0FB16
:10109B00A3E0FAA3E0F91204036017900236A3E46D
:1010AB0075F001120471A9F0FA120403FF12136D0B
:0310BB0080D922B7
:0B1378008F85900108E070FA04F0225D
:101121007F107E0012124EEFB4FF2290022A746FDC
:10113100F0A37401F0A37465F0A37450F0A3F0A3BD
:10114100F01200467D587F107E0002001E1209E554
:01115100227B
:10004600E4FFFE12128D90022AE0FDE4FFFE12008C
:100056001E90022BE0FD7F017E0012001E90022CF6
:10006600E0FD7F027E0012001E90022DE0FD7F0360
:100076007E0012001E90022EE0FD7F047E0012001C
:0D0086001E90022FE0FD7F057E0002001E8F
:1009E500E4FFFE12124E90022AEFF0E0FD131354BD
:1009F5000775F0B8A4FF90FEF9E5F0F0A3EFF0ED70
:100A0500C413540775F0B8A4FFA3E5F0F0A3EFF005
:100A150090022AE0FF90FEED30E006E04401F08010
:100A250004E054FEF0EF90FEED30E106E04410F0F6
:100A35008004E054EFF07F017E0012124E90022BED
:100A4500EFF030E0047F018002E4FF12138D7F0296
:100A55007E0012124E90022CEFF030E004D2A880F6
:100A650002C2A890022CE0C313FF12130B7F037E72
:100A75000012124E90022DEFF07F047E0012124EEE
:100A850090022EEFF07F057E0012124E90022FEF9E
:100A9500F090022DE0900109F090022EE090010AFD
:040AA500F0EFF0225C
:100E9E00900001E06401705EF07B017A007982902F
:100EAE000106E024FEFD120E3AAD07AC06900106D7
:100EBE00E0FB2480F582E43400F583E0FE74812BA0
:100ECE00F582E43400F583E0FBEBFFE4900106F0DD
:100EDE00EDB50722ECB5061E900082E0B43517A3DF
:100EEE00E024FC600B24FE600A240370090207A9AB
:060EFE00020B6B12062539
:010F040022CA
:1007A900E49001FEF0900085E01470030208401403
:1007B90070030208601470030208B724036003027F
:1007C90008E5900082E0900002F0900083E090003C
:1007D90003F0A37402F09001FEE0FB90FEF9E0FE45
:1007E900A3E0FF7C007DB812041CEF7802C333CE6E
:1007F90033CED8F94B9001FEF0E0FB90FEFBE0FE12
:10080900A3E0FF7C007DB812041CEF7805C333CE4A
:1008190033CED8F94B9001FEF090FEEDE030E007C1
:100829009001FEE04401F090FEEDE030E46F9001AC
:10083900FEE04402F08066900082E0900002F090B1
:100849000083E0900003F0A37402F030A807900140
:10085900FEE04401F08046900082E0900002F090B2
:100869000083E0900003F0A37402F0900231E0FEEF
:10087900A3E0FFEF2470FFEE341DFEE434FFFDE436
:1008890034FFFCE47B4BFAF9F8120F5E780112048D
:10089900BF9001FEEFF030A804E04401F0E49000BD
:1008A90005F09001FEE0900006F07F05802B900096
:1008B90082E0900002F0900083E0900003F0A374BE
:1008C90004F090010AE0900005F0A3F0E4A3F09091
:0C08D900010BE0900008F07F071210BE39
:0108E50022F0
:100B6B00900085E024FE604A146067240360030252
:100B7B000C17900082E0900002F0900083E0900050
:100B8B0003F0A37404F07F06120F05900085EFF0BD
:100B9B007F05120F05900086EFF07F08120F05906E
:100BAB000087EFF07F07120F05900088EFF07F07AB
:100BBB008057900082E0900002F0900083E090005C
:100BCB0003F0A37402F0A374AAF0A374BBF07F0527
:100BDB008037900082E0900002F0900083E090005C
:100BEB0003F0A37404F07F0B120AA9900005EFF039
:100BFB007F0A120AA9900006EFF0E4A3F07F0C1213
:0D0C0B000AA9900008EFF07F051210BE222C
:10062500900085E01470030206DD14700302073F95
:10063500240260030207A8900082E0900002F09077
:100645000083E0900003F0900084E0900004F090B7
:100655000085E0900005F0900086E0900006F0909F
:100665000087E0900007F0900088E0900008F09087
:100675000089E0900009F0900007E0FF90FEED3062
:10068500E006E04401F08004E054FEF0EF90FEED5A
:1006950030E106E04410F08004E054EFF0900007EC
:1006A500E0FD1313540775F0B8A4FF90FEF9E5F0CB
:1006B500F0A3EFF0EDC413540775F0B8A4FFA3E55C
:1006C500F0F0A3EFF09001027408F0439A02900055
:1006D50007E090022A0207A4900082E0900002F051
:1006E500900083E0900003F0900084E0900004F017
:1006F500900085E0900005F0900086E0900006F0FF
:10070500900087E0900007F0900088E0900008F0E6
:10071500900089E0900009F0900007E030E0047F48
:10072500018002E4FF12138D9001027408F0439AD0
:1007350002900007E090022B8065900082E0900017
:1007450002F0900083E0900003F0900084E09000B8
:1007550004F0900085E0900005F0900086E09000A0
:1007650006F0900087E0900007F0900088E0900088
:1007750008F0900089E0900009F0900007E0FF3054
:10078500E004D2A88002C2A8EFC313FF12130B9096
:1007950001027408F0439A02900007E090022CF0E1
:0407A50012004622D6
:100CA400900085E024FD6003020D2C900082E0900A
:100CB4000002F0900083E0900003F0900084E09044
:100CC4000004F0900085E0900005F0900086E0902C
:100CD4000006F0900087E0900007F090008BE09011
:100CE4000109F090008AE090010AF090008DE090F4
:100CF400010BF07D06120E34AD07AC06EC90000833
:100D0400F0A3EFF09001027408F0439A02900109F5
:100D1400E090022DF090010AE090022EF090010B79
:080D2400E090022FF0120046DE
:010D2C0022A4
:060E34007B017A00790247
:050E3A009001FFEDF046
:100E3F0074FFA3F0A3F0120403FF900200E0F0A3ED
:100E4F00E06FF0E4FD900200E0FEA3E0FF30E01958
:100E5F00EEC313FEEF13FFEE64A0FEEF6401FF90ED
:100E6F000200EEF0A3EFF0800B900200E0C313F04E
:100E7F00A3E013F00DEDB408CC740129F9E43AFAAC
:0E0E8F009001FFE014F070AEA3E0FEA3E0FFC0
:010E9D002232
:0210BE00AC077D
:1010C000AD04120E34AB07AA06EAFF74022CF582B7
:1010D000E43400F583EFF0AF0374032CF582E434BD
:0F10E00000F583EFF0EC2402900102F0439A0236
:0110EF0022DE
:0409E0004102390196
:03009B00021152FD
:08115200C0E0C083C082C0D0E0
:10115A00900239E07008D2C3D2C2D2C104F0900220
:0D116A0039E0B40108C2C3C2C2C2C1E4F042
:09117700D0D0D082D083D0E03248
:100C240002101EE493A3F8E493A34003F68001F2B8
:100C340008DFF48029E493A3F85407240CC8C333D1
:100C4400C4540F4420C8834004F456800146F6DFA0
:100C5400E4800B01020408102040809008E6E47E42
:100C6400019360BCA3FF543F30E509541FFEE49395
:100C7400A360010ECF54C025E060A840B8E493A35C
:100C8400FAE493A3F8E493A3C8C582C8CAC583CA87
:100C9400F0A3C8C582C8CAC583CADFE9DEE780BE3F
:0109E4000012
:10040300BB010689828A83E0225002E722BBFE02F7
:09041300E32289828A83E493222A
:10041C00BC000BBE0029EF8DF084FFADF022E4CCC4
:10042C00F875F008EF2FFFEE33FEEC33FCEE9DEC8D
:10043C00984005FCEE9DFE0FD5F0E9E4CEFD22EDD3
:10044C00F8F5F0EE8420D21CFEADF075F008EF2F1D
:10045C00FFED33FD4007985006D5F0F222C398FD0E
:05046C000FD5F0EA22AB
:10047100A3F8E0C5F025F0F0E5821582700215833E
:06048100E0C838F0E8229B
:10048700BB0110E58229F582E5833AF583E0F5F0B3
:10049700A3E0225009E92582F886F008E622BBFE90
:1004A7000AE92582F8E2F5F008E222E5832AF583D6
:0804B700E993F5F0A3E993229B
:100F5E00C2D5E830E70FB2D5E4C39BFBE49AFAE4BE
:100F6E0099F9E498F8EC30E717B2D5120F94120500
:100F7E004DE4C39BFBE49AFAE499F9E498F88003F4
:100F8E0012054D30D50DE4C39FFFE49EFEE49DFD9A
:040F9E00E49CFC22B1
:1004BF00E8600FEFC333FFEE33FEED33FDEC33FC9B
:0304CF00D8F1223F
:10009E00E5082405F582E43402F583E00508229094
:1000AE000202300703900205E475F0011205DF022B
:1000BE0004032000E97F2ED2008018EF540F249005
:1000CE00D43440D4FF30040BEF24BFB41A005003D5
:1000DE002461FFE50960021509050CE50C700205A7
:1000EE000B30070E900202E475F0011205DFEF02ED
:1000FE0004FF0213787403D2078003E4C207F508E5
:10010E009002021205F6E4F509F50BF50CE509600F
:10011E00077F201200E180F5750AFFC201C200C2FE
:10012E0002C203C205C206C2081200ADFF700D3036
:10013E0007057F001200F2AF0CAE0B22B4255FC292
:10014E00D5C2041200ADFF24D0B40A00501A75F0C7
:10015E000A780930D50508B6FF0106C6A426F62092
:10016E00D5047002D20380D924CFB41A00EF500404
:10017E00C2E5D2040202F3D20180C6D20080C0D200
:10018E000280BCD2D580BAD20580B47F201200E1A5
:10019E002002077401B5090040F112009EFF120003
:1001AE00E102011BD208D206809512009EFB1200BE
:1001BE009EFA12009EF94A4B700679C47A037BFFB1
:1001CE0020022EE509602A7E008E827583001204BD
:1001DE00D260060EEE650A70F0C2D5EBC0E0EAC042
:1001EE00E0E9C0E0EE12033AD0E0F9D0E0FAD0E058
:1001FE00FB120403FF60AAEBC0E0EAC0E0E9C0E036
:10020E001200E1D0E02401F9D0E03400FAD0E0FB96
:10021E00E50A0460DCD50AD980877BFF7A0379363C
:10022E00D202809C791080027908C206C20880082A
:10023E00D2D5790A8004790AC2D5E50A047002F58E
:10024E000AE4FAFDFEFF12009EFC7B082001131249
:10025E00009EFD7B1030000A12009EFE12009EFFD3
:10026E007B20EC3382D592D55013C3E43000069F29
:10027E00FFE49EFEE42001039DFDE49CFCE4CBF82C
:10028E00C201EC700CCFCECDCCE824F8F870F38020
:10029E0017C3EF33FFEE33FEED33FDEC33FCEB33E0
:1002AE00FB994002FB0FD8E9EB300105F8D0E0C412
:1002BE0048B201C0E00AEC4D4E4F78207B0070C270
:1002CE00EAB50A0040BCC0E012033CD0F0D0E020FA
:1002DE000104C4C0E0C4B201C0F01200CAD0F0D50F
:1002EE00F0EB02011B1205FF01B8530232580189CF
:1002FE004C01854202364F023E44023E49019E4366
:08030E000244550228460228B2
:100316004502284703E450018D2D01912E01B42B8F
:1003260001952301B22003CD2A014D48000001ACFE
:100336003F3F3F00790AA2D5200314300509B910C2
:10034600020404B9080104A2D520060250010420C3
:1003560002689202B509005034C0E07F20300319CC
:100366007F30A20272067205500F120393C202C2B8
:1003760006C205C2087F30800F300503E9C0E012CF
:1003860000E1300503D0E0F9D0E0B509CC3005171F
:100396007F30B9100C1200E17F583004077F788057
:1003A60003B908031200E13002057F2D0200E17F48
:1003B600202008F87F2B2006F322920280CF286E99
:1003C600756C6C2900D20112009E3001F8C20178CA
:1003D6000930D50108F602014D2D50434958120047
:1003E6009E2403B405004001E49003DF931200D27B
:0D03F600743A1200D2D203750904020232DB
:1004D200BB010CE58229F582E5833AF583E02250DF
:1004E20006E92582F8E622BBFE06E92582F8E22229
:0D04F200E58229F582E5833AF583E4932243
:1004FF00BB010689828A83F0225002F722BBFE01DC
:02050F00F322D5
:1005110075F008758200EF2FFFEE33FECD33CDCCA1
:1005210033CCC58233C5829BED9AEC99E582984024
:100531000CF582EE9BFEED9AFDEC99FC0FD5F0D601
:10054100E4CEFBE4CDFAE4CCF9A88222B800C1B92B
:100551000059BA002DEC8BF084CFCECDFCE5F0CB69
:10056100F97818EF2FFFEE33FEED33FDEC33FCEBA2
:1005710033FB10D703994004EB99FB0FD8E5E4F95D
:10058100FA227818EF2FFFEE33FEED33FDEC33FC4A
:10059100C933C910D7059BE99A4007EC9BFCE99A3E
:1005A100F90FD8E0E4C9FAE4CCFB2275F010EF2F83
:1005B100FFEE33FEED33FDCC33CCC833C810D70783
:1005C1009BEC9AE899400AED9BFDEC9AFCE899F8BE
:0E05D1000FD5F0DAE4CDFBE4CCFAE4C8F92251
:1005DF00F8E0FBA3A3E0F925F0F0E58215827002A5
:0705EF001583E0FA38F02249
:0905F600EBF0A3EAF0A3E9F02206
:1005FF00D083D082F8E4937012740193700DA3A38B
:10060F0093F8740193F5828883E47374029368609E
:06061F00EFA3A3A380DF9E
:00000001FF
