:03000000020B5A96
:0C0B5A00787FE4F6D8FD758121020BA124
:10101F00D3EF9400EE9400401600000075080B7596
:0F102F0009BED509FDD508FAEF1F70E41E80E158
:01103E00228F
:1010FA0043BC807F0A7E0012101F53DEFC43DE0CC5
:0A110A0053BCDF53A8DF43DE2022B0
:100FDD00E4FDFC53BCF0EF444042BCE5BC30E5FB06
:100FED0053BCDF53BCBFAFBDEFADBEFCEDAE04FFD8
:010FFD0022D1
:10103F0075940275931C7592027591F0759602E482
:10104F00F595F5B2F5B1F5B4F5B375CA04F5C92246
:100FFE003D3D3D3D3D3D3D3D3D3D20636F646520A6
:10100E007374617274203D3D3D3D3D3D3D3D3D3D22
:01101E0000D1
:100F1E0043BA8012103F1211141210FA12118112DC
:100F2E00112D12116E1200061211C512119412100B
:100F3E00DC120EE1D2AF1211467BFF7A0F79FE1250
:070F4E000109120D5A80FB9E
:100EE10043BA8090FEB6E0F090FEEDE4F090FEEAA9
:100EF1007470F0A3F090FEF27404F0A37451F090BA
:100F0100FEF0E4F0A37431F090FEB5E04450F090AF
:0D0F1100FEFD7480F090FEE0E04401F0224F
:05000600D288D2A822FF
:10116E00438E805389F0758ACD758CD4C28DD28C06
:03117E00D2A922D1
:0A11C500538EBF53890F4389102297
:1011940053D1FDE4F5D575D4DC43D10843AF202207
:10118100759A50438E0475D7E875D6FF438E104388
:03119100AF012289
:1011140043BA0475841043844043D12075D3E875E1
:09112400D2FF43D18043AF102239
:0D000E00E4F5C7F5C5F5C675C380F5C4223D
:1010BE0075C78075F50C75C5118FC4EEF5C375C671
:0E10CE005A75C6A57F0A7E0012101F02000E82
:10001E0075C78075F50C75C5108FC4EEF5C3AF05A9
:10002E008FC275C65A75C6A57F0A7E0012101F02B2
:02003E00000EB2
:10105F0075C78075F50C75C5018FC4EEF5C375C6E0
:10106F005A75C6A57F0A7E0012101FAFC202000E6E
:10114600E4FFFE1210BE7DAAE4FFFE12001EE4FFBD
:04115600FE02105F26
:1008AD0060F20109011A0123012C0135013E0147B6
:1008BD000151015A0164016E01770181018B01948F
:1008CD00019E01A801B201BC01C601CF01D901E30E
:1008DD0001ED01F60200020A0213021D0226022F8B
:1008ED0002380242024B0254025C0265026E02762D
:1008FD00027F0287028F0297029F02A702AF02B604
:10090D0002BE02C502CC02D302DA02E102E702EE18
:10091D0002F402FB03010307030D03120318031D69
:10092D0003230328032D03320337033C03410345FF
:10093D00034A034E03520356035A035E03620366D2
:10094D00036A036D037103740378037B037E0381D4
:10095D0003840387038A038D038F03920395039703
:10096D000399039C039E03A003A303A503A703A957
:10097D0003AB03AD03AF03B103B203B403B603B8C6
:10098D0003B903BB03BC03BE03BF03C103C203C44E
:06099D0003C503C603C7F9
:0E0BE600900201EBF0A3EAF0A3E9F0A3EDF01A
:100BF400E4900207F0900204E014FF900207E0FE84
:100C0400C39F505A900201E0FBA3E0FAA3E0F975F8
:100C1400F002EEA4F58285F083120487FF900205AA
:100C2400E0FCA3E0FDC39FEC95F0402AA3E024017F
:100C3400FFE433FEEF25E0FFEE33FE8F828E831256
:100C44000487FFC3ED9FEC95F0500B900207E0FF83
:100C5400A3E4F0A3EFF0900207E004F08097900281
:060C640008E0FEA3E0FF22
:010C6A002267
:050DC1009001FDEFF0C0
:100DC600E4A3F09001FDE0FF120FDD900200E02F9A
:100DD600F09001FFE03EF09001FEE004F0E0C394E5
:100DE6000A40E09001FFE0FEA3E0FF7C007D0A12CE
:100DF600041C9001FFEEF0A3EFF07B017A01790964
:100E06009001FFE0FFA3E0900205CFF0A3EFF07D95
:040E160079020BE66C
:1010DC0090022C7401F0A3F0A3F0A3F0A374FFF022
:0E10EC00A374DCF0E4900229F0A3F0A3F0223C
:03000300020E1AD0
:100E1A00C0E0C083C082C0D075D000C00690022F47
:100E2A007401F090022EF090022DF090022CF090B6
:100E3A000230E0FEA3E0F58BEEF58D9002297401F5
:100E4A00F0A3740AF0D28ED2ABD006D0D0D082D022
:040E5A0083D0E0322F
:03001B000200469A
:10004600C0E0C083C082C0D0900229E0B4011AE4A7
:10005600F090022FF090022EF090022DF090022CDC
:10006600F0758BF7758DFF801690022F7401F09056
:10007600022EF090022DF090022CF0C28EC2ABD070
:08008600D0D082D083D0E0321B
:10115A00EF75F04BA42490FEE5F034E2900230F0F3
:04116A00A3CEF022FE
:0A11CF00EFB40103D2A122C2A12255
:10109F00546865202076616C7565206F66206164E9
:0F10AF00635F76616C206973202564200D0A0051
:050A98009001FDEFF0EC
:100A9D00E4A3F0A3F0A3F09001FDE0FF120FDD90B1
:100AAD0001FFE02FF09001FEE03EF0900200E00427
:100ABD00F0E0C3940A40E09001FEE0FEA3E0FF7C6D
:100ACD00007D0A12041C9001FEEEF0A3EFF07BFFF7
:100ADD007A10799F900204EEF0A3EFF0120109C392
:100AED009001FFE094509001FEE0940550077405CD
:100AFD00F0A37450F09001FFE024B0FF9001FEE0F0
:100B0D0034FAFE7C007D2412041CAB05AA04C3EB51
:100B1D009412EA940040067A007B018003E4FAFB0C
:100B2D009001FFE024B0FF9001FEE034FAFE7C005E
:100B3D007D2412041CEF2BFBEE3AFAD3EB941EEA44
:0C0B4D00940040047A007B1EAE02AF034F
:010B59002279
:0409A3004101080105
:03004300020C6B41
:100C6B00C0E0C083C082C0D075D000C007E59A3009
:100C7B00E12D539AFD900000E4F0900102E0601A20
:100C8B00A3E0FF04F074022FF582E43400F583E057
:100C9B00F59B900102E014F08005900103E4F0E570
:100CAB009A30E033539AFE900001E07021900106D8
:100CBB00E0D394804002E4F0900106E02482F582B8
:100CCB00E43400F583E59BF0900106E004F090011D
:100CDB0004E4F0A37432F0D007D0D0D082D083D00C
:020CEB00E032F5
:03000B00020EA240
:100EA200C0E0C083C082C0D0900104E07002A3E021
:100EB2006024900105E024FFF0900104E034FFF08B
:100EC200E07002A3E0700F900106E0D394004006A8
:0F0ED2009000017401F0D0D0D082D083D0E032F4
:0B11A400900000E070FA04F08F9B2226
:100F5500900232EBF0A3EAF0A3E9F0900232E0FB55
:100F6500A3E0FAA3E0F91204036017900232A3E4A8
:100F750075F001120471A9F0FA120403FF1211A40D
:030F850080D922EE
:10112D00E4900000F0A3F0900082F0900102F0F046
:09113D00A3F0A3F0A3F0A3F0223B
:03009300020FBB9E
:100FBB00C0E0C083C082E58430E1085384FD90011A
:100FCB0008E4F0E58430E0035384FED082D083D074
:020FDB00E03202
:0B11AF00900108E070FA04F08F852228
:100F8800900235EBF0A3EAF0A3E9F0900235E0FB1C
:100F9800A3E0FAA3E0F91204036017900235A3E472
:100FA80075F001120471A9F0FA120403FF1211AFCF
:030FB80080D922BB
:0B11BA008F85900108E070FA04F0221D
:100D5A00900001E06401705EF07B017A0079829074
:100D6A000106E024FEFD120CF6AD07AC0690010662
:100D7A00E0FB2480F582E43400F583E0FE74812BE5
:100D8A00F582E43400F583E0FBEBFFE4900106F022
:100D9A00EDB50722ECB5061E900082E0B43517A324
:100DAA00E024FC600B24FE600A2403700902077E1B
:060DBA000209A812062543
:010DC0002210
:10077E00E49001FDF0900085E014700302080F1460
:10078E00700302082F240260030208AC900082E07E
:10079E00900002F0900083E0900003F0A37402F04A
:1007AE009001FDE0FB90FEF9E0FEA3E0FF7C007DF2
:1007BE00B812041CEF7802C333CE33CED8F94B9067
:1007CE0001FDF0E0FB90FEFBE0FEA3E0FF7C007D70
:1007DE00B812041CEF7805C333CE33CED8F94B9044
:1007EE0001FDF090FEEDE030E0079001FDE04401E8
:1007FE00F090FEEDE030E4769001FDE04402F080F2
:10080E006D900082E0900002F0900083E090000373
:10081E00F0A37402F030A8079001FDE04401F080CF
:10082E004D900082E0900002F0900083E090000373
:10083E00F0A37402F0900230E0FEA3E0FFEF24700C
:10084E00FFEE341DFEE434FFFDE434FFFCE47B4B8D
:10085E00FAF9F8120E5E78011204BF9001FDEFF066
:10086E0090022BE030E0079001FDE04401F0E490AF
:10087E000005F09001FDE0900006120CED9001FBDA
:10088E00EEF0A3EFF09001FBE0FCA3E0FDEC900096
:0E089E0007F0A3EDF09001027407F0439A02F8
:0108AC002229
:1009A800900085E024FE6049147003020A3624038F
:1009B8006003020A97900082E0900002F0900083A2
:1009C800E0900003F0A37404F07F06120DC19000BC
:1009D80085EFF07F05120DC1900086EFF07F0812B9
:1009E8000DC1900087EFF07F07120DC1900088803D
:1009F80070900082E0900002F0900083E090000385
:100A0800F0A37402F0A374AAF0A374BB120CED90C7
:100A180001FBEEF0A3EFF09001FBE0FCA3E0FDEC9E
:100A2800900007F0A3EDF09001027407805D90003C
:100A380082E0900002F0900083E0900003F0A3743D
:100A480004F07F0B120A98900005EFF07F0A120A53
:100A580098900006EFF0E4A3F07F0C120A9890003B
:100A680008EFF07B017A0079027D07120CF69001FD
:100A7800FBEEF0A3EFF09001FBE0FCA3E0FDEC90AF
:0F0A88000009F0A3EDF09001027409F0439A0207
:010A9700223C
:10062500900085E01470030206CD14700302071FC5
:100635002402600302077D900082E0900002F090A2
:100645000083E0900003F0900084E0900004F090B7
:100655000085E0900005F0900086E0900006F0909F
:100665000087E0900007F0900088E0900008F09087
:100675000089E0900009F0900007E0FF90FEED3062
:10068500E006E04401F08004E054FEF0EF90FEED5A
:1006950030E106E04410F08004E054EFF0900007EC
:1006A500E0FD1313540775F0B8A4FF90FEF9E5F0CB
:1006B500F0A3EFF0EDC413540775F0B8A4FFA3E55C
:1006C500F0F0A3EFF0020774900082E0900002F0D2
:1006D500900083E0900003F0900084E0900004F027
:1006E500900085E0900005F0900086E0900006F00F
:1006F500900087E0900007F0900088E0900008F0F7
:10070500900089E0900009F0900007E030E0047F58
:10071500018002E4FF1211CF8055900082E0900025
:1007250002F0900083E0900003F0900084E09000D8
:1007350004F0900085E0900005F0900086E09000C0
:1007450006F0900087E0900007F0900088E09000A8
:1007550008F0900089E0900009F0900007E0FF3074
:10076500E004D2A88002C2A8EFC313FF12115A9069
:0907750001027408F0439A02220B
:090CED00F07B017A0079027D051B
:050CF6009001FEEDF08D
:100CFB0074FFA3F0A3F0120403FF9001FFE0F0A335
:100D0B00E06FF0E4FD9001FFE0FEA3E0FF30E0199F
:100D1B00EEC313FEEF13FFEE64A0FEEF6401FF9032
:100D2B0001FFEEF0A3EFF0800B9001FFE0C313F097
:100D3B00A3E013F00DEDB408CC740129F9E43AFAF1
:0E0D4B009001FEE014F070AEA3E0FEA3E0FF06
:010D59002277
:03009B0002107FD1
:10107F00C0E0C083C08290022AE014F0E07004A3A5
:10108F00F0800690022B7401F0D082D083D0E03232
:100B6600020F1EE493A3F8E493A34003F68001F278
:100B760008DFF48029E493A3F85407240CC8C33390
:100B8600C4540F4420C8834004F456800146F6DF5F
:100B9600E4800B01020408102040809008ADE47E3A
:100BA600019360BCA3FF543F30E509541FFEE49354
:100BB600A360010ECF54C025E060A840B8E493A31B
:100BC600FAE493A3F8E493A3C8C582C8CAC583CA46
:100BD600F0A3C8C582C8CAC583CADFE9DEE780BEFE
:0109A700004F
:10040300BB010689828A83E0225002E722BBFE02F7
:09041300E32289828A83E493222A
:10041C00BC000BBE0029EF8DF084FFADF022E4CCC4
:10042C00F875F008EF2FFFEE33FEEC33FCEE9DEC8D
:10043C00984005FCEE9DFE0FD5F0E9E4CEFD22EDD3
:10044C00F8F5F0EE8420D21CFEADF075F008EF2F1D
:10045C00FFED33FD4007985006D5F0F222C398FD0E
:05046C000FD5F0EA22AB
:10047100A3F8E0C5F025F0F0E5821582700215833E
:06048100E0C838F0E8229B
:10048700BB0110E58229F582E5833AF583E0F5F0B3
:10049700A3E0225009E92582F886F008E622BBFE90
:1004A7000AE92582F8E2F5F008E222E5832AF583D6
:0804B700E993F5F0A3E993229B
:100E5E00C2D5E830E70FB2D5E4C39BFBE49AFAE4BF
:100E6E0099F9E498F8EC30E717B2D5120E94120502
:100E7E004DE4C39BFBE49AFAE499F9E498F88003F5
:100E8E0012054D30D50DE4C39FFFE49EFEE49DFD9B
:040E9E00E49CFC22B2
:1004BF00E8600FEFC333FFEE33FEED33FDEC33FC9B
:0304CF00D8F1223F
:10009E00E5082404F582E43402F583E00508229095
:1000AE000201300703900204E475F0011205DF022D
:1000BE0004032000E97F2ED2008018EF540F249005
:1000CE00D43440D4FF30040BEF24BFB41A005003D5
:1000DE002461FFE50960021509050CE50C700205A7
:1000EE000B30070E900201E475F0011205DFEF02EE
:1000FE0004FF0211BA7403D2078003E4C207F508A5
:10010E009002011205F6E4F509F50BF50CE5096010
:10011E00077F201200E180F5750AFFC201C200C2FE
:10012E0002C203C205C206C2081200ADFF700D3036
:10013E0007057F001200F2AF0CAE0B22B4255FC292
:10014E00D5C2041200ADFF24D0B40A00501A75F0C7
:10015E000A780930D50508B6FF0106C6A426F62092
:10016E00D5047002D20380D924CFB41A00EF500404
:10017E00C2E5D2040202F3D20180C6D20080C0D200
:10018E000280BCD2D580BAD20580B47F201200E1A5
:10019E002002077401B5090040F112009EFF120003
:1001AE00E102011BD208D206809512009EFB1200BE
:1001BE009EFA12009EF94A4B700679C47A037BFFB1
:1001CE0020022EE509602A7E008E827583001204BD
:1001DE00D260060EEE650A70F0C2D5EBC0E0EAC042
:1001EE00E0E9C0E0EE12033AD0E0F9D0E0FAD0E058
:1001FE00FB120403FF60AAEBC0E0EAC0E0E9C0E036
:10020E001200E1D0E02401F9D0E03400FAD0E0FB96
:10021E00E50A0460DCD50AD980877BFF7A0379363C
:10022E00D202809C791080027908C206C20880082A
:10023E00D2D5790A8004790AC2D5E50A047002F58E
:10024E000AE4FAFDFEFF12009EFC7B082001131249
:10025E00009EFD7B1030000A12009EFE12009EFFD3
:10026E007B20EC3382D592D55013C3E43000069F29
:10027E00FFE49EFEE42001039DFDE49CFCE4CBF82C
:10028E00C201EC700CCFCECDCCE824F8F870F38020
:10029E0017C3EF33FFEE33FEED33FDEC33FCEB33E0
:1002AE00FB994002FB0FD8E9EB300105F8D0E0C412
:1002BE0048B201C0E00AEC4D4E4F78207B0070C270
:1002CE00EAB50A0040BCC0E012033CD0F0D0E020FA
:1002DE000104C4C0E0C4B201C0F01200CAD0F0D50F
:1002EE00F0EB02011B1205FF01B8530232580189CF
:1002FE004C01854202364F023E44023E49019E4366
:08030E000244550228460228B2
:100316004502284703E450018D2D01912E01B42B8F
:1003260001952301B22003CD2A014D48000001ACFE
:100336003F3F3F00790AA2D5200314300509B910C2
:10034600020404B9080104A2D520060250010420C3
:1003560002689202B509005034C0E07F20300319CC
:100366007F30A20272067205500F120393C202C2B8
:1003760006C205C2087F30800F300503E9C0E012CF
:1003860000E1300503D0E0F9D0E0B509CC3005171F
:100396007F30B9100C1200E17F583004077F788057
:1003A60003B908031200E13002057F2D0200E17F48
:1003B600202008F87F2B2006F322920280CF286E99
:1003C600756C6C2900D20112009E3001F8C20178CA
:1003D6000930D50108F602014D2D50434958120047
:1003E6009E2403B405004001E49003DF931200D27B
:0D03F600743A1200D2D203750904020232DB
:1004D200BB010CE58229F582E5833AF583E02250DF
:1004E20006E92582F8E622BBFE06E92582F8E22229
:0D04F200E58229F582E5833AF583E4932243
:1004FF00BB010689828A83F0225002F722BBFE01DC
:02050F00F322D5
:1005110075F008758200EF2FFFEE33FECD33CDCCA1
:1005210033CCC58233C5829BED9AEC99E582984024
:100531000CF582EE9BFEED9AFDEC99FC0FD5F0D601
:10054100E4CEFBE4CDFAE4CCF9A88222B800C1B92B
:100551000059BA002DEC8BF084CFCECDFCE5F0CB69
:10056100F97818EF2FFFEE33FEED33FDEC33FCEBA2
:1005710033FB10D703994004EB99FB0FD8E5E4F95D
:10058100FA227818EF2FFFEE33FEED33FDEC33FC4A
:10059100C933C910D7059BE99A4007EC9BFCE99A3E
:1005A100F90FD8E0E4C9FAE4CCFB2275F010EF2F83
:1005B100FFEE33FEED33FDCC33CCC833C810D70783
:1005C1009BEC9AE899400AED9BFDEC9AFCE899F8BE
:0E05D1000FD5F0DAE4CDFBE4CCFAE4C8F92251
:1005DF00F8E0FBA3A3E0F925F0F0E58215827002A5
:0705EF001583E0FA38F02249
:0905F600EBF0A3EAF0A3E9F02206
:1005FF00D083D082F8E4937012740193700DA3A38B
:10060F0093F8740193F5828883E47374029368609E
:06061F00EFA3A3A380DF9E
:00000001FF
