:0300000002009E5D
:0C009E00787FE4F6D8FD75810702001F92
:10000300D3EF9400EE940040120000007D0B7CBE01
:0B001300DCFEDDFCEF1F70E81E80E546
:01001E0022BF
:10008A00D3EF9400EE9400400A000000EF1F70F0D6
:04009A001E80ED22B5
:1000560043BC807F0A7E0012000353DEFC43DE0CA5
:0A00660053BCDF53A8DF43DE202265
:10003B00E4FDFCEF444042BCE5BC30E5FB53BCDFC8
:0A004B00AFBDEFADBEFCEDAE04FF4B
:010055002288
:10007000E4F594F593F592F591F596F595F5B2F5CD
:0A008000B1F5B4F5B3F5CAF5C922D5
:10001F0043BA801200701200567F017E0012000357
:0C002F007F017E0012008AE4FF02003B0B
:00000001FF
